{
  "contracts/Factory.sol": {
    "LiteDAOfactory": {
      "abi": [
        {
          "anonymous": false,
          "inputs": [
            {
              "indexed": true,
              "internalType": "address",
              "name": "liteDAO",
              "type": "address"
            }
          ],
          "name": "DAOdeployed",
          "type": "event"
        },
        {
          "inputs": [
            {
              "internalType": "uint256",
              "name": "",
              "type": "uint256"
            }
          ],
          "name": "daoRegistry",
          "outputs": [
            {
              "internalType": "address",
              "name": "",
              "type": "address"
            }
          ],
          "stateMutability": "view",
          "type": "function"
        },
        {
          "inputs": [
            {
              "internalType": "string",
              "name": "name_",
              "type": "string"
            },
            {
              "internalType": "string",
              "name": "symbol_",
              "type": "string"
            },
            {
              "internalType": "bool",
              "name": "paused_",
              "type": "bool"
            },
            {
              "internalType": "address[]",
              "name": "voters",
              "type": "address[]"
            },
            {
              "internalType": "uint256[]",
              "name": "shares",
              "type": "uint256[]"
            },
            {
              "internalType": "uint256",
              "name": "votingPeriod_",
              "type": "uint256"
            },
            {
              "internalType": "uint256",
              "name": "quorum_",
              "type": "uint256"
            },
            {
              "internalType": "uint256",
              "name": "supermajority_",
              "type": "uint256"
            },
            {
              "internalType": "uint8",
              "name": "mint",
              "type": "uint8"
            },
            {
              "internalType": "uint8",
              "name": "burn",
              "type": "uint8"
            },
            {
              "internalType": "uint8",
              "name": "call",
              "type": "uint8"
            },
            {
              "internalType": "uint8",
              "name": "gov",
              "type": "uint8"
            }
          ],
          "name": "deployDAO",
          "outputs": [
            {
              "internalType": "contract LiteDAO",
              "name": "liteDAO",
              "type": "address"
            }
          ],
          "stateMutability": "nonpayable",
          "type": "function"
        }
      ],
      "evm": {
        "bytecode": {
          "linkReferences": {},
          "object": "608060405234801561001057600080fd5b50613e36806100206000396000f3fe60806040523480156200001157600080fd5b50600436106200003a5760003560e01c806320bcbc46146200003f578063c6cd4558146200006e575b600080fd5b6200005662000050366004620004c3565b62000085565b60405162000065919062000566565b60405180910390f35b620000566200007f36600462000379565b620000b0565b600081815481106200009657600080fd5b6000918252602090912001546001600160a01b0316905081565b60008c8c8c8c8c8c8c8c604051620000c890620001e7565b620000db9897969594939291906200057a565b604051809103906000f080158015620000f8573d6000803e3d6000fd5b506040516319b9017760e31b81529091506001600160a01b0382169063cdc80bb8906200013090889088908890889060040162000627565b600060405180830381600087803b1580156200014b57600080fd5b505af115801562000160573d6000803e3d6000fd5b5050600080546001810182558180527f290decd9548b62a8d60345a988386fc84ba6bc95484008f6362f93160ef3e5630180546001600160a01b0319166001600160a01b0386169081179091556040519093507fd3007e080b516533a77819ec02476a9986e31b2875e630f81c2f369342186bff9250a29c9b505050505050505050505050565b61374a80620006b783390190565b600082601f83011262000206578081fd5b813560206200021f620002198362000679565b6200064c565b82815281810190858301838502870184018810156200023c578586fd5b855b85811015620002715781356001600160a01b03811681146200025e578788fd5b845292840192908401906001016200023e565b5090979650505050505050565b600082601f8301126200028f578081fd5b81356020620002a2620002198362000679565b8281528181019085830183850287018401881015620002bf578586fd5b855b858110156200027157813584529284019290840190600101620002c1565b80358015158114620002f057600080fd5b919050565b600082601f83011262000306578081fd5b813567ffffffffffffffff811115620003235762000323620006a0565b62000338601f8201601f19166020016200064c565b8181528460208386010111156200034d578283fd5b816020850160208301379081016020019190915292915050565b803560ff81168114620002f057600080fd5b6000806000806000806000806000806000806101808d8f0312156200039c578788fd5b67ffffffffffffffff8d351115620003b2578788fd5b620003c18e8e358f01620002f5565b9b5067ffffffffffffffff60208e01351115620003dc578788fd5b620003ee8e60208f01358f01620002f5565b9a50620003fe60408e01620002df565b995067ffffffffffffffff60608e0135111562000419578788fd5b6200042b8e60608f01358f01620001f5565b985067ffffffffffffffff60808e0135111562000446578788fd5b620004588e60808f01358f016200027e565b975060a08d0135965060c08d0135955060e08d013594506200047e6101008e0162000367565b93506200048f6101208e0162000367565b9250620004a06101408e0162000367565b9150620004b16101608e0162000367565b90509295989b509295989b509295989b565b600060208284031215620004d5578081fd5b5035919050565b6000815180845260208085019450808401835b838110156200050d57815187529582019590820190600101620004ef565b509495945050505050565b60008151808452815b818110156200053f5760208185018101518683018201520162000521565b81811115620005515782602083870101525b50601f01601f19169290920160200192915050565b6001600160a01b0391909116815260200190565b6000610100808352620005908184018c62000518565b9050602083820381850152620005a7828c62000518565b8a1515604086015284810360608601528951808252828b01935090820190845b81811015620005ee5784516001600160a01b031683529383019391830191600101620005c7565b5050848103608086015262000604818a620004dc565b60a08601989098525050505060c081019290925260e09091015295945050505050565b60ff948516815292841660208401529083166040830152909116606082015260800190565b60405181810167ffffffffffffffff81118282101715620006715762000671620006a0565b604052919050565b600067ffffffffffffffff821115620006965762000696620006a0565b5060209081020190565b634e487b7160e01b600052604160045260246000fdfe6101006040523480156200001257600080fd5b506040516200374a3803806200374a833981016040819052620000359162000915565b87878787878051825114620000675760405162461bcd60e51b81526004016200005e9062000b19565b60405180910390fd5b84516200007c906000906020880190620006e8565b50835162000092906001906020870190620006e8565b506005805460ff191684151517905546608052620000af620001f2565b60a05260005b82518110156200018c5762000121838281518110620000e457634e487b7160e01b600052603260045260246000fd5b60200260200101518383815181106200010d57634e487b7160e01b600052603260045260246000fd5b60200260200101516200029460201b60201c565b620001838382815181106200014657634e487b7160e01b600052603260045260246000fd5b60200260200101518483815181106200016f57634e487b7160e01b600052603260045260246000fd5b60200260200101516200030860201b60201c565b600101620000b5565b5050505050506064821115620001b65760405162461bcd60e51b81526004016200005e9062000af5565b6064811115620001da5760405162461bcd60e51b81526004016200005e9062000aca565b600b9290925560c05260e0525062000c559350505050565b60007f8b73c3c69bb8fe3d512ecc4cf759cc79239f7b179b0ffacaa9a75d522b39400f6000604051620002269190620009f9565b60408051918290038220828201825260018352603160f81b60209384015290516200027993927fc89efdaa54c0f20c7adf612882df0950f5a951637e0307cdcb4c672f298b8bc691469130910162000a9e565b60405160208183030381529060405280519060200120905090565b8060026000828254620002a8919062000bb7565b90915550506001600160a01b038216600081815260036020526040808220805485019055517fddf252ad1be2c89b69c2b068fc378daa952ba7f163c4a11628f55a4df523b3ef90620002fc90859062000b42565b60405180910390a35050565b6001600160a01b03808316600090815260066020908152604080832080548686166001600160a01b0319821617909155600390925290912054911690620003539082908490620003a2565b816001600160a01b0316816001600160a01b0316846001600160a01b03167f3134e8a2e6d97e929a7e54011ea5485d7d196dd5f0ba4d4ef95803e8e3fc257f60405160405180910390a4505050565b816001600160a01b0316836001600160a01b031614158015620003c55750600081115b1562000527576001600160a01b0383161562000479576001600160a01b0383166000908152600860205260408120549081620004035760006200044c565b6001600160a01b0385166000908152600760205260408120906200042960018562000bd2565b815260208101919091526040016000205464010000000090046001600160e01b03165b6001600160e01b03169050600062000465848362000bd2565b905062000475868484846200052c565b5050505b6001600160a01b0382161562000527576001600160a01b0382166000908152600860205260408120549081620004b1576000620004fa565b6001600160a01b038416600090815260076020526040812090620004d760018562000bd2565b815260208101919091526040016000205464010000000090046001600160e01b03165b6001600160e01b03169050600062000513848362000bb7565b905062000523858484846200052c565b5050505b505050565b6000831180156200056957506001600160a01b03841660009081526007602090815260408083206000198701845290915290205463ffffffff1642145b15620005ca576200057a81620006b9565b6001600160a01b038516600090815260076020908152604080832060001988018452909152902080546001600160e01b03929092166401000000000263ffffffff9092169190911790556200066e565b6040518060400160405280620005e642620006d460201b60201c565b63ffffffff168152602001620005fc83620006b9565b6001600160e01b039081169091526001600160a01b0386166000818152600760209081526040808320898452825280832086518154978401519096166401000000000263ffffffff96871663ffffffff1990981697909717909516959095179093559081526008909152206001840190555b836001600160a01b03167fdec2bacdd2f05b59de34da9b523dff8be42e5e38e818c82fdb0bae774387a7248383604051620006ab92919062000b4b565b60405180910390a250505050565b60006001600160e01b03821115620006d057600080fd5b5090565b600063ffffffff821115620006d057600080fd5b828054620006f69062000bec565b90600052602060002090601f0160209004810192826200071a576000855562000765565b82601f106200073557805160ff191683800117855562000765565b8280016001018555821562000765579182015b828111156200076557825182559160200191906001019062000748565b50620006d09291505b80821115620006d057600081556001016200076e565b600082601f83011262000795578081fd5b81516020620007ae620007a88362000b85565b62000b59565b8281528181019085830183850287018401881015620007cb578586fd5b855b85811015620008005781516001600160a01b0381168114620007ed578788fd5b84529284019290840190600101620007cd565b5090979650505050505050565b600082601f8301126200081e578081fd5b8151602062000831620007a88362000b85565b82815281810190858301838502870184018810156200084e578586fd5b855b85811015620008005781518452928401929084019060010162000850565b805180151581146200087f57600080fd5b919050565b600082601f83011262000895578081fd5b81516001600160401b03811115620008b157620008b162000c3f565b6020620008c7601f8301601f1916820162000b59565b8281528582848701011115620008db578384fd5b835b83811015620008fa578581018301518282018401528201620008dd565b838111156200090b57848385840101525b5095945050505050565b600080600080600080600080610100898b03121562000932578384fd5b88516001600160401b038082111562000949578586fd5b620009578c838d0162000884565b995060208b01519150808211156200096d578586fd5b6200097b8c838d0162000884565b98506200098b60408c016200086e565b975060608b0151915080821115620009a1578586fd5b620009af8c838d0162000784565b965060808b0151915080821115620009c5578586fd5b50620009d48b828c016200080d565b94505060a0890151925060c0890151915060e089015190509295985092959890939650565b815460009081906002810460018083168062000a1657607f831692505b602080841082141562000a3757634e487b7160e01b87526022600452602487fd5b81801562000a4e576001811462000a605762000a90565b60ff1986168952848901965062000a90565b62000a6b8a62000bab565b885b8681101562000a885781548b82015290850190830162000a6d565b505084890196505b509498975050505050505050565b9485526020850193909352604084019190915260608301526001600160a01b0316608082015260a00190565b6020808252601190820152700a6aaa08aa49a82949ea492a8b2be9a82b607b1b604082015260600190565b6020808252600a90820152690a2aa9ea4aa9abe9a82b60b31b604082015260600190565b6020808252600f908201526e4e4f5f41525241595f50415249545960881b604082015260600190565b90815260200190565b918252602082015260400190565b6040518181016001600160401b038111828210171562000b7d5762000b7d62000c3f565b604052919050565b60006001600160401b0382111562000ba15762000ba162000c3f565b5060209081020190565b60009081526020902090565b6000821982111562000bcd5762000bcd62000c29565b500190565b60008282101562000be75762000be762000c29565b500390565b60028104600182168062000c0157607f821691505b6020821081141562000c2357634e487b7160e01b600052602260045260246000fd5b50919050565b634e487b7160e01b600052601160045260246000fd5b634e487b7160e01b600052604160045260246000fd5b60805160a05160c05160e051612aad62000c9d600039600081816109750152611b5c0152600081816107670152611a4801526000610906015260006108d20152612aad6000f3fe608060405234801561001057600080fd5b50600436106102115760003560e01c80636fcfff4511610125578063c3cda520116100ad578063da35c6641161007c578063da35c6641461046b578063dd62ed3e14610473578063e63bc62d14610486578063e7a324dc14610499578063f23a6e61146104a157610211565b8063c3cda5201461041f578063c9d27afe14610432578063cdc80bb814610445578063d505accf1461045857610211565b80637ecebe00116100f45780637ecebe00146103cb578063956cbab2146103de57806395d89b41146103f1578063a9059cbb146103f9578063b4b5ea571461040c57610211565b80636fcfff451461037257806370a082311461038557806371cda63b14610398578063782d6fe1146103b857610211565b806323b872dd116101a85780635277b4ae116101775780635277b4ae1461031a578063587cde1e1461032d5780635c19a95c1461034d5780635c31f220146103625780635c975abb1461036a57610211565b806323b872dd146102e257806330adf81f146102f5578063313ce567146102fd5780633644e5151461031257610211565b80630cdfebfa116101e45780630cdfebfa14610291578063150b7a02146102b25780631703a018146102d257806318160ddd146102da57610211565b8063013cf08b1461021657806302a251a31461024757806306fdde031461025c578063095ea7b314610271575b600080fd5b610229610224366004612436565b6104b4565b60405161023e999897969594939291906126aa565b60405180910390f35b61024f610620565b60405161023e91906125ea565b610264610626565b60405161023e9190612735565b61028461027f3660046122f1565b6106b4565b60405161023e91906125df565b6102a461029f3660046122f1565b61071f565b60405161023e92919061294d565b6102c56102c03660046121a5565b610754565b60405161023e9190612695565b61024f610765565b61024f610789565b6102846102f036600461216a565b61078f565b61024f6108a5565b6103056108c9565b60405161023e919061296c565b61024f6108ce565b61028461032836600461244e565b61092b565b61034061033b36600461211e565b61094b565b60405161023e91906125cb565b61036061035b36600461211e565b610966565b005b61024f610973565b610284610997565b61024f61038036600461211e565b6109a0565b61024f61039336600461211e565b6109b2565b6103ab6103a6366004612371565b6109c4565b60405161023e9190612722565b61024f6103c63660046122f1565b6109d9565b61024f6103d936600461211e565b610bbd565b6103606103ec36600461238b565b610bcf565b610264610e02565b6102846104073660046122f1565b610e0f565b61024f61041a36600461211e565b610e97565b61036061042d36600461231a565b610f05565b610360610440366004612470565b611078565b6103606104533660046124a3565b61119d565b610360610466366004612288565b6113ca565b61024f61159b565b61024f610481366004612138565b6115a1565b610284610494366004612436565b6115be565b61024f611882565b6102c56104af366004612212565b6118a6565b600d602052600090815260409020805460018201805460ff90921692916104da906129e8565b80601f0160208091040260200160405190810160405280929190818152602001828054610506906129e8565b80156105535780601f1061052857610100808354040283529160200191610553565b820191906000526020600020905b81548152906001019060200180831161053657829003601f168201915b5050505060028301546003840154600485015460058601805495966001600160a01b0394851696949093169450909261058b906129e8565b80601f01602080910402602001604051908101604052809291908181526020018280546105b7906129e8565b80156106045780601f106105d957610100808354040283529160200191610604565b820191906000526020600020905b8154815290600101906020018083116105e757829003601f168201915b5050505050908060060154908060070154908060080154905089565b600b5481565b60008054610633906129e8565b80601f016020809104026020016040519081016040528092919081815260200182805461065f906129e8565b80156106ac5780601f10610681576101008083540402835291602001916106ac565b820191906000526020600020905b81548152906001019060200180831161068f57829003601f168201915b505050505081565b3360008181526004602090815260408083206001600160a01b038716808552925280832085905551919290917f8c5be1e5ebec7d5bd14f71427d1e84f3dd0314c0f7b2291e5b200ac8c7c3b9259061070d9086906125ea565b60405180910390a35060015b92915050565b600760209081526000928352604080842090915290825290205463ffffffff811690600160201b90046001600160e01b031682565b50630a85bd0160e11b949350505050565b7f000000000000000000000000000000000000000000000000000000000000000081565b60025481565b60055460009060ff16156107be5760405162461bcd60e51b81526004016107b590612748565b60405180910390fd5b6001600160a01b038416600090815260046020908152604080832033845290915290205460001914610823576001600160a01b03841660009081526004602090815260408083203384529091528120805484929061081d9084906129d1565b90915550505b6001600160a01b0384166000908152600360205260408120805484929061084b9084906129d1565b90915550506001600160a01b0380841660008181526003602052604090819020805486019055519091861690600080516020612a58833981519152906108929086906125ea565b60405180910390a35060015b9392505050565b7f6e71edae12b1b97f4d1f60370fef10105fa2faae0126114a169c64845d6126c981565b601281565b60007f00000000000000000000000000000000000000000000000000000000000000004614610904576108ff6118b8565b610926565b7f00000000000000000000000000000000000000000000000000000000000000005b905090565b600f60209081526000928352604080842090915290825290205460ff1681565b6006602052600090815260409020546001600160a01b031681565b6109703382611956565b50565b7f000000000000000000000000000000000000000000000000000000000000000081565b60055460ff1681565b60086020526000908152604090205481565b60036020526000908152604090205481565b600e6020526000908152604090205460ff1681565b60008142116109fa5760405162461bcd60e51b81526004016107b59061278d565b6001600160a01b03831660009081526008602052604090205480610a22576000915050610719565b6001600160a01b03841660009081526007602090815260408083206000198501845290915290205463ffffffff168310610a96576001600160a01b0384166000908152600760209081526040808320600019909401835292905220546001600160e01b03600160201b909104169050610719565b6001600160a01b038416600090815260076020908152604080832083805290915290205463ffffffff16831015610ad1576000915050610719565b600060001982015b81811115610b7f576001600160a01b038616600090815260076020908152604080832060028686030485038085529083529281902081518083019092525463ffffffff8116808352600160201b9091046001600160e01b03169282019290925290871415610b5a57602001516001600160e01b031694506107199350505050565b805163ffffffff16871115610b7157819350610b78565b6001820392505b5050610ad9565b506001600160a01b038516600090815260076020908152604080832093835292905220546001600160e01b03600160201b9091041691505092915050565b60096020526000908152604090205481565b33600090815260036020526040902054610bfb5760405162461bcd60e51b81526004016107b5906128de565b600a54604080516101208101909152808a6003811115610c2b57634e487b7160e01b600052602160045260246000fd5b815260200189898080601f016020809104026020016040519081016040528093929190818152602001838380828437600081840152601f19601f820116905080830192505050505050508152602001876001600160a01b03168152602001866001600160a01b0316815260200185815260200184848080601f01602080910402602001604051908101604052809392919081815260200183838082843760009201829052509385525050506020808301829052604080840183905242606090940193909352848252600d90522081518154829060ff19166001836003811115610d2457634e487b7160e01b600052602160045260246000fd5b02179055506020828101518051610d419260018501920190611fce565b5060408201516002820180546001600160a01b039283166001600160a01b03199182161790915560608401516003840180549190931691161790556080820151600482015560a08201518051610da1916005840191602090910190611fce565b5060c0820151600682015560e0820151600782015561010090910151600890910155600a8054600101905560405181907f9a863892f20a6b9c6cec64d611b5864be6373191ce2cacc3b05a299bce3bf80e90600090a2505050505050505050565b60018054610633906129e8565b60055460009060ff1615610e355760405162461bcd60e51b81526004016107b590612748565b3360009081526003602052604081208054849290610e549084906129d1565b90915550506001600160a01b03831660008181526003602052604090819020805485019055513390600080516020612a588339815191529061070d9086906125ea565b6001600160a01b03811660009081526008602052604081205480610ebc576000610ef5565b6001600160a01b038316600090815260076020908152604080832060001985018452909152902054600160201b90046001600160e01b03165b6001600160e01b03169392505050565b60007fe48329057bfd03d55e49b547132e39cffd9c1820ad7b9d4c5307691425d15adf878787604051602001610f3e9493929190612627565b6040516020818303038152906040528051906020012090506000610f606108ce565b82604051602001610f729291906125b0565b604051602081830303815290604052805190602001209050600060018287878760405160008152602001604052604051610faf9493929190612677565b6020604051602081039080840390855afa158015610fd1573d6000803e3d6000fd5b5050604051601f1901519150506001600160a01b0381166110045760405162461bcd60e51b81526004016107b590612841565b6001600160a01b038116600090815260096020526040902080546001810190915588146110435760405162461bcd60e51b81526004016107b5906128b7565b864211156110635760405162461bcd60e51b81526004016107b590612816565b61106d818a611956565b505050505050505050565b336000908152600360205260409020546110a45760405162461bcd60e51b81526004016107b5906128de565b6000828152600f6020908152604080832033845290915290205460ff16156110de5760405162461bcd60e51b81526004016107b590612867565b6000828152600d60205260409020600b546008820154014211156111145760405162461bcd60e51b81526004016107b5906127b9565b60006111243383600801546109d9565b9050821561113b5760068201805482019055611146565b600782018054820190555b6000848152600f60209081526040808320338085529252808320805460ff1916600117905551851515928792917fd356173ae8eeea8691aee4c1be712c314a975a3d43ebc48b08ca54d0dac912289190a450505050565b600c5460ff16156111c05760405162461bcd60e51b81526004016107b590612768565b8360ff1660038111156111e357634e487b7160e01b600052602160045260246000fd5b60008052600e6020527fe710864318d4a32f37d6ce54cb3fadbef648dd12d8dbdf53973564d56b7f881c805460ff1916600183600381111561123557634e487b7160e01b600052602160045260246000fd5b02179055508260ff16600381111561125d57634e487b7160e01b600052602160045260246000fd5b60016000819052600e6020527fa7c5ba7114a813b50159add3a36832908dc83db71d0b9a24c2ad0f83be9582078054909160ff19909116908360038111156112b557634e487b7160e01b600052602160045260246000fd5b02179055508160ff1660038111156112dd57634e487b7160e01b600052602160045260246000fd5b6002600052600e6020527f9adb202b1492743bc00c81d33cdc6423fa8c79109027eb6a845391e8fc1f0481805460ff1916600183600381111561133057634e487b7160e01b600052602160045260246000fd5b02179055508060ff16600381111561135857634e487b7160e01b600052602160045260246000fd5b60036000819052600e6020527fe0283e559c29e31ee7f56467acc9dd307779c843a883aeeb3bf5c6128c9081448054909160ff199091169060019084908111156113b257634e487b7160e01b600052602160045260246000fd5b021790555050600c805460ff19166001179055505050565b834211156113ea5760405162461bcd60e51b81526004016107b590612908565b60006113f46108ce565b6001600160a01b0389166000908152600960209081526040918290208054600181019091559151611451927f6e71edae12b1b97f4d1f60370fef10105fa2faae0126114a169c64845d6126c9928d928d928d9290918d91016125f3565b604051602081830303815290604052805190602001206040516020016114789291906125b0565b6040516020818303038152906040528051906020012090506000600182868686604051600081526020016040526040516114b59493929190612677565b6020604051602081039080840390855afa1580156114d7573d6000803e3d6000fd5b5050604051601f1901519150506001600160a01b0381161580159061150d5750886001600160a01b0316816001600160a01b0316145b6115295760405162461bcd60e51b81526004016107b5906127df565b6001600160a01b0390811660009081526004602090815260408083208b85168085529252918290208990559051909250908916907f8c5be1e5ebec7d5bd14f71427d1e84f3dd0314c0f7b2291e5b200ac8c7c3b9259061158a9089906125ea565b60405180910390a350505050505050565b600a5481565b600460209081526000928352604080842090915290825290205481565b6000818152600d6020526040812080548290600e90829060ff1660038111156115f757634e487b7160e01b600052602160045260246000fd5b600381111561161657634e487b7160e01b600052602160045260246000fd5b815260200190815260200160002060009054906101000a900460ff169050600061164982846006015485600701546119ee565b905080156117de576000835460ff16600381111561167757634e487b7160e01b600052602160045260246000fd5b141561169a576002830154600484015461169a916001600160a01b031690611baf565b6001835460ff1660038111156116c057634e487b7160e01b600052602160045260246000fd5b14156116e357600283015460048401546116e3916001600160a01b031690611c0d565b6002835460ff16600381111561170957634e487b7160e01b600052602160045260246000fd5b141561177e57600283015460048401546040516001600160a01b0390921691611736906005870190612541565b60006040518083038185875af1925050503d8060008114611773576040519150601f19603f3d011682016040523d82523d6000602084013e611778565b606091505b50909450505b6003835460ff1660038111156117a457634e487b7160e01b600052602160045260246000fd5b14156117de576004830154156117bd576004830154600b555b60008360050180546117ce906129e8565b905011156117de576117de611c6f565b6000858152600d60205260408120805460ff1916815590611802600183018261204e565b6002820180546001600160a01b0319908116909155600383018054909116905560006004830181905561183990600584019061204e565b5060006006820181905560078201819055600890910181905560405186917f967a841bba912ff281a1ec8be3ea50d333cc6c7c3e2f41fb684fa8d96c80c52d91a2505050919050565b7fe48329057bfd03d55e49b547132e39cffd9c1820ad7b9d4c5307691425d15adf81565b5063f23a6e6160e01b95945050505050565b60007f8b73c3c69bb8fe3d512ecc4cf759cc79239f7b179b0ffacaa9a75d522b39400f60006040516118ea9190612541565b60408051918290038220828201825260018352603160f81b602093840152905161193b93927fc89efdaa54c0f20c7adf612882df0950f5a951637e0307cdcb4c672f298b8bc691469130910161264b565b60405160208183030381529060405280519060200120905090565b6001600160a01b03808316600090815260066020908152604080832080548686166001600160a01b031982161790915560039092529091205491169061199f9082908490611cb3565b816001600160a01b0316816001600160a01b0316846001600160a01b03167f3134e8a2e6d97e929a7e54011ea5485d7d196dd5f0ba4d4ef95803e8e3fc257f60405160405180910390a4505050565b60006001846003811115611a1257634e487b7160e01b600052602160045260246000fd5b1480611a3d57506003846003811115611a3b57634e487b7160e01b600052602160045260246000fd5b145b15611aa657600060647f0000000000000000000000000000000000000000000000000000000000000000600254611a7491906129b2565b611a7e9190612992565b905083830181811015611aa35760405162461bcd60e51b81526004016107b59061288e565b50505b6000846003811115611ac857634e487b7160e01b600052602160045260246000fd5b1480611af357506001846003811115611af157634e487b7160e01b600052602160045260246000fd5b145b15611b045781831115611b04575060015b6002846003811115611b2657634e487b7160e01b600052602160045260246000fd5b1480611b5157506003846003811115611b4f57634e487b7160e01b600052602160045260246000fd5b145b1561089e57600060647f0000000000000000000000000000000000000000000000000000000000000000611b85858761297a565b611b8f91906129b2565b611b999190612992565b9050808410611ba757600191505b509392505050565b8060026000828254611bc1919061297a565b90915550506001600160a01b03821660008181526003602052604080822080548501905551600080516020612a5883398151915290611c019085906125ea565b60405180910390a35050565b6001600160a01b03821660009081526003602052604081208054839290611c359084906129d1565b90915550506002805482900390556040516000906001600160a01b03841690600080516020612a5883398151915290611c019085906125ea565b6005805460ff19811660ff91821615179182905560405191161515907ff8cec1b05ef1ff4ed57b2ab252020e10315146c455d9d966e5eb2dbc7f32722190600090a2565b816001600160a01b0316836001600160a01b031614158015611cd55750600081115b15611e22576001600160a01b03831615611d7e576001600160a01b0383166000908152600860205260408120549081611d0f576000611d55565b6001600160a01b038516600090815260076020526040812090611d336001856129d1565b8152602081019190915260400160002054600160201b90046001600160e01b03165b6001600160e01b031690506000611d6c84836129d1565b9050611d7a86848484611e27565b5050505b6001600160a01b03821615611e22576001600160a01b0382166000908152600860205260408120549081611db3576000611df9565b6001600160a01b038416600090815260076020526040812090611dd76001856129d1565b8152602081019190915260400160002054600160201b90046001600160e01b03165b6001600160e01b031690506000611e10848361297a565b9050611e1e85848484611e27565b5050505b505050565b600083118015611e6357506001600160a01b03841660009081526007602090815260408083206000198701845290915290205463ffffffff1642145b15611ebf57611e7181611fa1565b6001600160a01b038516600090815260076020908152604080832060001988018452909152902080546001600160e01b0392909216600160201b0263ffffffff909216919091179055611f58565b6040518060400160405280611ed342611fbb565b63ffffffff168152602001611ee783611fa1565b6001600160e01b039081169091526001600160a01b038616600081815260076020908152604080832089845282528083208651815497840151909616600160201b0263ffffffff96871663ffffffff1990981697909717909516959095179093559081526008909152206001840190555b836001600160a01b03167fdec2bacdd2f05b59de34da9b523dff8be42e5e38e818c82fdb0bae774387a7248383604051611f9392919061293f565b60405180910390a250505050565b60006001600160e01b03821115611fb757600080fd5b5090565b600063ffffffff821115611fb757600080fd5b828054611fda906129e8565b90600052602060002090601f016020900481019282611ffc5760008555612042565b82601f1061201557805160ff1916838001178555612042565b82800160010185558215612042579182015b82811115612042578251825591602001919060010190612027565b50611fb7929150612086565b50805461205a906129e8565b6000825580601f1061206c5750610970565b601f01602090049060005260206000209081019061097091905b5b80821115611fb75760008155600101612087565b80356001600160a01b03811681146120b257600080fd5b919050565b60008083601f8401126120c8578182fd5b50813567ffffffffffffffff8111156120df578182fd5b6020830191508360208285010111156120f757600080fd5b9250929050565b8035600481106120b257600080fd5b803560ff811681146120b257600080fd5b60006020828403121561212f578081fd5b61089e8261209b565b6000806040838503121561214a578081fd5b6121538361209b565b91506121616020840161209b565b90509250929050565b60008060006060848603121561217e578081fd5b6121878461209b565b92506121956020850161209b565b9150604084013590509250925092565b6000806000806000608086880312156121bc578081fd5b6121c58661209b565b94506121d36020870161209b565b935060408601359250606086013567ffffffffffffffff8111156121f5578182fd5b612201888289016120b7565b969995985093965092949392505050565b60008060008060008060a0878903121561222a578081fd5b6122338761209b565b95506122416020880161209b565b94506040870135935060608701359250608087013567ffffffffffffffff81111561226a578182fd5b61227689828a016120b7565b979a9699509497509295939492505050565b600080600080600080600060e0888a0312156122a2578081fd5b6122ab8861209b565b96506122b96020890161209b565b955060408801359450606088013593506122d56080890161210d565b925060a0880135915060c0880135905092959891949750929550565b60008060408385031215612303578182fd5b61230c8361209b565b946020939093013593505050565b60008060008060008060c08789031215612332578182fd5b61233b8761209b565b955060208701359450604087013593506123576060880161210d565b92506080870135915060a087013590509295509295509295565b600060208284031215612382578081fd5b61089e826120fe565b60008060008060008060008060c0898b0312156123a6578182fd5b6123af896120fe565b9750602089013567ffffffffffffffff808211156123cb578384fd5b6123d78c838d016120b7565b90995097508791506123eb60408c0161209b565b96506123f960608c0161209b565b955060808b0135945060a08b0135915080821115612415578384fd5b506124228b828c016120b7565b999c989b5096995094979396929594505050565b600060208284031215612447578081fd5b5035919050565b60008060408385031215612460578182fd5b823591506121616020840161209b565b60008060408385031215612482578182fd5b8235915060208301358015158114612498578182fd5b809150509250929050565b600080600080608085870312156124b8578182fd5b6124c18561210d565b93506124cf6020860161210d565b92506124dd6040860161210d565b91506124eb6060860161210d565b905092959194509250565b60008151808452815b8181101561251b576020818501810151868301820152016124ff565b8181111561252c5782602083870101525b50601f01601f19169290920160200192915050565b600080835461254f816129e8565b600182811680156125675760018114612578576125a4565b60ff198416875282870194506125a4565b8786526020808720875b8581101561259b5781548a820152908401908201612582565b50505082870194505b50929695505050505050565b61190160f01b81526002810192909252602282015260420190565b6001600160a01b0391909116815260200190565b901515815260200190565b90815260200190565b9586526001600160a01b0394851660208701529290931660408501526060840152608083019190915260a082015260c00190565b9384526001600160a01b039290921660208401526040830152606082015260800190565b9485526020850193909352604084019190915260608301526001600160a01b0316608082015260a00190565b93845260ff9290921660208401526040830152606082015260800190565b6001600160e01b031991909116815260200190565b60006101206126b88c612a39565b8b83528060208401526126cd8184018c6124f6565b6001600160a01b038b811660408601528a1660608501526080840189905283810360a085015290506126ff81886124f6565b60c0840196909652505060e0810192909252610100909101529695505050505050565b6020810161272f83612a39565b91905290565b60006020825261089e60208301846124f6565b60208082526006908201526514105554d15160d21b604082015260600190565b6020808252600b908201526a125392551250531256915160aa1b604082015260600190565b6020808252601290820152711393d517d6515517d111551154935253915160721b604082015260600190565b6020808252600c908201526b1593d5125391d7d15391115160a21b604082015260600190565b60208082526018908201527f494e56414c49445f5045524d49545f5349474e41545552450000000000000000604082015260600190565b60208082526011908201527014d251d3905515549157d1561412549151607a1b604082015260600190565b6020808252600c908201526b5a45524f5f4144445245535360a01b604082015260600190565b6020808252600d908201526c1053149150511657d593d51151609a1b604082015260600190565b6020808252600f908201526e145553d4955357d491545552549151608a1b604082015260600190565b6020808252600d908201526c494e56414c49445f4e4f4e434560981b604082015260600190565b60208082526010908201526f2727aa2faa27a5a2a72fa427a62222a960811b604082015260600190565b60208082526017908201527f5045524d49545f444541444c494e455f45585049524544000000000000000000604082015260600190565b918252602082015260400190565b63ffffffff9290921682526001600160e01b0316602082015260400190565b60ff91909116815260200190565b6000821982111561298d5761298d612a23565b500190565b6000826129ad57634e487b7160e01b81526012600452602481fd5b500490565b60008160001904831182151516156129cc576129cc612a23565b500290565b6000828210156129e3576129e3612a23565b500390565b6002810460018216806129fc57607f821691505b60208210811415612a1d57634e487b7160e01b600052602260045260246000fd5b50919050565b634e487b7160e01b600052601160045260246000fd5b6004811061097057634e487b7160e01b600052602160045260246000fdfeddf252ad1be2c89b69c2b068fc378daa952ba7f163c4a11628f55a4df523b3efa2646970667358221220f9e2b72db9d7d5c98dc3e0e6d6168a6a5176b1e987c60b9fedc68fefcc15e37064736f6c63430008000033a26469706673582212206241fde95bd32b869ca09be7c35ff441e71388c3d690be7047d695aa5208972e64736f6c63430008000033",
          "opcodes": "PUSH1 0x80 PUSH1 0x40 MSTORE CALLVALUE DUP1 ISZERO PUSH2 0x10 JUMPI PUSH1 0x0 DUP1 REVERT JUMPDEST POP PUSH2 0x3E36 DUP1 PUSH2 0x20 PUSH1 0x0 CODECOPY PUSH1 0x0 RETURN INVALID PUSH1 0x80 PUSH1 0x40 MSTORE CALLVALUE DUP1 ISZERO PUSH3 0x11 JUMPI PUSH1 0x0 DUP1 REVERT JUMPDEST POP PUSH1 0x4 CALLDATASIZE LT PUSH3 0x3A JUMPI PUSH1 0x0 CALLDATALOAD PUSH1 0xE0 SHR DUP1 PUSH4 0x20BCBC46 EQ PUSH3 0x3F JUMPI DUP1 PUSH4 0xC6CD4558 EQ PUSH3 0x6E JUMPI JUMPDEST PUSH1 0x0 DUP1 REVERT JUMPDEST PUSH3 0x56 PUSH3 0x50 CALLDATASIZE PUSH1 0x4 PUSH3 0x4C3 JUMP JUMPDEST PUSH3 0x85 JUMP JUMPDEST PUSH1 0x40 MLOAD PUSH3 0x65 SWAP2 SWAP1 PUSH3 0x566 JUMP JUMPDEST PUSH1 0x40 MLOAD DUP1 SWAP2 SUB SWAP1 RETURN JUMPDEST PUSH3 0x56 PUSH3 0x7F CALLDATASIZE PUSH1 0x4 PUSH3 0x379 JUMP JUMPDEST PUSH3 0xB0 JUMP JUMPDEST PUSH1 0x0 DUP2 DUP2 SLOAD DUP2 LT PUSH3 0x96 JUMPI PUSH1 0x0 DUP1 REVERT JUMPDEST PUSH1 0x0 SWAP2 DUP3 MSTORE PUSH1 0x20 SWAP1 SWAP2 KECCAK256 ADD SLOAD PUSH1 0x1 PUSH1 0x1 PUSH1 0xA0 SHL SUB AND SWAP1 POP DUP2 JUMP JUMPDEST PUSH1 0x0 DUP13 DUP13 DUP13 DUP13 DUP13 DUP13 DUP13 DUP13 PUSH1 0x40 MLOAD PUSH3 0xC8 SWAP1 PUSH3 0x1E7 JUMP JUMPDEST PUSH3 0xDB SWAP9 SWAP8 SWAP7 SWAP6 SWAP5 SWAP4 SWAP3 SWAP2 SWAP1 PUSH3 0x57A JUMP JUMPDEST PUSH1 0x40 MLOAD DUP1 SWAP2 SUB SWAP1 PUSH1 0x0 CREATE DUP1 ISZERO DUP1 ISZERO PUSH3 0xF8 JUMPI RETURNDATASIZE PUSH1 0x0 DUP1 RETURNDATACOPY RETURNDATASIZE PUSH1 0x0 REVERT JUMPDEST POP PUSH1 0x40 MLOAD PUSH4 0x19B90177 PUSH1 0xE3 SHL DUP2 MSTORE SWAP1 SWAP2 POP PUSH1 0x1 PUSH1 0x1 PUSH1 0xA0 SHL SUB DUP3 AND SWAP1 PUSH4 0xCDC80BB8 SWAP1 PUSH3 0x130 SWAP1 DUP9 SWAP1 DUP9 SWAP1 DUP9 SWAP1 DUP9 SWAP1 PUSH1 0x4 ADD PUSH3 0x627 JUMP JUMPDEST PUSH1 0x0 PUSH1 0x40 MLOAD DUP1 DUP4 SUB DUP2 PUSH1 0x0 DUP8 DUP1 EXTCODESIZE ISZERO DUP1 ISZERO PUSH3 0x14B JUMPI PUSH1 0x0 DUP1 REVERT JUMPDEST POP GAS CALL ISZERO DUP1 ISZERO PUSH3 0x160 JUMPI RETURNDATASIZE PUSH1 0x0 DUP1 RETURNDATACOPY RETURNDATASIZE PUSH1 0x0 REVERT JUMPDEST POP POP PUSH1 0x0 DUP1 SLOAD PUSH1 0x1 DUP2 ADD DUP3 SSTORE DUP2 DUP1 MSTORE PUSH32 0x290DECD9548B62A8D60345A988386FC84BA6BC95484008F6362F93160EF3E563 ADD DUP1 SLOAD PUSH1 0x1 PUSH1 0x1 PUSH1 0xA0 SHL SUB NOT AND PUSH1 0x1 PUSH1 0x1 PUSH1 0xA0 SHL SUB DUP7 AND SWAP1 DUP2 OR SWAP1 SWAP2 SSTORE PUSH1 0x40 MLOAD SWAP1 SWAP4 POP PUSH32 0xD3007E080B516533A77819EC02476A9986E31B2875E630F81C2F369342186BFF SWAP3 POP LOG2 SWAP13 SWAP12 POP POP POP POP POP POP POP POP POP POP POP POP JUMP JUMPDEST PUSH2 0x374A DUP1 PUSH3 0x6B7 DUP4 CODECOPY ADD SWAP1 JUMP JUMPDEST PUSH1 0x0 DUP3 PUSH1 0x1F DUP4 ADD SLT PUSH3 0x206 JUMPI DUP1 DUP2 REVERT JUMPDEST DUP2 CALLDATALOAD PUSH1 0x20 PUSH3 0x21F PUSH3 0x219 DUP4 PUSH3 0x679 JUMP JUMPDEST PUSH3 0x64C JUMP JUMPDEST DUP3 DUP2 MSTORE DUP2 DUP2 ADD SWAP1 DUP6 DUP4 ADD DUP4 DUP6 MUL DUP8 ADD DUP5 ADD DUP9 LT ISZERO PUSH3 0x23C JUMPI DUP6 DUP7 REVERT JUMPDEST DUP6 JUMPDEST DUP6 DUP2 LT ISZERO PUSH3 0x271 JUMPI DUP2 CALLDATALOAD PUSH1 0x1 PUSH1 0x1 PUSH1 0xA0 SHL SUB DUP2 AND DUP2 EQ PUSH3 0x25E JUMPI DUP8 DUP9 REVERT JUMPDEST DUP5 MSTORE SWAP3 DUP5 ADD SWAP3 SWAP1 DUP5 ADD SWAP1 PUSH1 0x1 ADD PUSH3 0x23E JUMP JUMPDEST POP SWAP1 SWAP8 SWAP7 POP POP POP POP POP POP POP JUMP JUMPDEST PUSH1 0x0 DUP3 PUSH1 0x1F DUP4 ADD SLT PUSH3 0x28F JUMPI DUP1 DUP2 REVERT JUMPDEST DUP2 CALLDATALOAD PUSH1 0x20 PUSH3 0x2A2 PUSH3 0x219 DUP4 PUSH3 0x679 JUMP JUMPDEST DUP3 DUP2 MSTORE DUP2 DUP2 ADD SWAP1 DUP6 DUP4 ADD DUP4 DUP6 MUL DUP8 ADD DUP5 ADD DUP9 LT ISZERO PUSH3 0x2BF JUMPI DUP6 DUP7 REVERT JUMPDEST DUP6 JUMPDEST DUP6 DUP2 LT ISZERO PUSH3 0x271 JUMPI DUP2 CALLDATALOAD DUP5 MSTORE SWAP3 DUP5 ADD SWAP3 SWAP1 DUP5 ADD SWAP1 PUSH1 0x1 ADD PUSH3 0x2C1 JUMP JUMPDEST DUP1 CALLDATALOAD DUP1 ISZERO ISZERO DUP2 EQ PUSH3 0x2F0 JUMPI PUSH1 0x0 DUP1 REVERT JUMPDEST SWAP2 SWAP1 POP JUMP JUMPDEST PUSH1 0x0 DUP3 PUSH1 0x1F DUP4 ADD SLT PUSH3 0x306 JUMPI DUP1 DUP2 REVERT JUMPDEST DUP2 CALLDATALOAD PUSH8 0xFFFFFFFFFFFFFFFF DUP2 GT ISZERO PUSH3 0x323 JUMPI PUSH3 0x323 PUSH3 0x6A0 JUMP JUMPDEST PUSH3 0x338 PUSH1 0x1F DUP3 ADD PUSH1 0x1F NOT AND PUSH1 0x20 ADD PUSH3 0x64C JUMP JUMPDEST DUP2 DUP2 MSTORE DUP5 PUSH1 0x20 DUP4 DUP7 ADD ADD GT ISZERO PUSH3 0x34D JUMPI DUP3 DUP4 REVERT JUMPDEST DUP2 PUSH1 0x20 DUP6 ADD PUSH1 0x20 DUP4 ADD CALLDATACOPY SWAP1 DUP2 ADD PUSH1 0x20 ADD SWAP2 SWAP1 SWAP2 MSTORE SWAP3 SWAP2 POP POP JUMP JUMPDEST DUP1 CALLDATALOAD PUSH1 0xFF DUP2 AND DUP2 EQ PUSH3 0x2F0 JUMPI PUSH1 0x0 DUP1 REVERT JUMPDEST PUSH1 0x0 DUP1 PUSH1 0x0 DUP1 PUSH1 0x0 DUP1 PUSH1 0x0 DUP1 PUSH1 0x0 DUP1 PUSH1 0x0 DUP1 PUSH2 0x180 DUP14 DUP16 SUB SLT ISZERO PUSH3 0x39C JUMPI DUP8 DUP9 REVERT JUMPDEST PUSH8 0xFFFFFFFFFFFFFFFF DUP14 CALLDATALOAD GT ISZERO PUSH3 0x3B2 JUMPI DUP8 DUP9 REVERT JUMPDEST PUSH3 0x3C1 DUP15 DUP15 CALLDATALOAD DUP16 ADD PUSH3 0x2F5 JUMP JUMPDEST SWAP12 POP PUSH8 0xFFFFFFFFFFFFFFFF PUSH1 0x20 DUP15 ADD CALLDATALOAD GT ISZERO PUSH3 0x3DC JUMPI DUP8 DUP9 REVERT JUMPDEST PUSH3 0x3EE DUP15 PUSH1 0x20 DUP16 ADD CALLDATALOAD DUP16 ADD PUSH3 0x2F5 JUMP JUMPDEST SWAP11 POP PUSH3 0x3FE PUSH1 0x40 DUP15 ADD PUSH3 0x2DF JUMP JUMPDEST SWAP10 POP PUSH8 0xFFFFFFFFFFFFFFFF PUSH1 0x60 DUP15 ADD CALLDATALOAD GT ISZERO PUSH3 0x419 JUMPI DUP8 DUP9 REVERT JUMPDEST PUSH3 0x42B DUP15 PUSH1 0x60 DUP16 ADD CALLDATALOAD DUP16 ADD PUSH3 0x1F5 JUMP JUMPDEST SWAP9 POP PUSH8 0xFFFFFFFFFFFFFFFF PUSH1 0x80 DUP15 ADD CALLDATALOAD GT ISZERO PUSH3 0x446 JUMPI DUP8 DUP9 REVERT JUMPDEST PUSH3 0x458 DUP15 PUSH1 0x80 DUP16 ADD CALLDATALOAD DUP16 ADD PUSH3 0x27E JUMP JUMPDEST SWAP8 POP PUSH1 0xA0 DUP14 ADD CALLDATALOAD SWAP7 POP PUSH1 0xC0 DUP14 ADD CALLDATALOAD SWAP6 POP PUSH1 0xE0 DUP14 ADD CALLDATALOAD SWAP5 POP PUSH3 0x47E PUSH2 0x100 DUP15 ADD PUSH3 0x367 JUMP JUMPDEST SWAP4 POP PUSH3 0x48F PUSH2 0x120 DUP15 ADD PUSH3 0x367 JUMP JUMPDEST SWAP3 POP PUSH3 0x4A0 PUSH2 0x140 DUP15 ADD PUSH3 0x367 JUMP JUMPDEST SWAP2 POP PUSH3 0x4B1 PUSH2 0x160 DUP15 ADD PUSH3 0x367 JUMP JUMPDEST SWAP1 POP SWAP3 SWAP6 SWAP9 SWAP12 POP SWAP3 SWAP6 SWAP9 SWAP12 POP SWAP3 SWAP6 SWAP9 SWAP12 JUMP JUMPDEST PUSH1 0x0 PUSH1 0x20 DUP3 DUP5 SUB SLT ISZERO PUSH3 0x4D5 JUMPI DUP1 DUP2 REVERT JUMPDEST POP CALLDATALOAD SWAP2 SWAP1 POP JUMP JUMPDEST PUSH1 0x0 DUP2 MLOAD DUP1 DUP5 MSTORE PUSH1 0x20 DUP1 DUP6 ADD SWAP5 POP DUP1 DUP5 ADD DUP4 JUMPDEST DUP4 DUP2 LT ISZERO PUSH3 0x50D JUMPI DUP2 MLOAD DUP8 MSTORE SWAP6 DUP3 ADD SWAP6 SWAP1 DUP3 ADD SWAP1 PUSH1 0x1 ADD PUSH3 0x4EF JUMP JUMPDEST POP SWAP5 SWAP6 SWAP5 POP POP POP POP POP JUMP JUMPDEST PUSH1 0x0 DUP2 MLOAD DUP1 DUP5 MSTORE DUP2 JUMPDEST DUP2 DUP2 LT ISZERO PUSH3 0x53F JUMPI PUSH1 0x20 DUP2 DUP6 ADD DUP2 ADD MLOAD DUP7 DUP4 ADD DUP3 ADD MSTORE ADD PUSH3 0x521 JUMP JUMPDEST DUP2 DUP2 GT ISZERO PUSH3 0x551 JUMPI DUP3 PUSH1 0x20 DUP4 DUP8 ADD ADD MSTORE JUMPDEST POP PUSH1 0x1F ADD PUSH1 0x1F NOT AND SWAP3 SWAP1 SWAP3 ADD PUSH1 0x20 ADD SWAP3 SWAP2 POP POP JUMP JUMPDEST PUSH1 0x1 PUSH1 0x1 PUSH1 0xA0 SHL SUB SWAP2 SWAP1 SWAP2 AND DUP2 MSTORE PUSH1 0x20 ADD SWAP1 JUMP JUMPDEST PUSH1 0x0 PUSH2 0x100 DUP1 DUP4 MSTORE PUSH3 0x590 DUP2 DUP5 ADD DUP13 PUSH3 0x518 JUMP JUMPDEST SWAP1 POP PUSH1 0x20 DUP4 DUP3 SUB DUP2 DUP6 ADD MSTORE PUSH3 0x5A7 DUP3 DUP13 PUSH3 0x518 JUMP JUMPDEST DUP11 ISZERO ISZERO PUSH1 0x40 DUP7 ADD MSTORE DUP5 DUP2 SUB PUSH1 0x60 DUP7 ADD MSTORE DUP10 MLOAD DUP1 DUP3 MSTORE DUP3 DUP12 ADD SWAP4 POP SWAP1 DUP3 ADD SWAP1 DUP5 JUMPDEST DUP2 DUP2 LT ISZERO PUSH3 0x5EE JUMPI DUP5 MLOAD PUSH1 0x1 PUSH1 0x1 PUSH1 0xA0 SHL SUB AND DUP4 MSTORE SWAP4 DUP4 ADD SWAP4 SWAP2 DUP4 ADD SWAP2 PUSH1 0x1 ADD PUSH3 0x5C7 JUMP JUMPDEST POP POP DUP5 DUP2 SUB PUSH1 0x80 DUP7 ADD MSTORE PUSH3 0x604 DUP2 DUP11 PUSH3 0x4DC JUMP JUMPDEST PUSH1 0xA0 DUP7 ADD SWAP9 SWAP1 SWAP9 MSTORE POP POP POP POP PUSH1 0xC0 DUP2 ADD SWAP3 SWAP1 SWAP3 MSTORE PUSH1 0xE0 SWAP1 SWAP2 ADD MSTORE SWAP6 SWAP5 POP POP POP POP POP JUMP JUMPDEST PUSH1 0xFF SWAP5 DUP6 AND DUP2 MSTORE SWAP3 DUP5 AND PUSH1 0x20 DUP5 ADD MSTORE SWAP1 DUP4 AND PUSH1 0x40 DUP4 ADD MSTORE SWAP1 SWAP2 AND PUSH1 0x60 DUP3 ADD MSTORE PUSH1 0x80 ADD SWAP1 JUMP JUMPDEST PUSH1 0x40 MLOAD DUP2 DUP2 ADD PUSH8 0xFFFFFFFFFFFFFFFF DUP2 GT DUP3 DUP3 LT OR ISZERO PUSH3 0x671 JUMPI PUSH3 0x671 PUSH3 0x6A0 JUMP JUMPDEST PUSH1 0x40 MSTORE SWAP2 SWAP1 POP JUMP JUMPDEST PUSH1 0x0 PUSH8 0xFFFFFFFFFFFFFFFF DUP3 GT ISZERO PUSH3 0x696 JUMPI PUSH3 0x696 PUSH3 0x6A0 JUMP JUMPDEST POP PUSH1 0x20 SWAP1 DUP2 MUL ADD SWAP1 JUMP JUMPDEST PUSH4 0x4E487B71 PUSH1 0xE0 SHL PUSH1 0x0 MSTORE PUSH1 0x41 PUSH1 0x4 MSTORE PUSH1 0x24 PUSH1 0x0 REVERT INVALID PUSH2 0x100 PUSH1 0x40 MSTORE CALLVALUE DUP1 ISZERO PUSH3 0x12 JUMPI PUSH1 0x0 DUP1 REVERT JUMPDEST POP PUSH1 0x40 MLOAD PUSH3 0x374A CODESIZE SUB DUP1 PUSH3 0x374A DUP4 CODECOPY DUP2 ADD PUSH1 0x40 DUP2 SWAP1 MSTORE PUSH3 0x35 SWAP2 PUSH3 0x915 JUMP JUMPDEST DUP8 DUP8 DUP8 DUP8 DUP8 DUP1 MLOAD DUP3 MLOAD EQ PUSH3 0x67 JUMPI PUSH1 0x40 MLOAD PUSH3 0x461BCD PUSH1 0xE5 SHL DUP2 MSTORE PUSH1 0x4 ADD PUSH3 0x5E SWAP1 PUSH3 0xB19 JUMP JUMPDEST PUSH1 0x40 MLOAD DUP1 SWAP2 SUB SWAP1 REVERT JUMPDEST DUP5 MLOAD PUSH3 0x7C SWAP1 PUSH1 0x0 SWAP1 PUSH1 0x20 DUP9 ADD SWAP1 PUSH3 0x6E8 JUMP JUMPDEST POP DUP4 MLOAD PUSH3 0x92 SWAP1 PUSH1 0x1 SWAP1 PUSH1 0x20 DUP8 ADD SWAP1 PUSH3 0x6E8 JUMP JUMPDEST POP PUSH1 0x5 DUP1 SLOAD PUSH1 0xFF NOT AND DUP5 ISZERO ISZERO OR SWAP1 SSTORE CHAINID PUSH1 0x80 MSTORE PUSH3 0xAF PUSH3 0x1F2 JUMP JUMPDEST PUSH1 0xA0 MSTORE PUSH1 0x0 JUMPDEST DUP3 MLOAD DUP2 LT ISZERO PUSH3 0x18C JUMPI PUSH3 0x121 DUP4 DUP3 DUP2 MLOAD DUP2 LT PUSH3 0xE4 JUMPI PUSH4 0x4E487B71 PUSH1 0xE0 SHL PUSH1 0x0 MSTORE PUSH1 0x32 PUSH1 0x4 MSTORE PUSH1 0x24 PUSH1 0x0 REVERT JUMPDEST PUSH1 0x20 MUL PUSH1 0x20 ADD ADD MLOAD DUP4 DUP4 DUP2 MLOAD DUP2 LT PUSH3 0x10D JUMPI PUSH4 0x4E487B71 PUSH1 0xE0 SHL PUSH1 0x0 MSTORE PUSH1 0x32 PUSH1 0x4 MSTORE PUSH1 0x24 PUSH1 0x0 REVERT JUMPDEST PUSH1 0x20 MUL PUSH1 0x20 ADD ADD MLOAD PUSH3 0x294 PUSH1 0x20 SHL PUSH1 0x20 SHR JUMP JUMPDEST PUSH3 0x183 DUP4 DUP3 DUP2 MLOAD DUP2 LT PUSH3 0x146 JUMPI PUSH4 0x4E487B71 PUSH1 0xE0 SHL PUSH1 0x0 MSTORE PUSH1 0x32 PUSH1 0x4 MSTORE PUSH1 0x24 PUSH1 0x0 REVERT JUMPDEST PUSH1 0x20 MUL PUSH1 0x20 ADD ADD MLOAD DUP5 DUP4 DUP2 MLOAD DUP2 LT PUSH3 0x16F JUMPI PUSH4 0x4E487B71 PUSH1 0xE0 SHL PUSH1 0x0 MSTORE PUSH1 0x32 PUSH1 0x4 MSTORE PUSH1 0x24 PUSH1 0x0 REVERT JUMPDEST PUSH1 0x20 MUL PUSH1 0x20 ADD ADD MLOAD PUSH3 0x308 PUSH1 0x20 SHL PUSH1 0x20 SHR JUMP JUMPDEST PUSH1 0x1 ADD PUSH3 0xB5 JUMP JUMPDEST POP POP POP POP POP POP PUSH1 0x64 DUP3 GT ISZERO PUSH3 0x1B6 JUMPI PUSH1 0x40 MLOAD PUSH3 0x461BCD PUSH1 0xE5 SHL DUP2 MSTORE PUSH1 0x4 ADD PUSH3 0x5E SWAP1 PUSH3 0xAF5 JUMP JUMPDEST PUSH1 0x64 DUP2 GT ISZERO PUSH3 0x1DA JUMPI PUSH1 0x40 MLOAD PUSH3 0x461BCD PUSH1 0xE5 SHL DUP2 MSTORE PUSH1 0x4 ADD PUSH3 0x5E SWAP1 PUSH3 0xACA JUMP JUMPDEST PUSH1 0xB SWAP3 SWAP1 SWAP3 SSTORE PUSH1 0xC0 MSTORE PUSH1 0xE0 MSTORE POP PUSH3 0xC55 SWAP4 POP POP POP POP JUMP JUMPDEST PUSH1 0x0 PUSH32 0x8B73C3C69BB8FE3D512ECC4CF759CC79239F7B179B0FFACAA9A75D522B39400F PUSH1 0x0 PUSH1 0x40 MLOAD PUSH3 0x226 SWAP2 SWAP1 PUSH3 0x9F9 JUMP JUMPDEST PUSH1 0x40 DUP1 MLOAD SWAP2 DUP3 SWAP1 SUB DUP3 KECCAK256 DUP3 DUP3 ADD DUP3 MSTORE PUSH1 0x1 DUP4 MSTORE PUSH1 0x31 PUSH1 0xF8 SHL PUSH1 0x20 SWAP4 DUP5 ADD MSTORE SWAP1 MLOAD PUSH3 0x279 SWAP4 SWAP3 PUSH32 0xC89EFDAA54C0F20C7ADF612882DF0950F5A951637E0307CDCB4C672F298B8BC6 SWAP2 CHAINID SWAP2 ADDRESS SWAP2 ADD PUSH3 0xA9E JUMP JUMPDEST PUSH1 0x40 MLOAD PUSH1 0x20 DUP2 DUP4 SUB SUB DUP2 MSTORE SWAP1 PUSH1 0x40 MSTORE DUP1 MLOAD SWAP1 PUSH1 0x20 ADD KECCAK256 SWAP1 POP SWAP1 JUMP JUMPDEST DUP1 PUSH1 0x2 PUSH1 0x0 DUP3 DUP3 SLOAD PUSH3 0x2A8 SWAP2 SWAP1 PUSH3 0xBB7 JUMP JUMPDEST SWAP1 SWAP2 SSTORE POP POP PUSH1 0x1 PUSH1 0x1 PUSH1 0xA0 SHL SUB DUP3 AND PUSH1 0x0 DUP2 DUP2 MSTORE PUSH1 0x3 PUSH1 0x20 MSTORE PUSH1 0x40 DUP1 DUP3 KECCAK256 DUP1 SLOAD DUP6 ADD SWAP1 SSTORE MLOAD PUSH32 0xDDF252AD1BE2C89B69C2B068FC378DAA952BA7F163C4A11628F55A4DF523B3EF SWAP1 PUSH3 0x2FC SWAP1 DUP6 SWAP1 PUSH3 0xB42 JUMP JUMPDEST PUSH1 0x40 MLOAD DUP1 SWAP2 SUB SWAP1 LOG3 POP POP JUMP JUMPDEST PUSH1 0x1 PUSH1 0x1 PUSH1 0xA0 SHL SUB DUP1 DUP4 AND PUSH1 0x0 SWAP1 DUP2 MSTORE PUSH1 0x6 PUSH1 0x20 SWAP1 DUP2 MSTORE PUSH1 0x40 DUP1 DUP4 KECCAK256 DUP1 SLOAD DUP7 DUP7 AND PUSH1 0x1 PUSH1 0x1 PUSH1 0xA0 SHL SUB NOT DUP3 AND OR SWAP1 SWAP2 SSTORE PUSH1 0x3 SWAP1 SWAP3 MSTORE SWAP1 SWAP2 KECCAK256 SLOAD SWAP2 AND SWAP1 PUSH3 0x353 SWAP1 DUP3 SWAP1 DUP5 SWAP1 PUSH3 0x3A2 JUMP JUMPDEST DUP2 PUSH1 0x1 PUSH1 0x1 PUSH1 0xA0 SHL SUB AND DUP2 PUSH1 0x1 PUSH1 0x1 PUSH1 0xA0 SHL SUB AND DUP5 PUSH1 0x1 PUSH1 0x1 PUSH1 0xA0 SHL SUB AND PUSH32 0x3134E8A2E6D97E929A7E54011EA5485D7D196DD5F0BA4D4EF95803E8E3FC257F PUSH1 0x40 MLOAD PUSH1 0x40 MLOAD DUP1 SWAP2 SUB SWAP1 LOG4 POP POP POP JUMP JUMPDEST DUP2 PUSH1 0x1 PUSH1 0x1 PUSH1 0xA0 SHL SUB AND DUP4 PUSH1 0x1 PUSH1 0x1 PUSH1 0xA0 SHL SUB AND EQ ISZERO DUP1 ISZERO PUSH3 0x3C5 JUMPI POP PUSH1 0x0 DUP2 GT JUMPDEST ISZERO PUSH3 0x527 JUMPI PUSH1 0x1 PUSH1 0x1 PUSH1 0xA0 SHL SUB DUP4 AND ISZERO PUSH3 0x479 JUMPI PUSH1 0x1 PUSH1 0x1 PUSH1 0xA0 SHL SUB DUP4 AND PUSH1 0x0 SWAP1 DUP2 MSTORE PUSH1 0x8 PUSH1 0x20 MSTORE PUSH1 0x40 DUP2 KECCAK256 SLOAD SWAP1 DUP2 PUSH3 0x403 JUMPI PUSH1 0x0 PUSH3 0x44C JUMP JUMPDEST PUSH1 0x1 PUSH1 0x1 PUSH1 0xA0 SHL SUB DUP6 AND PUSH1 0x0 SWAP1 DUP2 MSTORE PUSH1 0x7 PUSH1 0x20 MSTORE PUSH1 0x40 DUP2 KECCAK256 SWAP1 PUSH3 0x429 PUSH1 0x1 DUP6 PUSH3 0xBD2 JUMP JUMPDEST DUP2 MSTORE PUSH1 0x20 DUP2 ADD SWAP2 SWAP1 SWAP2 MSTORE PUSH1 0x40 ADD PUSH1 0x0 KECCAK256 SLOAD PUSH5 0x100000000 SWAP1 DIV PUSH1 0x1 PUSH1 0x1 PUSH1 0xE0 SHL SUB AND JUMPDEST PUSH1 0x1 PUSH1 0x1 PUSH1 0xE0 SHL SUB AND SWAP1 POP PUSH1 0x0 PUSH3 0x465 DUP5 DUP4 PUSH3 0xBD2 JUMP JUMPDEST SWAP1 POP PUSH3 0x475 DUP7 DUP5 DUP5 DUP5 PUSH3 0x52C JUMP JUMPDEST POP POP POP JUMPDEST PUSH1 0x1 PUSH1 0x1 PUSH1 0xA0 SHL SUB DUP3 AND ISZERO PUSH3 0x527 JUMPI PUSH1 0x1 PUSH1 0x1 PUSH1 0xA0 SHL SUB DUP3 AND PUSH1 0x0 SWAP1 DUP2 MSTORE PUSH1 0x8 PUSH1 0x20 MSTORE PUSH1 0x40 DUP2 KECCAK256 SLOAD SWAP1 DUP2 PUSH3 0x4B1 JUMPI PUSH1 0x0 PUSH3 0x4FA JUMP JUMPDEST PUSH1 0x1 PUSH1 0x1 PUSH1 0xA0 SHL SUB DUP5 AND PUSH1 0x0 SWAP1 DUP2 MSTORE PUSH1 0x7 PUSH1 0x20 MSTORE PUSH1 0x40 DUP2 KECCAK256 SWAP1 PUSH3 0x4D7 PUSH1 0x1 DUP6 PUSH3 0xBD2 JUMP JUMPDEST DUP2 MSTORE PUSH1 0x20 DUP2 ADD SWAP2 SWAP1 SWAP2 MSTORE PUSH1 0x40 ADD PUSH1 0x0 KECCAK256 SLOAD PUSH5 0x100000000 SWAP1 DIV PUSH1 0x1 PUSH1 0x1 PUSH1 0xE0 SHL SUB AND JUMPDEST PUSH1 0x1 PUSH1 0x1 PUSH1 0xE0 SHL SUB AND SWAP1 POP PUSH1 0x0 PUSH3 0x513 DUP5 DUP4 PUSH3 0xBB7 JUMP JUMPDEST SWAP1 POP PUSH3 0x523 DUP6 DUP5 DUP5 DUP5 PUSH3 0x52C JUMP JUMPDEST POP POP POP JUMPDEST POP POP POP JUMP JUMPDEST PUSH1 0x0 DUP4 GT DUP1 ISZERO PUSH3 0x569 JUMPI POP PUSH1 0x1 PUSH1 0x1 PUSH1 0xA0 SHL SUB DUP5 AND PUSH1 0x0 SWAP1 DUP2 MSTORE PUSH1 0x7 PUSH1 0x20 SWAP1 DUP2 MSTORE PUSH1 0x40 DUP1 DUP4 KECCAK256 PUSH1 0x0 NOT DUP8 ADD DUP5 MSTORE SWAP1 SWAP2 MSTORE SWAP1 KECCAK256 SLOAD PUSH4 0xFFFFFFFF AND TIMESTAMP EQ JUMPDEST ISZERO PUSH3 0x5CA JUMPI PUSH3 0x57A DUP2 PUSH3 0x6B9 JUMP JUMPDEST PUSH1 0x1 PUSH1 0x1 PUSH1 0xA0 SHL SUB DUP6 AND PUSH1 0x0 SWAP1 DUP2 MSTORE PUSH1 0x7 PUSH1 0x20 SWAP1 DUP2 MSTORE PUSH1 0x40 DUP1 DUP4 KECCAK256 PUSH1 0x0 NOT DUP9 ADD DUP5 MSTORE SWAP1 SWAP2 MSTORE SWAP1 KECCAK256 DUP1 SLOAD PUSH1 0x1 PUSH1 0x1 PUSH1 0xE0 SHL SUB SWAP3 SWAP1 SWAP3 AND PUSH5 0x100000000 MUL PUSH4 0xFFFFFFFF SWAP1 SWAP3 AND SWAP2 SWAP1 SWAP2 OR SWAP1 SSTORE PUSH3 0x66E JUMP JUMPDEST PUSH1 0x40 MLOAD DUP1 PUSH1 0x40 ADD PUSH1 0x40 MSTORE DUP1 PUSH3 0x5E6 TIMESTAMP PUSH3 0x6D4 PUSH1 0x20 SHL PUSH1 0x20 SHR JUMP JUMPDEST PUSH4 0xFFFFFFFF AND DUP2 MSTORE PUSH1 0x20 ADD PUSH3 0x5FC DUP4 PUSH3 0x6B9 JUMP JUMPDEST PUSH1 0x1 PUSH1 0x1 PUSH1 0xE0 SHL SUB SWAP1 DUP2 AND SWAP1 SWAP2 MSTORE PUSH1 0x1 PUSH1 0x1 PUSH1 0xA0 SHL SUB DUP7 AND PUSH1 0x0 DUP2 DUP2 MSTORE PUSH1 0x7 PUSH1 0x20 SWAP1 DUP2 MSTORE PUSH1 0x40 DUP1 DUP4 KECCAK256 DUP10 DUP5 MSTORE DUP3 MSTORE DUP1 DUP4 KECCAK256 DUP7 MLOAD DUP2 SLOAD SWAP8 DUP5 ADD MLOAD SWAP1 SWAP7 AND PUSH5 0x100000000 MUL PUSH4 0xFFFFFFFF SWAP7 DUP8 AND PUSH4 0xFFFFFFFF NOT SWAP1 SWAP9 AND SWAP8 SWAP1 SWAP8 OR SWAP1 SWAP6 AND SWAP6 SWAP1 SWAP6 OR SWAP1 SWAP4 SSTORE SWAP1 DUP2 MSTORE PUSH1 0x8 SWAP1 SWAP2 MSTORE KECCAK256 PUSH1 0x1 DUP5 ADD SWAP1 SSTORE JUMPDEST DUP4 PUSH1 0x1 PUSH1 0x1 PUSH1 0xA0 SHL SUB AND PUSH32 0xDEC2BACDD2F05B59DE34DA9B523DFF8BE42E5E38E818C82FDB0BAE774387A724 DUP4 DUP4 PUSH1 0x40 MLOAD PUSH3 0x6AB SWAP3 SWAP2 SWAP1 PUSH3 0xB4B JUMP JUMPDEST PUSH1 0x40 MLOAD DUP1 SWAP2 SUB SWAP1 LOG2 POP POP POP POP JUMP JUMPDEST PUSH1 0x0 PUSH1 0x1 PUSH1 0x1 PUSH1 0xE0 SHL SUB DUP3 GT ISZERO PUSH3 0x6D0 JUMPI PUSH1 0x0 DUP1 REVERT JUMPDEST POP SWAP1 JUMP JUMPDEST PUSH1 0x0 PUSH4 0xFFFFFFFF DUP3 GT ISZERO PUSH3 0x6D0 JUMPI PUSH1 0x0 DUP1 REVERT JUMPDEST DUP3 DUP1 SLOAD PUSH3 0x6F6 SWAP1 PUSH3 0xBEC JUMP JUMPDEST SWAP1 PUSH1 0x0 MSTORE PUSH1 0x20 PUSH1 0x0 KECCAK256 SWAP1 PUSH1 0x1F ADD PUSH1 0x20 SWAP1 DIV DUP2 ADD SWAP3 DUP3 PUSH3 0x71A JUMPI PUSH1 0x0 DUP6 SSTORE PUSH3 0x765 JUMP JUMPDEST DUP3 PUSH1 0x1F LT PUSH3 0x735 JUMPI DUP1 MLOAD PUSH1 0xFF NOT AND DUP4 DUP1 ADD OR DUP6 SSTORE PUSH3 0x765 JUMP JUMPDEST DUP3 DUP1 ADD PUSH1 0x1 ADD DUP6 SSTORE DUP3 ISZERO PUSH3 0x765 JUMPI SWAP2 DUP3 ADD JUMPDEST DUP3 DUP2 GT ISZERO PUSH3 0x765 JUMPI DUP3 MLOAD DUP3 SSTORE SWAP2 PUSH1 0x20 ADD SWAP2 SWAP1 PUSH1 0x1 ADD SWAP1 PUSH3 0x748 JUMP JUMPDEST POP PUSH3 0x6D0 SWAP3 SWAP2 POP JUMPDEST DUP1 DUP3 GT ISZERO PUSH3 0x6D0 JUMPI PUSH1 0x0 DUP2 SSTORE PUSH1 0x1 ADD PUSH3 0x76E JUMP JUMPDEST PUSH1 0x0 DUP3 PUSH1 0x1F DUP4 ADD SLT PUSH3 0x795 JUMPI DUP1 DUP2 REVERT JUMPDEST DUP2 MLOAD PUSH1 0x20 PUSH3 0x7AE PUSH3 0x7A8 DUP4 PUSH3 0xB85 JUMP JUMPDEST PUSH3 0xB59 JUMP JUMPDEST DUP3 DUP2 MSTORE DUP2 DUP2 ADD SWAP1 DUP6 DUP4 ADD DUP4 DUP6 MUL DUP8 ADD DUP5 ADD DUP9 LT ISZERO PUSH3 0x7CB JUMPI DUP6 DUP7 REVERT JUMPDEST DUP6 JUMPDEST DUP6 DUP2 LT ISZERO PUSH3 0x800 JUMPI DUP2 MLOAD PUSH1 0x1 PUSH1 0x1 PUSH1 0xA0 SHL SUB DUP2 AND DUP2 EQ PUSH3 0x7ED JUMPI DUP8 DUP9 REVERT JUMPDEST DUP5 MSTORE SWAP3 DUP5 ADD SWAP3 SWAP1 DUP5 ADD SWAP1 PUSH1 0x1 ADD PUSH3 0x7CD JUMP JUMPDEST POP SWAP1 SWAP8 SWAP7 POP POP POP POP POP POP POP JUMP JUMPDEST PUSH1 0x0 DUP3 PUSH1 0x1F DUP4 ADD SLT PUSH3 0x81E JUMPI DUP1 DUP2 REVERT JUMPDEST DUP2 MLOAD PUSH1 0x20 PUSH3 0x831 PUSH3 0x7A8 DUP4 PUSH3 0xB85 JUMP JUMPDEST DUP3 DUP2 MSTORE DUP2 DUP2 ADD SWAP1 DUP6 DUP4 ADD DUP4 DUP6 MUL DUP8 ADD DUP5 ADD DUP9 LT ISZERO PUSH3 0x84E JUMPI DUP6 DUP7 REVERT JUMPDEST DUP6 JUMPDEST DUP6 DUP2 LT ISZERO PUSH3 0x800 JUMPI DUP2 MLOAD DUP5 MSTORE SWAP3 DUP5 ADD SWAP3 SWAP1 DUP5 ADD SWAP1 PUSH1 0x1 ADD PUSH3 0x850 JUMP JUMPDEST DUP1 MLOAD DUP1 ISZERO ISZERO DUP2 EQ PUSH3 0x87F JUMPI PUSH1 0x0 DUP1 REVERT JUMPDEST SWAP2 SWAP1 POP JUMP JUMPDEST PUSH1 0x0 DUP3 PUSH1 0x1F DUP4 ADD SLT PUSH3 0x895 JUMPI DUP1 DUP2 REVERT JUMPDEST DUP2 MLOAD PUSH1 0x1 PUSH1 0x1 PUSH1 0x40 SHL SUB DUP2 GT ISZERO PUSH3 0x8B1 JUMPI PUSH3 0x8B1 PUSH3 0xC3F JUMP JUMPDEST PUSH1 0x20 PUSH3 0x8C7 PUSH1 0x1F DUP4 ADD PUSH1 0x1F NOT AND DUP3 ADD PUSH3 0xB59 JUMP JUMPDEST DUP3 DUP2 MSTORE DUP6 DUP3 DUP5 DUP8 ADD ADD GT ISZERO PUSH3 0x8DB JUMPI DUP4 DUP5 REVERT JUMPDEST DUP4 JUMPDEST DUP4 DUP2 LT ISZERO PUSH3 0x8FA JUMPI DUP6 DUP2 ADD DUP4 ADD MLOAD DUP3 DUP3 ADD DUP5 ADD MSTORE DUP3 ADD PUSH3 0x8DD JUMP JUMPDEST DUP4 DUP2 GT ISZERO PUSH3 0x90B JUMPI DUP5 DUP4 DUP6 DUP5 ADD ADD MSTORE JUMPDEST POP SWAP6 SWAP5 POP POP POP POP POP JUMP JUMPDEST PUSH1 0x0 DUP1 PUSH1 0x0 DUP1 PUSH1 0x0 DUP1 PUSH1 0x0 DUP1 PUSH2 0x100 DUP10 DUP12 SUB SLT ISZERO PUSH3 0x932 JUMPI DUP4 DUP5 REVERT JUMPDEST DUP9 MLOAD PUSH1 0x1 PUSH1 0x1 PUSH1 0x40 SHL SUB DUP1 DUP3 GT ISZERO PUSH3 0x949 JUMPI DUP6 DUP7 REVERT JUMPDEST PUSH3 0x957 DUP13 DUP4 DUP14 ADD PUSH3 0x884 JUMP JUMPDEST SWAP10 POP PUSH1 0x20 DUP12 ADD MLOAD SWAP2 POP DUP1 DUP3 GT ISZERO PUSH3 0x96D JUMPI DUP6 DUP7 REVERT JUMPDEST PUSH3 0x97B DUP13 DUP4 DUP14 ADD PUSH3 0x884 JUMP JUMPDEST SWAP9 POP PUSH3 0x98B PUSH1 0x40 DUP13 ADD PUSH3 0x86E JUMP JUMPDEST SWAP8 POP PUSH1 0x60 DUP12 ADD MLOAD SWAP2 POP DUP1 DUP3 GT ISZERO PUSH3 0x9A1 JUMPI DUP6 DUP7 REVERT JUMPDEST PUSH3 0x9AF DUP13 DUP4 DUP14 ADD PUSH3 0x784 JUMP JUMPDEST SWAP7 POP PUSH1 0x80 DUP12 ADD MLOAD SWAP2 POP DUP1 DUP3 GT ISZERO PUSH3 0x9C5 JUMPI DUP6 DUP7 REVERT JUMPDEST POP PUSH3 0x9D4 DUP12 DUP3 DUP13 ADD PUSH3 0x80D JUMP JUMPDEST SWAP5 POP POP PUSH1 0xA0 DUP10 ADD MLOAD SWAP3 POP PUSH1 0xC0 DUP10 ADD MLOAD SWAP2 POP PUSH1 0xE0 DUP10 ADD MLOAD SWAP1 POP SWAP3 SWAP6 SWAP9 POP SWAP3 SWAP6 SWAP9 SWAP1 SWAP4 SWAP7 POP JUMP JUMPDEST DUP2 SLOAD PUSH1 0x0 SWAP1 DUP2 SWAP1 PUSH1 0x2 DUP2 DIV PUSH1 0x1 DUP1 DUP4 AND DUP1 PUSH3 0xA16 JUMPI PUSH1 0x7F DUP4 AND SWAP3 POP JUMPDEST PUSH1 0x20 DUP1 DUP5 LT DUP3 EQ ISZERO PUSH3 0xA37 JUMPI PUSH4 0x4E487B71 PUSH1 0xE0 SHL DUP8 MSTORE PUSH1 0x22 PUSH1 0x4 MSTORE PUSH1 0x24 DUP8 REVERT JUMPDEST DUP2 DUP1 ISZERO PUSH3 0xA4E JUMPI PUSH1 0x1 DUP2 EQ PUSH3 0xA60 JUMPI PUSH3 0xA90 JUMP JUMPDEST PUSH1 0xFF NOT DUP7 AND DUP10 MSTORE DUP5 DUP10 ADD SWAP7 POP PUSH3 0xA90 JUMP JUMPDEST PUSH3 0xA6B DUP11 PUSH3 0xBAB JUMP JUMPDEST DUP9 JUMPDEST DUP7 DUP2 LT ISZERO PUSH3 0xA88 JUMPI DUP2 SLOAD DUP12 DUP3 ADD MSTORE SWAP1 DUP6 ADD SWAP1 DUP4 ADD PUSH3 0xA6D JUMP JUMPDEST POP POP DUP5 DUP10 ADD SWAP7 POP JUMPDEST POP SWAP5 SWAP9 SWAP8 POP POP POP POP POP POP POP POP JUMP JUMPDEST SWAP5 DUP6 MSTORE PUSH1 0x20 DUP6 ADD SWAP4 SWAP1 SWAP4 MSTORE PUSH1 0x40 DUP5 ADD SWAP2 SWAP1 SWAP2 MSTORE PUSH1 0x60 DUP4 ADD MSTORE PUSH1 0x1 PUSH1 0x1 PUSH1 0xA0 SHL SUB AND PUSH1 0x80 DUP3 ADD MSTORE PUSH1 0xA0 ADD SWAP1 JUMP JUMPDEST PUSH1 0x20 DUP1 DUP3 MSTORE PUSH1 0x11 SWAP1 DUP3 ADD MSTORE PUSH17 0xA6AAA08AA49A82949EA492A8B2BE9A82B PUSH1 0x7B SHL PUSH1 0x40 DUP3 ADD MSTORE PUSH1 0x60 ADD SWAP1 JUMP JUMPDEST PUSH1 0x20 DUP1 DUP3 MSTORE PUSH1 0xA SWAP1 DUP3 ADD MSTORE PUSH10 0xA2AA9EA4AA9ABE9A82B PUSH1 0xB3 SHL PUSH1 0x40 DUP3 ADD MSTORE PUSH1 0x60 ADD SWAP1 JUMP JUMPDEST PUSH1 0x20 DUP1 DUP3 MSTORE PUSH1 0xF SWAP1 DUP3 ADD MSTORE PUSH15 0x4E4F5F41525241595F504152495459 PUSH1 0x88 SHL PUSH1 0x40 DUP3 ADD MSTORE PUSH1 0x60 ADD SWAP1 JUMP JUMPDEST SWAP1 DUP2 MSTORE PUSH1 0x20 ADD SWAP1 JUMP JUMPDEST SWAP2 DUP3 MSTORE PUSH1 0x20 DUP3 ADD MSTORE PUSH1 0x40 ADD SWAP1 JUMP JUMPDEST PUSH1 0x40 MLOAD DUP2 DUP2 ADD PUSH1 0x1 PUSH1 0x1 PUSH1 0x40 SHL SUB DUP2 GT DUP3 DUP3 LT OR ISZERO PUSH3 0xB7D JUMPI PUSH3 0xB7D PUSH3 0xC3F JUMP JUMPDEST PUSH1 0x40 MSTORE SWAP2 SWAP1 POP JUMP JUMPDEST PUSH1 0x0 PUSH1 0x1 PUSH1 0x1 PUSH1 0x40 SHL SUB DUP3 GT ISZERO PUSH3 0xBA1 JUMPI PUSH3 0xBA1 PUSH3 0xC3F JUMP JUMPDEST POP PUSH1 0x20 SWAP1 DUP2 MUL ADD SWAP1 JUMP JUMPDEST PUSH1 0x0 SWAP1 DUP2 MSTORE PUSH1 0x20 SWAP1 KECCAK256 SWAP1 JUMP JUMPDEST PUSH1 0x0 DUP3 NOT DUP3 GT ISZERO PUSH3 0xBCD JUMPI PUSH3 0xBCD PUSH3 0xC29 JUMP JUMPDEST POP ADD SWAP1 JUMP JUMPDEST PUSH1 0x0 DUP3 DUP3 LT ISZERO PUSH3 0xBE7 JUMPI PUSH3 0xBE7 PUSH3 0xC29 JUMP JUMPDEST POP SUB SWAP1 JUMP JUMPDEST PUSH1 0x2 DUP2 DIV PUSH1 0x1 DUP3 AND DUP1 PUSH3 0xC01 JUMPI PUSH1 0x7F DUP3 AND SWAP2 POP JUMPDEST PUSH1 0x20 DUP3 LT DUP2 EQ ISZERO PUSH3 0xC23 JUMPI PUSH4 0x4E487B71 PUSH1 0xE0 SHL PUSH1 0x0 MSTORE PUSH1 0x22 PUSH1 0x4 MSTORE PUSH1 0x24 PUSH1 0x0 REVERT JUMPDEST POP SWAP2 SWAP1 POP JUMP JUMPDEST PUSH4 0x4E487B71 PUSH1 0xE0 SHL PUSH1 0x0 MSTORE PUSH1 0x11 PUSH1 0x4 MSTORE PUSH1 0x24 PUSH1 0x0 REVERT JUMPDEST PUSH4 0x4E487B71 PUSH1 0xE0 SHL PUSH1 0x0 MSTORE PUSH1 0x41 PUSH1 0x4 MSTORE PUSH1 0x24 PUSH1 0x0 REVERT JUMPDEST PUSH1 0x80 MLOAD PUSH1 0xA0 MLOAD PUSH1 0xC0 MLOAD PUSH1 0xE0 MLOAD PUSH2 0x2AAD PUSH3 0xC9D PUSH1 0x0 CODECOPY PUSH1 0x0 DUP2 DUP2 PUSH2 0x975 ADD MSTORE PUSH2 0x1B5C ADD MSTORE PUSH1 0x0 DUP2 DUP2 PUSH2 0x767 ADD MSTORE PUSH2 0x1A48 ADD MSTORE PUSH1 0x0 PUSH2 0x906 ADD MSTORE PUSH1 0x0 PUSH2 0x8D2 ADD MSTORE PUSH2 0x2AAD PUSH1 0x0 RETURN INVALID PUSH1 0x80 PUSH1 0x40 MSTORE CALLVALUE DUP1 ISZERO PUSH2 0x10 JUMPI PUSH1 0x0 DUP1 REVERT JUMPDEST POP PUSH1 0x4 CALLDATASIZE LT PUSH2 0x211 JUMPI PUSH1 0x0 CALLDATALOAD PUSH1 0xE0 SHR DUP1 PUSH4 0x6FCFFF45 GT PUSH2 0x125 JUMPI DUP1 PUSH4 0xC3CDA520 GT PUSH2 0xAD JUMPI DUP1 PUSH4 0xDA35C664 GT PUSH2 0x7C JUMPI DUP1 PUSH4 0xDA35C664 EQ PUSH2 0x46B JUMPI DUP1 PUSH4 0xDD62ED3E EQ PUSH2 0x473 JUMPI DUP1 PUSH4 0xE63BC62D EQ PUSH2 0x486 JUMPI DUP1 PUSH4 0xE7A324DC EQ PUSH2 0x499 JUMPI DUP1 PUSH4 0xF23A6E61 EQ PUSH2 0x4A1 JUMPI PUSH2 0x211 JUMP JUMPDEST DUP1 PUSH4 0xC3CDA520 EQ PUSH2 0x41F JUMPI DUP1 PUSH4 0xC9D27AFE EQ PUSH2 0x432 JUMPI DUP1 PUSH4 0xCDC80BB8 EQ PUSH2 0x445 JUMPI DUP1 PUSH4 0xD505ACCF EQ PUSH2 0x458 JUMPI PUSH2 0x211 JUMP JUMPDEST DUP1 PUSH4 0x7ECEBE00 GT PUSH2 0xF4 JUMPI DUP1 PUSH4 0x7ECEBE00 EQ PUSH2 0x3CB JUMPI DUP1 PUSH4 0x956CBAB2 EQ PUSH2 0x3DE JUMPI DUP1 PUSH4 0x95D89B41 EQ PUSH2 0x3F1 JUMPI DUP1 PUSH4 0xA9059CBB EQ PUSH2 0x3F9 JUMPI DUP1 PUSH4 0xB4B5EA57 EQ PUSH2 0x40C JUMPI PUSH2 0x211 JUMP JUMPDEST DUP1 PUSH4 0x6FCFFF45 EQ PUSH2 0x372 JUMPI DUP1 PUSH4 0x70A08231 EQ PUSH2 0x385 JUMPI DUP1 PUSH4 0x71CDA63B EQ PUSH2 0x398 JUMPI DUP1 PUSH4 0x782D6FE1 EQ PUSH2 0x3B8 JUMPI PUSH2 0x211 JUMP JUMPDEST DUP1 PUSH4 0x23B872DD GT PUSH2 0x1A8 JUMPI DUP1 PUSH4 0x5277B4AE GT PUSH2 0x177 JUMPI DUP1 PUSH4 0x5277B4AE EQ PUSH2 0x31A JUMPI DUP1 PUSH4 0x587CDE1E EQ PUSH2 0x32D JUMPI DUP1 PUSH4 0x5C19A95C EQ PUSH2 0x34D JUMPI DUP1 PUSH4 0x5C31F220 EQ PUSH2 0x362 JUMPI DUP1 PUSH4 0x5C975ABB EQ PUSH2 0x36A JUMPI PUSH2 0x211 JUMP JUMPDEST DUP1 PUSH4 0x23B872DD EQ PUSH2 0x2E2 JUMPI DUP1 PUSH4 0x30ADF81F EQ PUSH2 0x2F5 JUMPI DUP1 PUSH4 0x313CE567 EQ PUSH2 0x2FD JUMPI DUP1 PUSH4 0x3644E515 EQ PUSH2 0x312 JUMPI PUSH2 0x211 JUMP JUMPDEST DUP1 PUSH4 0xCDFEBFA GT PUSH2 0x1E4 JUMPI DUP1 PUSH4 0xCDFEBFA EQ PUSH2 0x291 JUMPI DUP1 PUSH4 0x150B7A02 EQ PUSH2 0x2B2 JUMPI DUP1 PUSH4 0x1703A018 EQ PUSH2 0x2D2 JUMPI DUP1 PUSH4 0x18160DDD EQ PUSH2 0x2DA JUMPI PUSH2 0x211 JUMP JUMPDEST DUP1 PUSH4 0x13CF08B EQ PUSH2 0x216 JUMPI DUP1 PUSH4 0x2A251A3 EQ PUSH2 0x247 JUMPI DUP1 PUSH4 0x6FDDE03 EQ PUSH2 0x25C JUMPI DUP1 PUSH4 0x95EA7B3 EQ PUSH2 0x271 JUMPI JUMPDEST PUSH1 0x0 DUP1 REVERT JUMPDEST PUSH2 0x229 PUSH2 0x224 CALLDATASIZE PUSH1 0x4 PUSH2 0x2436 JUMP JUMPDEST PUSH2 0x4B4 JUMP JUMPDEST PUSH1 0x40 MLOAD PUSH2 0x23E SWAP10 SWAP9 SWAP8 SWAP7 SWAP6 SWAP5 SWAP4 SWAP3 SWAP2 SWAP1 PUSH2 0x26AA JUMP JUMPDEST PUSH1 0x40 MLOAD DUP1 SWAP2 SUB SWAP1 RETURN JUMPDEST PUSH2 0x24F PUSH2 0x620 JUMP JUMPDEST PUSH1 0x40 MLOAD PUSH2 0x23E SWAP2 SWAP1 PUSH2 0x25EA JUMP JUMPDEST PUSH2 0x264 PUSH2 0x626 JUMP JUMPDEST PUSH1 0x40 MLOAD PUSH2 0x23E SWAP2 SWAP1 PUSH2 0x2735 JUMP JUMPDEST PUSH2 0x284 PUSH2 0x27F CALLDATASIZE PUSH1 0x4 PUSH2 0x22F1 JUMP JUMPDEST PUSH2 0x6B4 JUMP JUMPDEST PUSH1 0x40 MLOAD PUSH2 0x23E SWAP2 SWAP1 PUSH2 0x25DF JUMP JUMPDEST PUSH2 0x2A4 PUSH2 0x29F CALLDATASIZE PUSH1 0x4 PUSH2 0x22F1 JUMP JUMPDEST PUSH2 0x71F JUMP JUMPDEST PUSH1 0x40 MLOAD PUSH2 0x23E SWAP3 SWAP2 SWAP1 PUSH2 0x294D JUMP JUMPDEST PUSH2 0x2C5 PUSH2 0x2C0 CALLDATASIZE PUSH1 0x4 PUSH2 0x21A5 JUMP JUMPDEST PUSH2 0x754 JUMP JUMPDEST PUSH1 0x40 MLOAD PUSH2 0x23E SWAP2 SWAP1 PUSH2 0x2695 JUMP JUMPDEST PUSH2 0x24F PUSH2 0x765 JUMP JUMPDEST PUSH2 0x24F PUSH2 0x789 JUMP JUMPDEST PUSH2 0x284 PUSH2 0x2F0 CALLDATASIZE PUSH1 0x4 PUSH2 0x216A JUMP JUMPDEST PUSH2 0x78F JUMP JUMPDEST PUSH2 0x24F PUSH2 0x8A5 JUMP JUMPDEST PUSH2 0x305 PUSH2 0x8C9 JUMP JUMPDEST PUSH1 0x40 MLOAD PUSH2 0x23E SWAP2 SWAP1 PUSH2 0x296C JUMP JUMPDEST PUSH2 0x24F PUSH2 0x8CE JUMP JUMPDEST PUSH2 0x284 PUSH2 0x328 CALLDATASIZE PUSH1 0x4 PUSH2 0x244E JUMP JUMPDEST PUSH2 0x92B JUMP JUMPDEST PUSH2 0x340 PUSH2 0x33B CALLDATASIZE PUSH1 0x4 PUSH2 0x211E JUMP JUMPDEST PUSH2 0x94B JUMP JUMPDEST PUSH1 0x40 MLOAD PUSH2 0x23E SWAP2 SWAP1 PUSH2 0x25CB JUMP JUMPDEST PUSH2 0x360 PUSH2 0x35B CALLDATASIZE PUSH1 0x4 PUSH2 0x211E JUMP JUMPDEST PUSH2 0x966 JUMP JUMPDEST STOP JUMPDEST PUSH2 0x24F PUSH2 0x973 JUMP JUMPDEST PUSH2 0x284 PUSH2 0x997 JUMP JUMPDEST PUSH2 0x24F PUSH2 0x380 CALLDATASIZE PUSH1 0x4 PUSH2 0x211E JUMP JUMPDEST PUSH2 0x9A0 JUMP JUMPDEST PUSH2 0x24F PUSH2 0x393 CALLDATASIZE PUSH1 0x4 PUSH2 0x211E JUMP JUMPDEST PUSH2 0x9B2 JUMP JUMPDEST PUSH2 0x3AB PUSH2 0x3A6 CALLDATASIZE PUSH1 0x4 PUSH2 0x2371 JUMP JUMPDEST PUSH2 0x9C4 JUMP JUMPDEST PUSH1 0x40 MLOAD PUSH2 0x23E SWAP2 SWAP1 PUSH2 0x2722 JUMP JUMPDEST PUSH2 0x24F PUSH2 0x3C6 CALLDATASIZE PUSH1 0x4 PUSH2 0x22F1 JUMP JUMPDEST PUSH2 0x9D9 JUMP JUMPDEST PUSH2 0x24F PUSH2 0x3D9 CALLDATASIZE PUSH1 0x4 PUSH2 0x211E JUMP JUMPDEST PUSH2 0xBBD JUMP JUMPDEST PUSH2 0x360 PUSH2 0x3EC CALLDATASIZE PUSH1 0x4 PUSH2 0x238B JUMP JUMPDEST PUSH2 0xBCF JUMP JUMPDEST PUSH2 0x264 PUSH2 0xE02 JUMP JUMPDEST PUSH2 0x284 PUSH2 0x407 CALLDATASIZE PUSH1 0x4 PUSH2 0x22F1 JUMP JUMPDEST PUSH2 0xE0F JUMP JUMPDEST PUSH2 0x24F PUSH2 0x41A CALLDATASIZE PUSH1 0x4 PUSH2 0x211E JUMP JUMPDEST PUSH2 0xE97 JUMP JUMPDEST PUSH2 0x360 PUSH2 0x42D CALLDATASIZE PUSH1 0x4 PUSH2 0x231A JUMP JUMPDEST PUSH2 0xF05 JUMP JUMPDEST PUSH2 0x360 PUSH2 0x440 CALLDATASIZE PUSH1 0x4 PUSH2 0x2470 JUMP JUMPDEST PUSH2 0x1078 JUMP JUMPDEST PUSH2 0x360 PUSH2 0x453 CALLDATASIZE PUSH1 0x4 PUSH2 0x24A3 JUMP JUMPDEST PUSH2 0x119D JUMP JUMPDEST PUSH2 0x360 PUSH2 0x466 CALLDATASIZE PUSH1 0x4 PUSH2 0x2288 JUMP JUMPDEST PUSH2 0x13CA JUMP JUMPDEST PUSH2 0x24F PUSH2 0x159B JUMP JUMPDEST PUSH2 0x24F PUSH2 0x481 CALLDATASIZE PUSH1 0x4 PUSH2 0x2138 JUMP JUMPDEST PUSH2 0x15A1 JUMP JUMPDEST PUSH2 0x284 PUSH2 0x494 CALLDATASIZE PUSH1 0x4 PUSH2 0x2436 JUMP JUMPDEST PUSH2 0x15BE JUMP JUMPDEST PUSH2 0x24F PUSH2 0x1882 JUMP JUMPDEST PUSH2 0x2C5 PUSH2 0x4AF CALLDATASIZE PUSH1 0x4 PUSH2 0x2212 JUMP JUMPDEST PUSH2 0x18A6 JUMP JUMPDEST PUSH1 0xD PUSH1 0x20 MSTORE PUSH1 0x0 SWAP1 DUP2 MSTORE PUSH1 0x40 SWAP1 KECCAK256 DUP1 SLOAD PUSH1 0x1 DUP3 ADD DUP1 SLOAD PUSH1 0xFF SWAP1 SWAP3 AND SWAP3 SWAP2 PUSH2 0x4DA SWAP1 PUSH2 0x29E8 JUMP JUMPDEST DUP1 PUSH1 0x1F ADD PUSH1 0x20 DUP1 SWAP2 DIV MUL PUSH1 0x20 ADD PUSH1 0x40 MLOAD SWAP1 DUP2 ADD PUSH1 0x40 MSTORE DUP1 SWAP3 SWAP2 SWAP1 DUP2 DUP2 MSTORE PUSH1 0x20 ADD DUP3 DUP1 SLOAD PUSH2 0x506 SWAP1 PUSH2 0x29E8 JUMP JUMPDEST DUP1 ISZERO PUSH2 0x553 JUMPI DUP1 PUSH1 0x1F LT PUSH2 0x528 JUMPI PUSH2 0x100 DUP1 DUP4 SLOAD DIV MUL DUP4 MSTORE SWAP2 PUSH1 0x20 ADD SWAP2 PUSH2 0x553 JUMP JUMPDEST DUP3 ADD SWAP2 SWAP1 PUSH1 0x0 MSTORE PUSH1 0x20 PUSH1 0x0 KECCAK256 SWAP1 JUMPDEST DUP2 SLOAD DUP2 MSTORE SWAP1 PUSH1 0x1 ADD SWAP1 PUSH1 0x20 ADD DUP1 DUP4 GT PUSH2 0x536 JUMPI DUP3 SWAP1 SUB PUSH1 0x1F AND DUP3 ADD SWAP2 JUMPDEST POP POP POP POP PUSH1 0x2 DUP4 ADD SLOAD PUSH1 0x3 DUP5 ADD SLOAD PUSH1 0x4 DUP6 ADD SLOAD PUSH1 0x5 DUP7 ADD DUP1 SLOAD SWAP6 SWAP7 PUSH1 0x1 PUSH1 0x1 PUSH1 0xA0 SHL SUB SWAP5 DUP6 AND SWAP7 SWAP5 SWAP1 SWAP4 AND SWAP5 POP SWAP1 SWAP3 PUSH2 0x58B SWAP1 PUSH2 0x29E8 JUMP JUMPDEST DUP1 PUSH1 0x1F ADD PUSH1 0x20 DUP1 SWAP2 DIV MUL PUSH1 0x20 ADD PUSH1 0x40 MLOAD SWAP1 DUP2 ADD PUSH1 0x40 MSTORE DUP1 SWAP3 SWAP2 SWAP1 DUP2 DUP2 MSTORE PUSH1 0x20 ADD DUP3 DUP1 SLOAD PUSH2 0x5B7 SWAP1 PUSH2 0x29E8 JUMP JUMPDEST DUP1 ISZERO PUSH2 0x604 JUMPI DUP1 PUSH1 0x1F LT PUSH2 0x5D9 JUMPI PUSH2 0x100 DUP1 DUP4 SLOAD DIV MUL DUP4 MSTORE SWAP2 PUSH1 0x20 ADD SWAP2 PUSH2 0x604 JUMP JUMPDEST DUP3 ADD SWAP2 SWAP1 PUSH1 0x0 MSTORE PUSH1 0x20 PUSH1 0x0 KECCAK256 SWAP1 JUMPDEST DUP2 SLOAD DUP2 MSTORE SWAP1 PUSH1 0x1 ADD SWAP1 PUSH1 0x20 ADD DUP1 DUP4 GT PUSH2 0x5E7 JUMPI DUP3 SWAP1 SUB PUSH1 0x1F AND DUP3 ADD SWAP2 JUMPDEST POP POP POP POP POP SWAP1 DUP1 PUSH1 0x6 ADD SLOAD SWAP1 DUP1 PUSH1 0x7 ADD SLOAD SWAP1 DUP1 PUSH1 0x8 ADD SLOAD SWAP1 POP DUP10 JUMP JUMPDEST PUSH1 0xB SLOAD DUP2 JUMP JUMPDEST PUSH1 0x0 DUP1 SLOAD PUSH2 0x633 SWAP1 PUSH2 0x29E8 JUMP JUMPDEST DUP1 PUSH1 0x1F ADD PUSH1 0x20 DUP1 SWAP2 DIV MUL PUSH1 0x20 ADD PUSH1 0x40 MLOAD SWAP1 DUP2 ADD PUSH1 0x40 MSTORE DUP1 SWAP3 SWAP2 SWAP1 DUP2 DUP2 MSTORE PUSH1 0x20 ADD DUP3 DUP1 SLOAD PUSH2 0x65F SWAP1 PUSH2 0x29E8 JUMP JUMPDEST DUP1 ISZERO PUSH2 0x6AC JUMPI DUP1 PUSH1 0x1F LT PUSH2 0x681 JUMPI PUSH2 0x100 DUP1 DUP4 SLOAD DIV MUL DUP4 MSTORE SWAP2 PUSH1 0x20 ADD SWAP2 PUSH2 0x6AC JUMP JUMPDEST DUP3 ADD SWAP2 SWAP1 PUSH1 0x0 MSTORE PUSH1 0x20 PUSH1 0x0 KECCAK256 SWAP1 JUMPDEST DUP2 SLOAD DUP2 MSTORE SWAP1 PUSH1 0x1 ADD SWAP1 PUSH1 0x20 ADD DUP1 DUP4 GT PUSH2 0x68F JUMPI DUP3 SWAP1 SUB PUSH1 0x1F AND DUP3 ADD SWAP2 JUMPDEST POP POP POP POP POP DUP2 JUMP JUMPDEST CALLER PUSH1 0x0 DUP2 DUP2 MSTORE PUSH1 0x4 PUSH1 0x20 SWAP1 DUP2 MSTORE PUSH1 0x40 DUP1 DUP4 KECCAK256 PUSH1 0x1 PUSH1 0x1 PUSH1 0xA0 SHL SUB DUP8 AND DUP1 DUP6 MSTORE SWAP3 MSTORE DUP1 DUP4 KECCAK256 DUP6 SWAP1 SSTORE MLOAD SWAP2 SWAP3 SWAP1 SWAP2 PUSH32 0x8C5BE1E5EBEC7D5BD14F71427D1E84F3DD0314C0F7B2291E5B200AC8C7C3B925 SWAP1 PUSH2 0x70D SWAP1 DUP7 SWAP1 PUSH2 0x25EA JUMP JUMPDEST PUSH1 0x40 MLOAD DUP1 SWAP2 SUB SWAP1 LOG3 POP PUSH1 0x1 JUMPDEST SWAP3 SWAP2 POP POP JUMP JUMPDEST PUSH1 0x7 PUSH1 0x20 SWAP1 DUP2 MSTORE PUSH1 0x0 SWAP3 DUP4 MSTORE PUSH1 0x40 DUP1 DUP5 KECCAK256 SWAP1 SWAP2 MSTORE SWAP1 DUP3 MSTORE SWAP1 KECCAK256 SLOAD PUSH4 0xFFFFFFFF DUP2 AND SWAP1 PUSH1 0x1 PUSH1 0x20 SHL SWAP1 DIV PUSH1 0x1 PUSH1 0x1 PUSH1 0xE0 SHL SUB AND DUP3 JUMP JUMPDEST POP PUSH4 0xA85BD01 PUSH1 0xE1 SHL SWAP5 SWAP4 POP POP POP POP JUMP JUMPDEST PUSH32 0x0 DUP2 JUMP JUMPDEST PUSH1 0x2 SLOAD DUP2 JUMP JUMPDEST PUSH1 0x5 SLOAD PUSH1 0x0 SWAP1 PUSH1 0xFF AND ISZERO PUSH2 0x7BE JUMPI PUSH1 0x40 MLOAD PUSH3 0x461BCD PUSH1 0xE5 SHL DUP2 MSTORE PUSH1 0x4 ADD PUSH2 0x7B5 SWAP1 PUSH2 0x2748 JUMP JUMPDEST PUSH1 0x40 MLOAD DUP1 SWAP2 SUB SWAP1 REVERT JUMPDEST PUSH1 0x1 PUSH1 0x1 PUSH1 0xA0 SHL SUB DUP5 AND PUSH1 0x0 SWAP1 DUP2 MSTORE PUSH1 0x4 PUSH1 0x20 SWAP1 DUP2 MSTORE PUSH1 0x40 DUP1 DUP4 KECCAK256 CALLER DUP5 MSTORE SWAP1 SWAP2 MSTORE SWAP1 KECCAK256 SLOAD PUSH1 0x0 NOT EQ PUSH2 0x823 JUMPI PUSH1 0x1 PUSH1 0x1 PUSH1 0xA0 SHL SUB DUP5 AND PUSH1 0x0 SWAP1 DUP2 MSTORE PUSH1 0x4 PUSH1 0x20 SWAP1 DUP2 MSTORE PUSH1 0x40 DUP1 DUP4 KECCAK256 CALLER DUP5 MSTORE SWAP1 SWAP2 MSTORE DUP2 KECCAK256 DUP1 SLOAD DUP5 SWAP3 SWAP1 PUSH2 0x81D SWAP1 DUP5 SWAP1 PUSH2 0x29D1 JUMP JUMPDEST SWAP1 SWAP2 SSTORE POP POP JUMPDEST PUSH1 0x1 PUSH1 0x1 PUSH1 0xA0 SHL SUB DUP5 AND PUSH1 0x0 SWAP1 DUP2 MSTORE PUSH1 0x3 PUSH1 0x20 MSTORE PUSH1 0x40 DUP2 KECCAK256 DUP1 SLOAD DUP5 SWAP3 SWAP1 PUSH2 0x84B SWAP1 DUP5 SWAP1 PUSH2 0x29D1 JUMP JUMPDEST SWAP1 SWAP2 SSTORE POP POP PUSH1 0x1 PUSH1 0x1 PUSH1 0xA0 SHL SUB DUP1 DUP5 AND PUSH1 0x0 DUP2 DUP2 MSTORE PUSH1 0x3 PUSH1 0x20 MSTORE PUSH1 0x40 SWAP1 DUP2 SWAP1 KECCAK256 DUP1 SLOAD DUP7 ADD SWAP1 SSTORE MLOAD SWAP1 SWAP2 DUP7 AND SWAP1 PUSH1 0x0 DUP1 MLOAD PUSH1 0x20 PUSH2 0x2A58 DUP4 CODECOPY DUP2 MLOAD SWAP2 MSTORE SWAP1 PUSH2 0x892 SWAP1 DUP7 SWAP1 PUSH2 0x25EA JUMP JUMPDEST PUSH1 0x40 MLOAD DUP1 SWAP2 SUB SWAP1 LOG3 POP PUSH1 0x1 JUMPDEST SWAP4 SWAP3 POP POP POP JUMP JUMPDEST PUSH32 0x6E71EDAE12B1B97F4D1F60370FEF10105FA2FAAE0126114A169C64845D6126C9 DUP2 JUMP JUMPDEST PUSH1 0x12 DUP2 JUMP JUMPDEST PUSH1 0x0 PUSH32 0x0 CHAINID EQ PUSH2 0x904 JUMPI PUSH2 0x8FF PUSH2 0x18B8 JUMP JUMPDEST PUSH2 0x926 JUMP JUMPDEST PUSH32 0x0 JUMPDEST SWAP1 POP SWAP1 JUMP JUMPDEST PUSH1 0xF PUSH1 0x20 SWAP1 DUP2 MSTORE PUSH1 0x0 SWAP3 DUP4 MSTORE PUSH1 0x40 DUP1 DUP5 KECCAK256 SWAP1 SWAP2 MSTORE SWAP1 DUP3 MSTORE SWAP1 KECCAK256 SLOAD PUSH1 0xFF AND DUP2 JUMP JUMPDEST PUSH1 0x6 PUSH1 0x20 MSTORE PUSH1 0x0 SWAP1 DUP2 MSTORE PUSH1 0x40 SWAP1 KECCAK256 SLOAD PUSH1 0x1 PUSH1 0x1 PUSH1 0xA0 SHL SUB AND DUP2 JUMP JUMPDEST PUSH2 0x970 CALLER DUP3 PUSH2 0x1956 JUMP JUMPDEST POP JUMP JUMPDEST PUSH32 0x0 DUP2 JUMP JUMPDEST PUSH1 0x5 SLOAD PUSH1 0xFF AND DUP2 JUMP JUMPDEST PUSH1 0x8 PUSH1 0x20 MSTORE PUSH1 0x0 SWAP1 DUP2 MSTORE PUSH1 0x40 SWAP1 KECCAK256 SLOAD DUP2 JUMP JUMPDEST PUSH1 0x3 PUSH1 0x20 MSTORE PUSH1 0x0 SWAP1 DUP2 MSTORE PUSH1 0x40 SWAP1 KECCAK256 SLOAD DUP2 JUMP JUMPDEST PUSH1 0xE PUSH1 0x20 MSTORE PUSH1 0x0 SWAP1 DUP2 MSTORE PUSH1 0x40 SWAP1 KECCAK256 SLOAD PUSH1 0xFF AND DUP2 JUMP JUMPDEST PUSH1 0x0 DUP2 TIMESTAMP GT PUSH2 0x9FA JUMPI PUSH1 0x40 MLOAD PUSH3 0x461BCD PUSH1 0xE5 SHL DUP2 MSTORE PUSH1 0x4 ADD PUSH2 0x7B5 SWAP1 PUSH2 0x278D JUMP JUMPDEST PUSH1 0x1 PUSH1 0x1 PUSH1 0xA0 SHL SUB DUP4 AND PUSH1 0x0 SWAP1 DUP2 MSTORE PUSH1 0x8 PUSH1 0x20 MSTORE PUSH1 0x40 SWAP1 KECCAK256 SLOAD DUP1 PUSH2 0xA22 JUMPI PUSH1 0x0 SWAP2 POP POP PUSH2 0x719 JUMP JUMPDEST PUSH1 0x1 PUSH1 0x1 PUSH1 0xA0 SHL SUB DUP5 AND PUSH1 0x0 SWAP1 DUP2 MSTORE PUSH1 0x7 PUSH1 0x20 SWAP1 DUP2 MSTORE PUSH1 0x40 DUP1 DUP4 KECCAK256 PUSH1 0x0 NOT DUP6 ADD DUP5 MSTORE SWAP1 SWAP2 MSTORE SWAP1 KECCAK256 SLOAD PUSH4 0xFFFFFFFF AND DUP4 LT PUSH2 0xA96 JUMPI PUSH1 0x1 PUSH1 0x1 PUSH1 0xA0 SHL SUB DUP5 AND PUSH1 0x0 SWAP1 DUP2 MSTORE PUSH1 0x7 PUSH1 0x20 SWAP1 DUP2 MSTORE PUSH1 0x40 DUP1 DUP4 KECCAK256 PUSH1 0x0 NOT SWAP1 SWAP5 ADD DUP4 MSTORE SWAP3 SWAP1 MSTORE KECCAK256 SLOAD PUSH1 0x1 PUSH1 0x1 PUSH1 0xE0 SHL SUB PUSH1 0x1 PUSH1 0x20 SHL SWAP1 SWAP2 DIV AND SWAP1 POP PUSH2 0x719 JUMP JUMPDEST PUSH1 0x1 PUSH1 0x1 PUSH1 0xA0 SHL SUB DUP5 AND PUSH1 0x0 SWAP1 DUP2 MSTORE PUSH1 0x7 PUSH1 0x20 SWAP1 DUP2 MSTORE PUSH1 0x40 DUP1 DUP4 KECCAK256 DUP4 DUP1 MSTORE SWAP1 SWAP2 MSTORE SWAP1 KECCAK256 SLOAD PUSH4 0xFFFFFFFF AND DUP4 LT ISZERO PUSH2 0xAD1 JUMPI PUSH1 0x0 SWAP2 POP POP PUSH2 0x719 JUMP JUMPDEST PUSH1 0x0 PUSH1 0x0 NOT DUP3 ADD JUMPDEST DUP2 DUP2 GT ISZERO PUSH2 0xB7F JUMPI PUSH1 0x1 PUSH1 0x1 PUSH1 0xA0 SHL SUB DUP7 AND PUSH1 0x0 SWAP1 DUP2 MSTORE PUSH1 0x7 PUSH1 0x20 SWAP1 DUP2 MSTORE PUSH1 0x40 DUP1 DUP4 KECCAK256 PUSH1 0x2 DUP7 DUP7 SUB DIV DUP6 SUB DUP1 DUP6 MSTORE SWAP1 DUP4 MSTORE SWAP3 DUP2 SWAP1 KECCAK256 DUP2 MLOAD DUP1 DUP4 ADD SWAP1 SWAP3 MSTORE SLOAD PUSH4 0xFFFFFFFF DUP2 AND DUP1 DUP4 MSTORE PUSH1 0x1 PUSH1 0x20 SHL SWAP1 SWAP2 DIV PUSH1 0x1 PUSH1 0x1 PUSH1 0xE0 SHL SUB AND SWAP3 DUP3 ADD SWAP3 SWAP1 SWAP3 MSTORE SWAP1 DUP8 EQ ISZERO PUSH2 0xB5A JUMPI PUSH1 0x20 ADD MLOAD PUSH1 0x1 PUSH1 0x1 PUSH1 0xE0 SHL SUB AND SWAP5 POP PUSH2 0x719 SWAP4 POP POP POP POP JUMP JUMPDEST DUP1 MLOAD PUSH4 0xFFFFFFFF AND DUP8 GT ISZERO PUSH2 0xB71 JUMPI DUP2 SWAP4 POP PUSH2 0xB78 JUMP JUMPDEST PUSH1 0x1 DUP3 SUB SWAP3 POP JUMPDEST POP POP PUSH2 0xAD9 JUMP JUMPDEST POP PUSH1 0x1 PUSH1 0x1 PUSH1 0xA0 SHL SUB DUP6 AND PUSH1 0x0 SWAP1 DUP2 MSTORE PUSH1 0x7 PUSH1 0x20 SWAP1 DUP2 MSTORE PUSH1 0x40 DUP1 DUP4 KECCAK256 SWAP4 DUP4 MSTORE SWAP3 SWAP1 MSTORE KECCAK256 SLOAD PUSH1 0x1 PUSH1 0x1 PUSH1 0xE0 SHL SUB PUSH1 0x1 PUSH1 0x20 SHL SWAP1 SWAP2 DIV AND SWAP2 POP POP SWAP3 SWAP2 POP POP JUMP JUMPDEST PUSH1 0x9 PUSH1 0x20 MSTORE PUSH1 0x0 SWAP1 DUP2 MSTORE PUSH1 0x40 SWAP1 KECCAK256 SLOAD DUP2 JUMP JUMPDEST CALLER PUSH1 0x0 SWAP1 DUP2 MSTORE PUSH1 0x3 PUSH1 0x20 MSTORE PUSH1 0x40 SWAP1 KECCAK256 SLOAD PUSH2 0xBFB JUMPI PUSH1 0x40 MLOAD PUSH3 0x461BCD PUSH1 0xE5 SHL DUP2 MSTORE PUSH1 0x4 ADD PUSH2 0x7B5 SWAP1 PUSH2 0x28DE JUMP JUMPDEST PUSH1 0xA SLOAD PUSH1 0x40 DUP1 MLOAD PUSH2 0x120 DUP2 ADD SWAP1 SWAP2 MSTORE DUP1 DUP11 PUSH1 0x3 DUP2 GT ISZERO PUSH2 0xC2B JUMPI PUSH4 0x4E487B71 PUSH1 0xE0 SHL PUSH1 0x0 MSTORE PUSH1 0x21 PUSH1 0x4 MSTORE PUSH1 0x24 PUSH1 0x0 REVERT JUMPDEST DUP2 MSTORE PUSH1 0x20 ADD DUP10 DUP10 DUP1 DUP1 PUSH1 0x1F ADD PUSH1 0x20 DUP1 SWAP2 DIV MUL PUSH1 0x20 ADD PUSH1 0x40 MLOAD SWAP1 DUP2 ADD PUSH1 0x40 MSTORE DUP1 SWAP4 SWAP3 SWAP2 SWAP1 DUP2 DUP2 MSTORE PUSH1 0x20 ADD DUP4 DUP4 DUP1 DUP3 DUP5 CALLDATACOPY PUSH1 0x0 DUP2 DUP5 ADD MSTORE PUSH1 0x1F NOT PUSH1 0x1F DUP3 ADD AND SWAP1 POP DUP1 DUP4 ADD SWAP3 POP POP POP POP POP POP POP DUP2 MSTORE PUSH1 0x20 ADD DUP8 PUSH1 0x1 PUSH1 0x1 PUSH1 0xA0 SHL SUB AND DUP2 MSTORE PUSH1 0x20 ADD DUP7 PUSH1 0x1 PUSH1 0x1 PUSH1 0xA0 SHL SUB AND DUP2 MSTORE PUSH1 0x20 ADD DUP6 DUP2 MSTORE PUSH1 0x20 ADD DUP5 DUP5 DUP1 DUP1 PUSH1 0x1F ADD PUSH1 0x20 DUP1 SWAP2 DIV MUL PUSH1 0x20 ADD PUSH1 0x40 MLOAD SWAP1 DUP2 ADD PUSH1 0x40 MSTORE DUP1 SWAP4 SWAP3 SWAP2 SWAP1 DUP2 DUP2 MSTORE PUSH1 0x20 ADD DUP4 DUP4 DUP1 DUP3 DUP5 CALLDATACOPY PUSH1 0x0 SWAP3 ADD DUP3 SWAP1 MSTORE POP SWAP4 DUP6 MSTORE POP POP POP PUSH1 0x20 DUP1 DUP4 ADD DUP3 SWAP1 MSTORE PUSH1 0x40 DUP1 DUP5 ADD DUP4 SWAP1 MSTORE TIMESTAMP PUSH1 0x60 SWAP1 SWAP5 ADD SWAP4 SWAP1 SWAP4 MSTORE DUP5 DUP3 MSTORE PUSH1 0xD SWAP1 MSTORE KECCAK256 DUP2 MLOAD DUP2 SLOAD DUP3 SWAP1 PUSH1 0xFF NOT AND PUSH1 0x1 DUP4 PUSH1 0x3 DUP2 GT ISZERO PUSH2 0xD24 JUMPI PUSH4 0x4E487B71 PUSH1 0xE0 SHL PUSH1 0x0 MSTORE PUSH1 0x21 PUSH1 0x4 MSTORE PUSH1 0x24 PUSH1 0x0 REVERT JUMPDEST MUL OR SWAP1 SSTORE POP PUSH1 0x20 DUP3 DUP2 ADD MLOAD DUP1 MLOAD PUSH2 0xD41 SWAP3 PUSH1 0x1 DUP6 ADD SWAP3 ADD SWAP1 PUSH2 0x1FCE JUMP JUMPDEST POP PUSH1 0x40 DUP3 ADD MLOAD PUSH1 0x2 DUP3 ADD DUP1 SLOAD PUSH1 0x1 PUSH1 0x1 PUSH1 0xA0 SHL SUB SWAP3 DUP4 AND PUSH1 0x1 PUSH1 0x1 PUSH1 0xA0 SHL SUB NOT SWAP2 DUP3 AND OR SWAP1 SWAP2 SSTORE PUSH1 0x60 DUP5 ADD MLOAD PUSH1 0x3 DUP5 ADD DUP1 SLOAD SWAP2 SWAP1 SWAP4 AND SWAP2 AND OR SWAP1 SSTORE PUSH1 0x80 DUP3 ADD MLOAD PUSH1 0x4 DUP3 ADD SSTORE PUSH1 0xA0 DUP3 ADD MLOAD DUP1 MLOAD PUSH2 0xDA1 SWAP2 PUSH1 0x5 DUP5 ADD SWAP2 PUSH1 0x20 SWAP1 SWAP2 ADD SWAP1 PUSH2 0x1FCE JUMP JUMPDEST POP PUSH1 0xC0 DUP3 ADD MLOAD PUSH1 0x6 DUP3 ADD SSTORE PUSH1 0xE0 DUP3 ADD MLOAD PUSH1 0x7 DUP3 ADD SSTORE PUSH2 0x100 SWAP1 SWAP2 ADD MLOAD PUSH1 0x8 SWAP1 SWAP2 ADD SSTORE PUSH1 0xA DUP1 SLOAD PUSH1 0x1 ADD SWAP1 SSTORE PUSH1 0x40 MLOAD DUP2 SWAP1 PUSH32 0x9A863892F20A6B9C6CEC64D611B5864BE6373191CE2CACC3B05A299BCE3BF80E SWAP1 PUSH1 0x0 SWAP1 LOG2 POP POP POP POP POP POP POP POP POP JUMP JUMPDEST PUSH1 0x1 DUP1 SLOAD PUSH2 0x633 SWAP1 PUSH2 0x29E8 JUMP JUMPDEST PUSH1 0x5 SLOAD PUSH1 0x0 SWAP1 PUSH1 0xFF AND ISZERO PUSH2 0xE35 JUMPI PUSH1 0x40 MLOAD PUSH3 0x461BCD PUSH1 0xE5 SHL DUP2 MSTORE PUSH1 0x4 ADD PUSH2 0x7B5 SWAP1 PUSH2 0x2748 JUMP JUMPDEST CALLER PUSH1 0x0 SWAP1 DUP2 MSTORE PUSH1 0x3 PUSH1 0x20 MSTORE PUSH1 0x40 DUP2 KECCAK256 DUP1 SLOAD DUP5 SWAP3 SWAP1 PUSH2 0xE54 SWAP1 DUP5 SWAP1 PUSH2 0x29D1 JUMP JUMPDEST SWAP1 SWAP2 SSTORE POP POP PUSH1 0x1 PUSH1 0x1 PUSH1 0xA0 SHL SUB DUP4 AND PUSH1 0x0 DUP2 DUP2 MSTORE PUSH1 0x3 PUSH1 0x20 MSTORE PUSH1 0x40 SWAP1 DUP2 SWAP1 KECCAK256 DUP1 SLOAD DUP6 ADD SWAP1 SSTORE MLOAD CALLER SWAP1 PUSH1 0x0 DUP1 MLOAD PUSH1 0x20 PUSH2 0x2A58 DUP4 CODECOPY DUP2 MLOAD SWAP2 MSTORE SWAP1 PUSH2 0x70D SWAP1 DUP7 SWAP1 PUSH2 0x25EA JUMP JUMPDEST PUSH1 0x1 PUSH1 0x1 PUSH1 0xA0 SHL SUB DUP2 AND PUSH1 0x0 SWAP1 DUP2 MSTORE PUSH1 0x8 PUSH1 0x20 MSTORE PUSH1 0x40 DUP2 KECCAK256 SLOAD DUP1 PUSH2 0xEBC JUMPI PUSH1 0x0 PUSH2 0xEF5 JUMP JUMPDEST PUSH1 0x1 PUSH1 0x1 PUSH1 0xA0 SHL SUB DUP4 AND PUSH1 0x0 SWAP1 DUP2 MSTORE PUSH1 0x7 PUSH1 0x20 SWAP1 DUP2 MSTORE PUSH1 0x40 DUP1 DUP4 KECCAK256 PUSH1 0x0 NOT DUP6 ADD DUP5 MSTORE SWAP1 SWAP2 MSTORE SWAP1 KECCAK256 SLOAD PUSH1 0x1 PUSH1 0x20 SHL SWAP1 DIV PUSH1 0x1 PUSH1 0x1 PUSH1 0xE0 SHL SUB AND JUMPDEST PUSH1 0x1 PUSH1 0x1 PUSH1 0xE0 SHL SUB AND SWAP4 SWAP3 POP POP POP JUMP JUMPDEST PUSH1 0x0 PUSH32 0xE48329057BFD03D55E49B547132E39CFFD9C1820AD7B9D4C5307691425D15ADF DUP8 DUP8 DUP8 PUSH1 0x40 MLOAD PUSH1 0x20 ADD PUSH2 0xF3E SWAP5 SWAP4 SWAP3 SWAP2 SWAP1 PUSH2 0x2627 JUMP JUMPDEST PUSH1 0x40 MLOAD PUSH1 0x20 DUP2 DUP4 SUB SUB DUP2 MSTORE SWAP1 PUSH1 0x40 MSTORE DUP1 MLOAD SWAP1 PUSH1 0x20 ADD KECCAK256 SWAP1 POP PUSH1 0x0 PUSH2 0xF60 PUSH2 0x8CE JUMP JUMPDEST DUP3 PUSH1 0x40 MLOAD PUSH1 0x20 ADD PUSH2 0xF72 SWAP3 SWAP2 SWAP1 PUSH2 0x25B0 JUMP JUMPDEST PUSH1 0x40 MLOAD PUSH1 0x20 DUP2 DUP4 SUB SUB DUP2 MSTORE SWAP1 PUSH1 0x40 MSTORE DUP1 MLOAD SWAP1 PUSH1 0x20 ADD KECCAK256 SWAP1 POP PUSH1 0x0 PUSH1 0x1 DUP3 DUP8 DUP8 DUP8 PUSH1 0x40 MLOAD PUSH1 0x0 DUP2 MSTORE PUSH1 0x20 ADD PUSH1 0x40 MSTORE PUSH1 0x40 MLOAD PUSH2 0xFAF SWAP5 SWAP4 SWAP3 SWAP2 SWAP1 PUSH2 0x2677 JUMP JUMPDEST PUSH1 0x20 PUSH1 0x40 MLOAD PUSH1 0x20 DUP2 SUB SWAP1 DUP1 DUP5 SUB SWAP1 DUP6 GAS STATICCALL ISZERO DUP1 ISZERO PUSH2 0xFD1 JUMPI RETURNDATASIZE PUSH1 0x0 DUP1 RETURNDATACOPY RETURNDATASIZE PUSH1 0x0 REVERT JUMPDEST POP POP PUSH1 0x40 MLOAD PUSH1 0x1F NOT ADD MLOAD SWAP2 POP POP PUSH1 0x1 PUSH1 0x1 PUSH1 0xA0 SHL SUB DUP2 AND PUSH2 0x1004 JUMPI PUSH1 0x40 MLOAD PUSH3 0x461BCD PUSH1 0xE5 SHL DUP2 MSTORE PUSH1 0x4 ADD PUSH2 0x7B5 SWAP1 PUSH2 0x2841 JUMP JUMPDEST PUSH1 0x1 PUSH1 0x1 PUSH1 0xA0 SHL SUB DUP2 AND PUSH1 0x0 SWAP1 DUP2 MSTORE PUSH1 0x9 PUSH1 0x20 MSTORE PUSH1 0x40 SWAP1 KECCAK256 DUP1 SLOAD PUSH1 0x1 DUP2 ADD SWAP1 SWAP2 SSTORE DUP9 EQ PUSH2 0x1043 JUMPI PUSH1 0x40 MLOAD PUSH3 0x461BCD PUSH1 0xE5 SHL DUP2 MSTORE PUSH1 0x4 ADD PUSH2 0x7B5 SWAP1 PUSH2 0x28B7 JUMP JUMPDEST DUP7 TIMESTAMP GT ISZERO PUSH2 0x1063 JUMPI PUSH1 0x40 MLOAD PUSH3 0x461BCD PUSH1 0xE5 SHL DUP2 MSTORE PUSH1 0x4 ADD PUSH2 0x7B5 SWAP1 PUSH2 0x2816 JUMP JUMPDEST PUSH2 0x106D DUP2 DUP11 PUSH2 0x1956 JUMP JUMPDEST POP POP POP POP POP POP POP POP POP JUMP JUMPDEST CALLER PUSH1 0x0 SWAP1 DUP2 MSTORE PUSH1 0x3 PUSH1 0x20 MSTORE PUSH1 0x40 SWAP1 KECCAK256 SLOAD PUSH2 0x10A4 JUMPI PUSH1 0x40 MLOAD PUSH3 0x461BCD PUSH1 0xE5 SHL DUP2 MSTORE PUSH1 0x4 ADD PUSH2 0x7B5 SWAP1 PUSH2 0x28DE JUMP JUMPDEST PUSH1 0x0 DUP3 DUP2 MSTORE PUSH1 0xF PUSH1 0x20 SWAP1 DUP2 MSTORE PUSH1 0x40 DUP1 DUP4 KECCAK256 CALLER DUP5 MSTORE SWAP1 SWAP2 MSTORE SWAP1 KECCAK256 SLOAD PUSH1 0xFF AND ISZERO PUSH2 0x10DE JUMPI PUSH1 0x40 MLOAD PUSH3 0x461BCD PUSH1 0xE5 SHL DUP2 MSTORE PUSH1 0x4 ADD PUSH2 0x7B5 SWAP1 PUSH2 0x2867 JUMP JUMPDEST PUSH1 0x0 DUP3 DUP2 MSTORE PUSH1 0xD PUSH1 0x20 MSTORE PUSH1 0x40 SWAP1 KECCAK256 PUSH1 0xB SLOAD PUSH1 0x8 DUP3 ADD SLOAD ADD TIMESTAMP GT ISZERO PUSH2 0x1114 JUMPI PUSH1 0x40 MLOAD PUSH3 0x461BCD PUSH1 0xE5 SHL DUP2 MSTORE PUSH1 0x4 ADD PUSH2 0x7B5 SWAP1 PUSH2 0x27B9 JUMP JUMPDEST PUSH1 0x0 PUSH2 0x1124 CALLER DUP4 PUSH1 0x8 ADD SLOAD PUSH2 0x9D9 JUMP JUMPDEST SWAP1 POP DUP3 ISZERO PUSH2 0x113B JUMPI PUSH1 0x6 DUP3 ADD DUP1 SLOAD DUP3 ADD SWAP1 SSTORE PUSH2 0x1146 JUMP JUMPDEST PUSH1 0x7 DUP3 ADD DUP1 SLOAD DUP3 ADD SWAP1 SSTORE JUMPDEST PUSH1 0x0 DUP5 DUP2 MSTORE PUSH1 0xF PUSH1 0x20 SWAP1 DUP2 MSTORE PUSH1 0x40 DUP1 DUP4 KECCAK256 CALLER DUP1 DUP6 MSTORE SWAP3 MSTORE DUP1 DUP4 KECCAK256 DUP1 SLOAD PUSH1 0xFF NOT AND PUSH1 0x1 OR SWAP1 SSTORE MLOAD DUP6 ISZERO ISZERO SWAP3 DUP8 SWAP3 SWAP2 PUSH32 0xD356173AE8EEEA8691AEE4C1BE712C314A975A3D43EBC48B08CA54D0DAC91228 SWAP2 SWAP1 LOG4 POP POP POP POP JUMP JUMPDEST PUSH1 0xC SLOAD PUSH1 0xFF AND ISZERO PUSH2 0x11C0 JUMPI PUSH1 0x40 MLOAD PUSH3 0x461BCD PUSH1 0xE5 SHL DUP2 MSTORE PUSH1 0x4 ADD PUSH2 0x7B5 SWAP1 PUSH2 0x2768 JUMP JUMPDEST DUP4 PUSH1 0xFF AND PUSH1 0x3 DUP2 GT ISZERO PUSH2 0x11E3 JUMPI PUSH4 0x4E487B71 PUSH1 0xE0 SHL PUSH1 0x0 MSTORE PUSH1 0x21 PUSH1 0x4 MSTORE PUSH1 0x24 PUSH1 0x0 REVERT JUMPDEST PUSH1 0x0 DUP1 MSTORE PUSH1 0xE PUSH1 0x20 MSTORE PUSH32 0xE710864318D4A32F37D6CE54CB3FADBEF648DD12D8DBDF53973564D56B7F881C DUP1 SLOAD PUSH1 0xFF NOT AND PUSH1 0x1 DUP4 PUSH1 0x3 DUP2 GT ISZERO PUSH2 0x1235 JUMPI PUSH4 0x4E487B71 PUSH1 0xE0 SHL PUSH1 0x0 MSTORE PUSH1 0x21 PUSH1 0x4 MSTORE PUSH1 0x24 PUSH1 0x0 REVERT JUMPDEST MUL OR SWAP1 SSTORE POP DUP3 PUSH1 0xFF AND PUSH1 0x3 DUP2 GT ISZERO PUSH2 0x125D JUMPI PUSH4 0x4E487B71 PUSH1 0xE0 SHL PUSH1 0x0 MSTORE PUSH1 0x21 PUSH1 0x4 MSTORE PUSH1 0x24 PUSH1 0x0 REVERT JUMPDEST PUSH1 0x1 PUSH1 0x0 DUP2 SWAP1 MSTORE PUSH1 0xE PUSH1 0x20 MSTORE PUSH32 0xA7C5BA7114A813B50159ADD3A36832908DC83DB71D0B9A24C2AD0F83BE958207 DUP1 SLOAD SWAP1 SWAP2 PUSH1 0xFF NOT SWAP1 SWAP2 AND SWAP1 DUP4 PUSH1 0x3 DUP2 GT ISZERO PUSH2 0x12B5 JUMPI PUSH4 0x4E487B71 PUSH1 0xE0 SHL PUSH1 0x0 MSTORE PUSH1 0x21 PUSH1 0x4 MSTORE PUSH1 0x24 PUSH1 0x0 REVERT JUMPDEST MUL OR SWAP1 SSTORE POP DUP2 PUSH1 0xFF AND PUSH1 0x3 DUP2 GT ISZERO PUSH2 0x12DD JUMPI PUSH4 0x4E487B71 PUSH1 0xE0 SHL PUSH1 0x0 MSTORE PUSH1 0x21 PUSH1 0x4 MSTORE PUSH1 0x24 PUSH1 0x0 REVERT JUMPDEST PUSH1 0x2 PUSH1 0x0 MSTORE PUSH1 0xE PUSH1 0x20 MSTORE PUSH32 0x9ADB202B1492743BC00C81D33CDC6423FA8C79109027EB6A845391E8FC1F0481 DUP1 SLOAD PUSH1 0xFF NOT AND PUSH1 0x1 DUP4 PUSH1 0x3 DUP2 GT ISZERO PUSH2 0x1330 JUMPI PUSH4 0x4E487B71 PUSH1 0xE0 SHL PUSH1 0x0 MSTORE PUSH1 0x21 PUSH1 0x4 MSTORE PUSH1 0x24 PUSH1 0x0 REVERT JUMPDEST MUL OR SWAP1 SSTORE POP DUP1 PUSH1 0xFF AND PUSH1 0x3 DUP2 GT ISZERO PUSH2 0x1358 JUMPI PUSH4 0x4E487B71 PUSH1 0xE0 SHL PUSH1 0x0 MSTORE PUSH1 0x21 PUSH1 0x4 MSTORE PUSH1 0x24 PUSH1 0x0 REVERT JUMPDEST PUSH1 0x3 PUSH1 0x0 DUP2 SWAP1 MSTORE PUSH1 0xE PUSH1 0x20 MSTORE PUSH32 0xE0283E559C29E31EE7F56467ACC9DD307779C843A883AEEB3BF5C6128C908144 DUP1 SLOAD SWAP1 SWAP2 PUSH1 0xFF NOT SWAP1 SWAP2 AND SWAP1 PUSH1 0x1 SWAP1 DUP5 SWAP1 DUP2 GT ISZERO PUSH2 0x13B2 JUMPI PUSH4 0x4E487B71 PUSH1 0xE0 SHL PUSH1 0x0 MSTORE PUSH1 0x21 PUSH1 0x4 MSTORE PUSH1 0x24 PUSH1 0x0 REVERT JUMPDEST MUL OR SWAP1 SSTORE POP POP PUSH1 0xC DUP1 SLOAD PUSH1 0xFF NOT AND PUSH1 0x1 OR SWAP1 SSTORE POP POP POP JUMP JUMPDEST DUP4 TIMESTAMP GT ISZERO PUSH2 0x13EA JUMPI PUSH1 0x40 MLOAD PUSH3 0x461BCD PUSH1 0xE5 SHL DUP2 MSTORE PUSH1 0x4 ADD PUSH2 0x7B5 SWAP1 PUSH2 0x2908 JUMP JUMPDEST PUSH1 0x0 PUSH2 0x13F4 PUSH2 0x8CE JUMP JUMPDEST PUSH1 0x1 PUSH1 0x1 PUSH1 0xA0 SHL SUB DUP10 AND PUSH1 0x0 SWAP1 DUP2 MSTORE PUSH1 0x9 PUSH1 0x20 SWAP1 DUP2 MSTORE PUSH1 0x40 SWAP2 DUP3 SWAP1 KECCAK256 DUP1 SLOAD PUSH1 0x1 DUP2 ADD SWAP1 SWAP2 SSTORE SWAP2 MLOAD PUSH2 0x1451 SWAP3 PUSH32 0x6E71EDAE12B1B97F4D1F60370FEF10105FA2FAAE0126114A169C64845D6126C9 SWAP3 DUP14 SWAP3 DUP14 SWAP3 DUP14 SWAP3 SWAP1 SWAP2 DUP14 SWAP2 ADD PUSH2 0x25F3 JUMP JUMPDEST PUSH1 0x40 MLOAD PUSH1 0x20 DUP2 DUP4 SUB SUB DUP2 MSTORE SWAP1 PUSH1 0x40 MSTORE DUP1 MLOAD SWAP1 PUSH1 0x20 ADD KECCAK256 PUSH1 0x40 MLOAD PUSH1 0x20 ADD PUSH2 0x1478 SWAP3 SWAP2 SWAP1 PUSH2 0x25B0 JUMP JUMPDEST PUSH1 0x40 MLOAD PUSH1 0x20 DUP2 DUP4 SUB SUB DUP2 MSTORE SWAP1 PUSH1 0x40 MSTORE DUP1 MLOAD SWAP1 PUSH1 0x20 ADD KECCAK256 SWAP1 POP PUSH1 0x0 PUSH1 0x1 DUP3 DUP7 DUP7 DUP7 PUSH1 0x40 MLOAD PUSH1 0x0 DUP2 MSTORE PUSH1 0x20 ADD PUSH1 0x40 MSTORE PUSH1 0x40 MLOAD PUSH2 0x14B5 SWAP5 SWAP4 SWAP3 SWAP2 SWAP1 PUSH2 0x2677 JUMP JUMPDEST PUSH1 0x20 PUSH1 0x40 MLOAD PUSH1 0x20 DUP2 SUB SWAP1 DUP1 DUP5 SUB SWAP1 DUP6 GAS STATICCALL ISZERO DUP1 ISZERO PUSH2 0x14D7 JUMPI RETURNDATASIZE PUSH1 0x0 DUP1 RETURNDATACOPY RETURNDATASIZE PUSH1 0x0 REVERT JUMPDEST POP POP PUSH1 0x40 MLOAD PUSH1 0x1F NOT ADD MLOAD SWAP2 POP POP PUSH1 0x1 PUSH1 0x1 PUSH1 0xA0 SHL SUB DUP2 AND ISZERO DUP1 ISZERO SWAP1 PUSH2 0x150D JUMPI POP DUP9 PUSH1 0x1 PUSH1 0x1 PUSH1 0xA0 SHL SUB AND DUP2 PUSH1 0x1 PUSH1 0x1 PUSH1 0xA0 SHL SUB AND EQ JUMPDEST PUSH2 0x1529 JUMPI PUSH1 0x40 MLOAD PUSH3 0x461BCD PUSH1 0xE5 SHL DUP2 MSTORE PUSH1 0x4 ADD PUSH2 0x7B5 SWAP1 PUSH2 0x27DF JUMP JUMPDEST PUSH1 0x1 PUSH1 0x1 PUSH1 0xA0 SHL SUB SWAP1 DUP2 AND PUSH1 0x0 SWAP1 DUP2 MSTORE PUSH1 0x4 PUSH1 0x20 SWAP1 DUP2 MSTORE PUSH1 0x40 DUP1 DUP4 KECCAK256 DUP12 DUP6 AND DUP1 DUP6 MSTORE SWAP3 MSTORE SWAP2 DUP3 SWAP1 KECCAK256 DUP10 SWAP1 SSTORE SWAP1 MLOAD SWAP1 SWAP3 POP SWAP1 DUP10 AND SWAP1 PUSH32 0x8C5BE1E5EBEC7D5BD14F71427D1E84F3DD0314C0F7B2291E5B200AC8C7C3B925 SWAP1 PUSH2 0x158A SWAP1 DUP10 SWAP1 PUSH2 0x25EA JUMP JUMPDEST PUSH1 0x40 MLOAD DUP1 SWAP2 SUB SWAP1 LOG3 POP POP POP POP POP POP POP JUMP JUMPDEST PUSH1 0xA SLOAD DUP2 JUMP JUMPDEST PUSH1 0x4 PUSH1 0x20 SWAP1 DUP2 MSTORE PUSH1 0x0 SWAP3 DUP4 MSTORE PUSH1 0x40 DUP1 DUP5 KECCAK256 SWAP1 SWAP2 MSTORE SWAP1 DUP3 MSTORE SWAP1 KECCAK256 SLOAD DUP2 JUMP JUMPDEST PUSH1 0x0 DUP2 DUP2 MSTORE PUSH1 0xD PUSH1 0x20 MSTORE PUSH1 0x40 DUP2 KECCAK256 DUP1 SLOAD DUP3 SWAP1 PUSH1 0xE SWAP1 DUP3 SWAP1 PUSH1 0xFF AND PUSH1 0x3 DUP2 GT ISZERO PUSH2 0x15F7 JUMPI PUSH4 0x4E487B71 PUSH1 0xE0 SHL PUSH1 0x0 MSTORE PUSH1 0x21 PUSH1 0x4 MSTORE PUSH1 0x24 PUSH1 0x0 REVERT JUMPDEST PUSH1 0x3 DUP2 GT ISZERO PUSH2 0x1616 JUMPI PUSH4 0x4E487B71 PUSH1 0xE0 SHL PUSH1 0x0 MSTORE PUSH1 0x21 PUSH1 0x4 MSTORE PUSH1 0x24 PUSH1 0x0 REVERT JUMPDEST DUP2 MSTORE PUSH1 0x20 ADD SWAP1 DUP2 MSTORE PUSH1 0x20 ADD PUSH1 0x0 KECCAK256 PUSH1 0x0 SWAP1 SLOAD SWAP1 PUSH2 0x100 EXP SWAP1 DIV PUSH1 0xFF AND SWAP1 POP PUSH1 0x0 PUSH2 0x1649 DUP3 DUP5 PUSH1 0x6 ADD SLOAD DUP6 PUSH1 0x7 ADD SLOAD PUSH2 0x19EE JUMP JUMPDEST SWAP1 POP DUP1 ISZERO PUSH2 0x17DE JUMPI PUSH1 0x0 DUP4 SLOAD PUSH1 0xFF AND PUSH1 0x3 DUP2 GT ISZERO PUSH2 0x1677 JUMPI PUSH4 0x4E487B71 PUSH1 0xE0 SHL PUSH1 0x0 MSTORE PUSH1 0x21 PUSH1 0x4 MSTORE PUSH1 0x24 PUSH1 0x0 REVERT JUMPDEST EQ ISZERO PUSH2 0x169A JUMPI PUSH1 0x2 DUP4 ADD SLOAD PUSH1 0x4 DUP5 ADD SLOAD PUSH2 0x169A SWAP2 PUSH1 0x1 PUSH1 0x1 PUSH1 0xA0 SHL SUB AND SWAP1 PUSH2 0x1BAF JUMP JUMPDEST PUSH1 0x1 DUP4 SLOAD PUSH1 0xFF AND PUSH1 0x3 DUP2 GT ISZERO PUSH2 0x16C0 JUMPI PUSH4 0x4E487B71 PUSH1 0xE0 SHL PUSH1 0x0 MSTORE PUSH1 0x21 PUSH1 0x4 MSTORE PUSH1 0x24 PUSH1 0x0 REVERT JUMPDEST EQ ISZERO PUSH2 0x16E3 JUMPI PUSH1 0x2 DUP4 ADD SLOAD PUSH1 0x4 DUP5 ADD SLOAD PUSH2 0x16E3 SWAP2 PUSH1 0x1 PUSH1 0x1 PUSH1 0xA0 SHL SUB AND SWAP1 PUSH2 0x1C0D JUMP JUMPDEST PUSH1 0x2 DUP4 SLOAD PUSH1 0xFF AND PUSH1 0x3 DUP2 GT ISZERO PUSH2 0x1709 JUMPI PUSH4 0x4E487B71 PUSH1 0xE0 SHL PUSH1 0x0 MSTORE PUSH1 0x21 PUSH1 0x4 MSTORE PUSH1 0x24 PUSH1 0x0 REVERT JUMPDEST EQ ISZERO PUSH2 0x177E JUMPI PUSH1 0x2 DUP4 ADD SLOAD PUSH1 0x4 DUP5 ADD SLOAD PUSH1 0x40 MLOAD PUSH1 0x1 PUSH1 0x1 PUSH1 0xA0 SHL SUB SWAP1 SWAP3 AND SWAP2 PUSH2 0x1736 SWAP1 PUSH1 0x5 DUP8 ADD SWAP1 PUSH2 0x2541 JUMP JUMPDEST PUSH1 0x0 PUSH1 0x40 MLOAD DUP1 DUP4 SUB DUP2 DUP6 DUP8 GAS CALL SWAP3 POP POP POP RETURNDATASIZE DUP1 PUSH1 0x0 DUP2 EQ PUSH2 0x1773 JUMPI PUSH1 0x40 MLOAD SWAP2 POP PUSH1 0x1F NOT PUSH1 0x3F RETURNDATASIZE ADD AND DUP3 ADD PUSH1 0x40 MSTORE RETURNDATASIZE DUP3 MSTORE RETURNDATASIZE PUSH1 0x0 PUSH1 0x20 DUP5 ADD RETURNDATACOPY PUSH2 0x1778 JUMP JUMPDEST PUSH1 0x60 SWAP2 POP JUMPDEST POP SWAP1 SWAP5 POP POP JUMPDEST PUSH1 0x3 DUP4 SLOAD PUSH1 0xFF AND PUSH1 0x3 DUP2 GT ISZERO PUSH2 0x17A4 JUMPI PUSH4 0x4E487B71 PUSH1 0xE0 SHL PUSH1 0x0 MSTORE PUSH1 0x21 PUSH1 0x4 MSTORE PUSH1 0x24 PUSH1 0x0 REVERT JUMPDEST EQ ISZERO PUSH2 0x17DE JUMPI PUSH1 0x4 DUP4 ADD SLOAD ISZERO PUSH2 0x17BD JUMPI PUSH1 0x4 DUP4 ADD SLOAD PUSH1 0xB SSTORE JUMPDEST PUSH1 0x0 DUP4 PUSH1 0x5 ADD DUP1 SLOAD PUSH2 0x17CE SWAP1 PUSH2 0x29E8 JUMP JUMPDEST SWAP1 POP GT ISZERO PUSH2 0x17DE JUMPI PUSH2 0x17DE PUSH2 0x1C6F JUMP JUMPDEST PUSH1 0x0 DUP6 DUP2 MSTORE PUSH1 0xD PUSH1 0x20 MSTORE PUSH1 0x40 DUP2 KECCAK256 DUP1 SLOAD PUSH1 0xFF NOT AND DUP2 SSTORE SWAP1 PUSH2 0x1802 PUSH1 0x1 DUP4 ADD DUP3 PUSH2 0x204E JUMP JUMPDEST PUSH1 0x2 DUP3 ADD DUP1 SLOAD PUSH1 0x1 PUSH1 0x1 PUSH1 0xA0 SHL SUB NOT SWAP1 DUP2 AND SWAP1 SWAP2 SSTORE PUSH1 0x3 DUP4 ADD DUP1 SLOAD SWAP1 SWAP2 AND SWAP1 SSTORE PUSH1 0x0 PUSH1 0x4 DUP4 ADD DUP2 SWAP1 SSTORE PUSH2 0x1839 SWAP1 PUSH1 0x5 DUP5 ADD SWAP1 PUSH2 0x204E JUMP JUMPDEST POP PUSH1 0x0 PUSH1 0x6 DUP3 ADD DUP2 SWAP1 SSTORE PUSH1 0x7 DUP3 ADD DUP2 SWAP1 SSTORE PUSH1 0x8 SWAP1 SWAP2 ADD DUP2 SWAP1 SSTORE PUSH1 0x40 MLOAD DUP7 SWAP2 PUSH32 0x967A841BBA912FF281A1EC8BE3EA50D333CC6C7C3E2F41FB684FA8D96C80C52D SWAP2 LOG2 POP POP POP SWAP2 SWAP1 POP JUMP JUMPDEST PUSH32 0xE48329057BFD03D55E49B547132E39CFFD9C1820AD7B9D4C5307691425D15ADF DUP2 JUMP JUMPDEST POP PUSH4 0xF23A6E61 PUSH1 0xE0 SHL SWAP6 SWAP5 POP POP POP POP POP JUMP JUMPDEST PUSH1 0x0 PUSH32 0x8B73C3C69BB8FE3D512ECC4CF759CC79239F7B179B0FFACAA9A75D522B39400F PUSH1 0x0 PUSH1 0x40 MLOAD PUSH2 0x18EA SWAP2 SWAP1 PUSH2 0x2541 JUMP JUMPDEST PUSH1 0x40 DUP1 MLOAD SWAP2 DUP3 SWAP1 SUB DUP3 KECCAK256 DUP3 DUP3 ADD DUP3 MSTORE PUSH1 0x1 DUP4 MSTORE PUSH1 0x31 PUSH1 0xF8 SHL PUSH1 0x20 SWAP4 DUP5 ADD MSTORE SWAP1 MLOAD PUSH2 0x193B SWAP4 SWAP3 PUSH32 0xC89EFDAA54C0F20C7ADF612882DF0950F5A951637E0307CDCB4C672F298B8BC6 SWAP2 CHAINID SWAP2 ADDRESS SWAP2 ADD PUSH2 0x264B JUMP JUMPDEST PUSH1 0x40 MLOAD PUSH1 0x20 DUP2 DUP4 SUB SUB DUP2 MSTORE SWAP1 PUSH1 0x40 MSTORE DUP1 MLOAD SWAP1 PUSH1 0x20 ADD KECCAK256 SWAP1 POP SWAP1 JUMP JUMPDEST PUSH1 0x1 PUSH1 0x1 PUSH1 0xA0 SHL SUB DUP1 DUP4 AND PUSH1 0x0 SWAP1 DUP2 MSTORE PUSH1 0x6 PUSH1 0x20 SWAP1 DUP2 MSTORE PUSH1 0x40 DUP1 DUP4 KECCAK256 DUP1 SLOAD DUP7 DUP7 AND PUSH1 0x1 PUSH1 0x1 PUSH1 0xA0 SHL SUB NOT DUP3 AND OR SWAP1 SWAP2 SSTORE PUSH1 0x3 SWAP1 SWAP3 MSTORE SWAP1 SWAP2 KECCAK256 SLOAD SWAP2 AND SWAP1 PUSH2 0x199F SWAP1 DUP3 SWAP1 DUP5 SWAP1 PUSH2 0x1CB3 JUMP JUMPDEST DUP2 PUSH1 0x1 PUSH1 0x1 PUSH1 0xA0 SHL SUB AND DUP2 PUSH1 0x1 PUSH1 0x1 PUSH1 0xA0 SHL SUB AND DUP5 PUSH1 0x1 PUSH1 0x1 PUSH1 0xA0 SHL SUB AND PUSH32 0x3134E8A2E6D97E929A7E54011EA5485D7D196DD5F0BA4D4EF95803E8E3FC257F PUSH1 0x40 MLOAD PUSH1 0x40 MLOAD DUP1 SWAP2 SUB SWAP1 LOG4 POP POP POP JUMP JUMPDEST PUSH1 0x0 PUSH1 0x1 DUP5 PUSH1 0x3 DUP2 GT ISZERO PUSH2 0x1A12 JUMPI PUSH4 0x4E487B71 PUSH1 0xE0 SHL PUSH1 0x0 MSTORE PUSH1 0x21 PUSH1 0x4 MSTORE PUSH1 0x24 PUSH1 0x0 REVERT JUMPDEST EQ DUP1 PUSH2 0x1A3D JUMPI POP PUSH1 0x3 DUP5 PUSH1 0x3 DUP2 GT ISZERO PUSH2 0x1A3B JUMPI PUSH4 0x4E487B71 PUSH1 0xE0 SHL PUSH1 0x0 MSTORE PUSH1 0x21 PUSH1 0x4 MSTORE PUSH1 0x24 PUSH1 0x0 REVERT JUMPDEST EQ JUMPDEST ISZERO PUSH2 0x1AA6 JUMPI PUSH1 0x0 PUSH1 0x64 PUSH32 0x0 PUSH1 0x2 SLOAD PUSH2 0x1A74 SWAP2 SWAP1 PUSH2 0x29B2 JUMP JUMPDEST PUSH2 0x1A7E SWAP2 SWAP1 PUSH2 0x2992 JUMP JUMPDEST SWAP1 POP DUP4 DUP4 ADD DUP2 DUP2 LT ISZERO PUSH2 0x1AA3 JUMPI PUSH1 0x40 MLOAD PUSH3 0x461BCD PUSH1 0xE5 SHL DUP2 MSTORE PUSH1 0x4 ADD PUSH2 0x7B5 SWAP1 PUSH2 0x288E JUMP JUMPDEST POP POP JUMPDEST PUSH1 0x0 DUP5 PUSH1 0x3 DUP2 GT ISZERO PUSH2 0x1AC8 JUMPI PUSH4 0x4E487B71 PUSH1 0xE0 SHL PUSH1 0x0 MSTORE PUSH1 0x21 PUSH1 0x4 MSTORE PUSH1 0x24 PUSH1 0x0 REVERT JUMPDEST EQ DUP1 PUSH2 0x1AF3 JUMPI POP PUSH1 0x1 DUP5 PUSH1 0x3 DUP2 GT ISZERO PUSH2 0x1AF1 JUMPI PUSH4 0x4E487B71 PUSH1 0xE0 SHL PUSH1 0x0 MSTORE PUSH1 0x21 PUSH1 0x4 MSTORE PUSH1 0x24 PUSH1 0x0 REVERT JUMPDEST EQ JUMPDEST ISZERO PUSH2 0x1B04 JUMPI DUP2 DUP4 GT ISZERO PUSH2 0x1B04 JUMPI POP PUSH1 0x1 JUMPDEST PUSH1 0x2 DUP5 PUSH1 0x3 DUP2 GT ISZERO PUSH2 0x1B26 JUMPI PUSH4 0x4E487B71 PUSH1 0xE0 SHL PUSH1 0x0 MSTORE PUSH1 0x21 PUSH1 0x4 MSTORE PUSH1 0x24 PUSH1 0x0 REVERT JUMPDEST EQ DUP1 PUSH2 0x1B51 JUMPI POP PUSH1 0x3 DUP5 PUSH1 0x3 DUP2 GT ISZERO PUSH2 0x1B4F JUMPI PUSH4 0x4E487B71 PUSH1 0xE0 SHL PUSH1 0x0 MSTORE PUSH1 0x21 PUSH1 0x4 MSTORE PUSH1 0x24 PUSH1 0x0 REVERT JUMPDEST EQ JUMPDEST ISZERO PUSH2 0x89E JUMPI PUSH1 0x0 PUSH1 0x64 PUSH32 0x0 PUSH2 0x1B85 DUP6 DUP8 PUSH2 0x297A JUMP JUMPDEST PUSH2 0x1B8F SWAP2 SWAP1 PUSH2 0x29B2 JUMP JUMPDEST PUSH2 0x1B99 SWAP2 SWAP1 PUSH2 0x2992 JUMP JUMPDEST SWAP1 POP DUP1 DUP5 LT PUSH2 0x1BA7 JUMPI PUSH1 0x1 SWAP2 POP JUMPDEST POP SWAP4 SWAP3 POP POP POP JUMP JUMPDEST DUP1 PUSH1 0x2 PUSH1 0x0 DUP3 DUP3 SLOAD PUSH2 0x1BC1 SWAP2 SWAP1 PUSH2 0x297A JUMP JUMPDEST SWAP1 SWAP2 SSTORE POP POP PUSH1 0x1 PUSH1 0x1 PUSH1 0xA0 SHL SUB DUP3 AND PUSH1 0x0 DUP2 DUP2 MSTORE PUSH1 0x3 PUSH1 0x20 MSTORE PUSH1 0x40 DUP1 DUP3 KECCAK256 DUP1 SLOAD DUP6 ADD SWAP1 SSTORE MLOAD PUSH1 0x0 DUP1 MLOAD PUSH1 0x20 PUSH2 0x2A58 DUP4 CODECOPY DUP2 MLOAD SWAP2 MSTORE SWAP1 PUSH2 0x1C01 SWAP1 DUP6 SWAP1 PUSH2 0x25EA JUMP JUMPDEST PUSH1 0x40 MLOAD DUP1 SWAP2 SUB SWAP1 LOG3 POP POP JUMP JUMPDEST PUSH1 0x1 PUSH1 0x1 PUSH1 0xA0 SHL SUB DUP3 AND PUSH1 0x0 SWAP1 DUP2 MSTORE PUSH1 0x3 PUSH1 0x20 MSTORE PUSH1 0x40 DUP2 KECCAK256 DUP1 SLOAD DUP4 SWAP3 SWAP1 PUSH2 0x1C35 SWAP1 DUP5 SWAP1 PUSH2 0x29D1 JUMP JUMPDEST SWAP1 SWAP2 SSTORE POP POP PUSH1 0x2 DUP1 SLOAD DUP3 SWAP1 SUB SWAP1 SSTORE PUSH1 0x40 MLOAD PUSH1 0x0 SWAP1 PUSH1 0x1 PUSH1 0x1 PUSH1 0xA0 SHL SUB DUP5 AND SWAP1 PUSH1 0x0 DUP1 MLOAD PUSH1 0x20 PUSH2 0x2A58 DUP4 CODECOPY DUP2 MLOAD SWAP2 MSTORE SWAP1 PUSH2 0x1C01 SWAP1 DUP6 SWAP1 PUSH2 0x25EA JUMP JUMPDEST PUSH1 0x5 DUP1 SLOAD PUSH1 0xFF NOT DUP2 AND PUSH1 0xFF SWAP2 DUP3 AND ISZERO OR SWAP2 DUP3 SWAP1 SSTORE PUSH1 0x40 MLOAD SWAP2 AND ISZERO ISZERO SWAP1 PUSH32 0xF8CEC1B05EF1FF4ED57B2AB252020E10315146C455D9D966E5EB2DBC7F327221 SWAP1 PUSH1 0x0 SWAP1 LOG2 JUMP JUMPDEST DUP2 PUSH1 0x1 PUSH1 0x1 PUSH1 0xA0 SHL SUB AND DUP4 PUSH1 0x1 PUSH1 0x1 PUSH1 0xA0 SHL SUB AND EQ ISZERO DUP1 ISZERO PUSH2 0x1CD5 JUMPI POP PUSH1 0x0 DUP2 GT JUMPDEST ISZERO PUSH2 0x1E22 JUMPI PUSH1 0x1 PUSH1 0x1 PUSH1 0xA0 SHL SUB DUP4 AND ISZERO PUSH2 0x1D7E JUMPI PUSH1 0x1 PUSH1 0x1 PUSH1 0xA0 SHL SUB DUP4 AND PUSH1 0x0 SWAP1 DUP2 MSTORE PUSH1 0x8 PUSH1 0x20 MSTORE PUSH1 0x40 DUP2 KECCAK256 SLOAD SWAP1 DUP2 PUSH2 0x1D0F JUMPI PUSH1 0x0 PUSH2 0x1D55 JUMP JUMPDEST PUSH1 0x1 PUSH1 0x1 PUSH1 0xA0 SHL SUB DUP6 AND PUSH1 0x0 SWAP1 DUP2 MSTORE PUSH1 0x7 PUSH1 0x20 MSTORE PUSH1 0x40 DUP2 KECCAK256 SWAP1 PUSH2 0x1D33 PUSH1 0x1 DUP6 PUSH2 0x29D1 JUMP JUMPDEST DUP2 MSTORE PUSH1 0x20 DUP2 ADD SWAP2 SWAP1 SWAP2 MSTORE PUSH1 0x40 ADD PUSH1 0x0 KECCAK256 SLOAD PUSH1 0x1 PUSH1 0x20 SHL SWAP1 DIV PUSH1 0x1 PUSH1 0x1 PUSH1 0xE0 SHL SUB AND JUMPDEST PUSH1 0x1 PUSH1 0x1 PUSH1 0xE0 SHL SUB AND SWAP1 POP PUSH1 0x0 PUSH2 0x1D6C DUP5 DUP4 PUSH2 0x29D1 JUMP JUMPDEST SWAP1 POP PUSH2 0x1D7A DUP7 DUP5 DUP5 DUP5 PUSH2 0x1E27 JUMP JUMPDEST POP POP POP JUMPDEST PUSH1 0x1 PUSH1 0x1 PUSH1 0xA0 SHL SUB DUP3 AND ISZERO PUSH2 0x1E22 JUMPI PUSH1 0x1 PUSH1 0x1 PUSH1 0xA0 SHL SUB DUP3 AND PUSH1 0x0 SWAP1 DUP2 MSTORE PUSH1 0x8 PUSH1 0x20 MSTORE PUSH1 0x40 DUP2 KECCAK256 SLOAD SWAP1 DUP2 PUSH2 0x1DB3 JUMPI PUSH1 0x0 PUSH2 0x1DF9 JUMP JUMPDEST PUSH1 0x1 PUSH1 0x1 PUSH1 0xA0 SHL SUB DUP5 AND PUSH1 0x0 SWAP1 DUP2 MSTORE PUSH1 0x7 PUSH1 0x20 MSTORE PUSH1 0x40 DUP2 KECCAK256 SWAP1 PUSH2 0x1DD7 PUSH1 0x1 DUP6 PUSH2 0x29D1 JUMP JUMPDEST DUP2 MSTORE PUSH1 0x20 DUP2 ADD SWAP2 SWAP1 SWAP2 MSTORE PUSH1 0x40 ADD PUSH1 0x0 KECCAK256 SLOAD PUSH1 0x1 PUSH1 0x20 SHL SWAP1 DIV PUSH1 0x1 PUSH1 0x1 PUSH1 0xE0 SHL SUB AND JUMPDEST PUSH1 0x1 PUSH1 0x1 PUSH1 0xE0 SHL SUB AND SWAP1 POP PUSH1 0x0 PUSH2 0x1E10 DUP5 DUP4 PUSH2 0x297A JUMP JUMPDEST SWAP1 POP PUSH2 0x1E1E DUP6 DUP5 DUP5 DUP5 PUSH2 0x1E27 JUMP JUMPDEST POP POP POP JUMPDEST POP POP POP JUMP JUMPDEST PUSH1 0x0 DUP4 GT DUP1 ISZERO PUSH2 0x1E63 JUMPI POP PUSH1 0x1 PUSH1 0x1 PUSH1 0xA0 SHL SUB DUP5 AND PUSH1 0x0 SWAP1 DUP2 MSTORE PUSH1 0x7 PUSH1 0x20 SWAP1 DUP2 MSTORE PUSH1 0x40 DUP1 DUP4 KECCAK256 PUSH1 0x0 NOT DUP8 ADD DUP5 MSTORE SWAP1 SWAP2 MSTORE SWAP1 KECCAK256 SLOAD PUSH4 0xFFFFFFFF AND TIMESTAMP EQ JUMPDEST ISZERO PUSH2 0x1EBF JUMPI PUSH2 0x1E71 DUP2 PUSH2 0x1FA1 JUMP JUMPDEST PUSH1 0x1 PUSH1 0x1 PUSH1 0xA0 SHL SUB DUP6 AND PUSH1 0x0 SWAP1 DUP2 MSTORE PUSH1 0x7 PUSH1 0x20 SWAP1 DUP2 MSTORE PUSH1 0x40 DUP1 DUP4 KECCAK256 PUSH1 0x0 NOT DUP9 ADD DUP5 MSTORE SWAP1 SWAP2 MSTORE SWAP1 KECCAK256 DUP1 SLOAD PUSH1 0x1 PUSH1 0x1 PUSH1 0xE0 SHL SUB SWAP3 SWAP1 SWAP3 AND PUSH1 0x1 PUSH1 0x20 SHL MUL PUSH4 0xFFFFFFFF SWAP1 SWAP3 AND SWAP2 SWAP1 SWAP2 OR SWAP1 SSTORE PUSH2 0x1F58 JUMP JUMPDEST PUSH1 0x40 MLOAD DUP1 PUSH1 0x40 ADD PUSH1 0x40 MSTORE DUP1 PUSH2 0x1ED3 TIMESTAMP PUSH2 0x1FBB JUMP JUMPDEST PUSH4 0xFFFFFFFF AND DUP2 MSTORE PUSH1 0x20 ADD PUSH2 0x1EE7 DUP4 PUSH2 0x1FA1 JUMP JUMPDEST PUSH1 0x1 PUSH1 0x1 PUSH1 0xE0 SHL SUB SWAP1 DUP2 AND SWAP1 SWAP2 MSTORE PUSH1 0x1 PUSH1 0x1 PUSH1 0xA0 SHL SUB DUP7 AND PUSH1 0x0 DUP2 DUP2 MSTORE PUSH1 0x7 PUSH1 0x20 SWAP1 DUP2 MSTORE PUSH1 0x40 DUP1 DUP4 KECCAK256 DUP10 DUP5 MSTORE DUP3 MSTORE DUP1 DUP4 KECCAK256 DUP7 MLOAD DUP2 SLOAD SWAP8 DUP5 ADD MLOAD SWAP1 SWAP7 AND PUSH1 0x1 PUSH1 0x20 SHL MUL PUSH4 0xFFFFFFFF SWAP7 DUP8 AND PUSH4 0xFFFFFFFF NOT SWAP1 SWAP9 AND SWAP8 SWAP1 SWAP8 OR SWAP1 SWAP6 AND SWAP6 SWAP1 SWAP6 OR SWAP1 SWAP4 SSTORE SWAP1 DUP2 MSTORE PUSH1 0x8 SWAP1 SWAP2 MSTORE KECCAK256 PUSH1 0x1 DUP5 ADD SWAP1 SSTORE JUMPDEST DUP4 PUSH1 0x1 PUSH1 0x1 PUSH1 0xA0 SHL SUB AND PUSH32 0xDEC2BACDD2F05B59DE34DA9B523DFF8BE42E5E38E818C82FDB0BAE774387A724 DUP4 DUP4 PUSH1 0x40 MLOAD PUSH2 0x1F93 SWAP3 SWAP2 SWAP1 PUSH2 0x293F JUMP JUMPDEST PUSH1 0x40 MLOAD DUP1 SWAP2 SUB SWAP1 LOG2 POP POP POP POP JUMP JUMPDEST PUSH1 0x0 PUSH1 0x1 PUSH1 0x1 PUSH1 0xE0 SHL SUB DUP3 GT ISZERO PUSH2 0x1FB7 JUMPI PUSH1 0x0 DUP1 REVERT JUMPDEST POP SWAP1 JUMP JUMPDEST PUSH1 0x0 PUSH4 0xFFFFFFFF DUP3 GT ISZERO PUSH2 0x1FB7 JUMPI PUSH1 0x0 DUP1 REVERT JUMPDEST DUP3 DUP1 SLOAD PUSH2 0x1FDA SWAP1 PUSH2 0x29E8 JUMP JUMPDEST SWAP1 PUSH1 0x0 MSTORE PUSH1 0x20 PUSH1 0x0 KECCAK256 SWAP1 PUSH1 0x1F ADD PUSH1 0x20 SWAP1 DIV DUP2 ADD SWAP3 DUP3 PUSH2 0x1FFC JUMPI PUSH1 0x0 DUP6 SSTORE PUSH2 0x2042 JUMP JUMPDEST DUP3 PUSH1 0x1F LT PUSH2 0x2015 JUMPI DUP1 MLOAD PUSH1 0xFF NOT AND DUP4 DUP1 ADD OR DUP6 SSTORE PUSH2 0x2042 JUMP JUMPDEST DUP3 DUP1 ADD PUSH1 0x1 ADD DUP6 SSTORE DUP3 ISZERO PUSH2 0x2042 JUMPI SWAP2 DUP3 ADD JUMPDEST DUP3 DUP2 GT ISZERO PUSH2 0x2042 JUMPI DUP3 MLOAD DUP3 SSTORE SWAP2 PUSH1 0x20 ADD SWAP2 SWAP1 PUSH1 0x1 ADD SWAP1 PUSH2 0x2027 JUMP JUMPDEST POP PUSH2 0x1FB7 SWAP3 SWAP2 POP PUSH2 0x2086 JUMP JUMPDEST POP DUP1 SLOAD PUSH2 0x205A SWAP1 PUSH2 0x29E8 JUMP JUMPDEST PUSH1 0x0 DUP3 SSTORE DUP1 PUSH1 0x1F LT PUSH2 0x206C JUMPI POP PUSH2 0x970 JUMP JUMPDEST PUSH1 0x1F ADD PUSH1 0x20 SWAP1 DIV SWAP1 PUSH1 0x0 MSTORE PUSH1 0x20 PUSH1 0x0 KECCAK256 SWAP1 DUP2 ADD SWAP1 PUSH2 0x970 SWAP2 SWAP1 JUMPDEST JUMPDEST DUP1 DUP3 GT ISZERO PUSH2 0x1FB7 JUMPI PUSH1 0x0 DUP2 SSTORE PUSH1 0x1 ADD PUSH2 0x2087 JUMP JUMPDEST DUP1 CALLDATALOAD PUSH1 0x1 PUSH1 0x1 PUSH1 0xA0 SHL SUB DUP2 AND DUP2 EQ PUSH2 0x20B2 JUMPI PUSH1 0x0 DUP1 REVERT JUMPDEST SWAP2 SWAP1 POP JUMP JUMPDEST PUSH1 0x0 DUP1 DUP4 PUSH1 0x1F DUP5 ADD SLT PUSH2 0x20C8 JUMPI DUP2 DUP3 REVERT JUMPDEST POP DUP2 CALLDATALOAD PUSH8 0xFFFFFFFFFFFFFFFF DUP2 GT ISZERO PUSH2 0x20DF JUMPI DUP2 DUP3 REVERT JUMPDEST PUSH1 0x20 DUP4 ADD SWAP2 POP DUP4 PUSH1 0x20 DUP3 DUP6 ADD ADD GT ISZERO PUSH2 0x20F7 JUMPI PUSH1 0x0 DUP1 REVERT JUMPDEST SWAP3 POP SWAP3 SWAP1 POP JUMP JUMPDEST DUP1 CALLDATALOAD PUSH1 0x4 DUP2 LT PUSH2 0x20B2 JUMPI PUSH1 0x0 DUP1 REVERT JUMPDEST DUP1 CALLDATALOAD PUSH1 0xFF DUP2 AND DUP2 EQ PUSH2 0x20B2 JUMPI PUSH1 0x0 DUP1 REVERT JUMPDEST PUSH1 0x0 PUSH1 0x20 DUP3 DUP5 SUB SLT ISZERO PUSH2 0x212F JUMPI DUP1 DUP2 REVERT JUMPDEST PUSH2 0x89E DUP3 PUSH2 0x209B JUMP JUMPDEST PUSH1 0x0 DUP1 PUSH1 0x40 DUP4 DUP6 SUB SLT ISZERO PUSH2 0x214A JUMPI DUP1 DUP2 REVERT JUMPDEST PUSH2 0x2153 DUP4 PUSH2 0x209B JUMP JUMPDEST SWAP2 POP PUSH2 0x2161 PUSH1 0x20 DUP5 ADD PUSH2 0x209B JUMP JUMPDEST SWAP1 POP SWAP3 POP SWAP3 SWAP1 POP JUMP JUMPDEST PUSH1 0x0 DUP1 PUSH1 0x0 PUSH1 0x60 DUP5 DUP7 SUB SLT ISZERO PUSH2 0x217E JUMPI DUP1 DUP2 REVERT JUMPDEST PUSH2 0x2187 DUP5 PUSH2 0x209B JUMP JUMPDEST SWAP3 POP PUSH2 0x2195 PUSH1 0x20 DUP6 ADD PUSH2 0x209B JUMP JUMPDEST SWAP2 POP PUSH1 0x40 DUP5 ADD CALLDATALOAD SWAP1 POP SWAP3 POP SWAP3 POP SWAP3 JUMP JUMPDEST PUSH1 0x0 DUP1 PUSH1 0x0 DUP1 PUSH1 0x0 PUSH1 0x80 DUP7 DUP9 SUB SLT ISZERO PUSH2 0x21BC JUMPI DUP1 DUP2 REVERT JUMPDEST PUSH2 0x21C5 DUP7 PUSH2 0x209B JUMP JUMPDEST SWAP5 POP PUSH2 0x21D3 PUSH1 0x20 DUP8 ADD PUSH2 0x209B JUMP JUMPDEST SWAP4 POP PUSH1 0x40 DUP7 ADD CALLDATALOAD SWAP3 POP PUSH1 0x60 DUP7 ADD CALLDATALOAD PUSH8 0xFFFFFFFFFFFFFFFF DUP2 GT ISZERO PUSH2 0x21F5 JUMPI DUP2 DUP3 REVERT JUMPDEST PUSH2 0x2201 DUP9 DUP3 DUP10 ADD PUSH2 0x20B7 JUMP JUMPDEST SWAP7 SWAP10 SWAP6 SWAP9 POP SWAP4 SWAP7 POP SWAP3 SWAP5 SWAP4 SWAP3 POP POP POP JUMP JUMPDEST PUSH1 0x0 DUP1 PUSH1 0x0 DUP1 PUSH1 0x0 DUP1 PUSH1 0xA0 DUP8 DUP10 SUB SLT ISZERO PUSH2 0x222A JUMPI DUP1 DUP2 REVERT JUMPDEST PUSH2 0x2233 DUP8 PUSH2 0x209B JUMP JUMPDEST SWAP6 POP PUSH2 0x2241 PUSH1 0x20 DUP9 ADD PUSH2 0x209B JUMP JUMPDEST SWAP5 POP PUSH1 0x40 DUP8 ADD CALLDATALOAD SWAP4 POP PUSH1 0x60 DUP8 ADD CALLDATALOAD SWAP3 POP PUSH1 0x80 DUP8 ADD CALLDATALOAD PUSH8 0xFFFFFFFFFFFFFFFF DUP2 GT ISZERO PUSH2 0x226A JUMPI DUP2 DUP3 REVERT JUMPDEST PUSH2 0x2276 DUP10 DUP3 DUP11 ADD PUSH2 0x20B7 JUMP JUMPDEST SWAP8 SWAP11 SWAP7 SWAP10 POP SWAP5 SWAP8 POP SWAP3 SWAP6 SWAP4 SWAP5 SWAP3 POP POP POP JUMP JUMPDEST PUSH1 0x0 DUP1 PUSH1 0x0 DUP1 PUSH1 0x0 DUP1 PUSH1 0x0 PUSH1 0xE0 DUP9 DUP11 SUB SLT ISZERO PUSH2 0x22A2 JUMPI DUP1 DUP2 REVERT JUMPDEST PUSH2 0x22AB DUP9 PUSH2 0x209B JUMP JUMPDEST SWAP7 POP PUSH2 0x22B9 PUSH1 0x20 DUP10 ADD PUSH2 0x209B JUMP JUMPDEST SWAP6 POP PUSH1 0x40 DUP9 ADD CALLDATALOAD SWAP5 POP PUSH1 0x60 DUP9 ADD CALLDATALOAD SWAP4 POP PUSH2 0x22D5 PUSH1 0x80 DUP10 ADD PUSH2 0x210D JUMP JUMPDEST SWAP3 POP PUSH1 0xA0 DUP9 ADD CALLDATALOAD SWAP2 POP PUSH1 0xC0 DUP9 ADD CALLDATALOAD SWAP1 POP SWAP3 SWAP6 SWAP9 SWAP2 SWAP5 SWAP8 POP SWAP3 SWAP6 POP JUMP JUMPDEST PUSH1 0x0 DUP1 PUSH1 0x40 DUP4 DUP6 SUB SLT ISZERO PUSH2 0x2303 JUMPI DUP2 DUP3 REVERT JUMPDEST PUSH2 0x230C DUP4 PUSH2 0x209B JUMP JUMPDEST SWAP5 PUSH1 0x20 SWAP4 SWAP1 SWAP4 ADD CALLDATALOAD SWAP4 POP POP POP JUMP JUMPDEST PUSH1 0x0 DUP1 PUSH1 0x0 DUP1 PUSH1 0x0 DUP1 PUSH1 0xC0 DUP8 DUP10 SUB SLT ISZERO PUSH2 0x2332 JUMPI DUP2 DUP3 REVERT JUMPDEST PUSH2 0x233B DUP8 PUSH2 0x209B JUMP JUMPDEST SWAP6 POP PUSH1 0x20 DUP8 ADD CALLDATALOAD SWAP5 POP PUSH1 0x40 DUP8 ADD CALLDATALOAD SWAP4 POP PUSH2 0x2357 PUSH1 0x60 DUP9 ADD PUSH2 0x210D JUMP JUMPDEST SWAP3 POP PUSH1 0x80 DUP8 ADD CALLDATALOAD SWAP2 POP PUSH1 0xA0 DUP8 ADD CALLDATALOAD SWAP1 POP SWAP3 SWAP6 POP SWAP3 SWAP6 POP SWAP3 SWAP6 JUMP JUMPDEST PUSH1 0x0 PUSH1 0x20 DUP3 DUP5 SUB SLT ISZERO PUSH2 0x2382 JUMPI DUP1 DUP2 REVERT JUMPDEST PUSH2 0x89E DUP3 PUSH2 0x20FE JUMP JUMPDEST PUSH1 0x0 DUP1 PUSH1 0x0 DUP1 PUSH1 0x0 DUP1 PUSH1 0x0 DUP1 PUSH1 0xC0 DUP10 DUP12 SUB SLT ISZERO PUSH2 0x23A6 JUMPI DUP2 DUP3 REVERT JUMPDEST PUSH2 0x23AF DUP10 PUSH2 0x20FE JUMP JUMPDEST SWAP8 POP PUSH1 0x20 DUP10 ADD CALLDATALOAD PUSH8 0xFFFFFFFFFFFFFFFF DUP1 DUP3 GT ISZERO PUSH2 0x23CB JUMPI DUP4 DUP5 REVERT JUMPDEST PUSH2 0x23D7 DUP13 DUP4 DUP14 ADD PUSH2 0x20B7 JUMP JUMPDEST SWAP1 SWAP10 POP SWAP8 POP DUP8 SWAP2 POP PUSH2 0x23EB PUSH1 0x40 DUP13 ADD PUSH2 0x209B JUMP JUMPDEST SWAP7 POP PUSH2 0x23F9 PUSH1 0x60 DUP13 ADD PUSH2 0x209B JUMP JUMPDEST SWAP6 POP PUSH1 0x80 DUP12 ADD CALLDATALOAD SWAP5 POP PUSH1 0xA0 DUP12 ADD CALLDATALOAD SWAP2 POP DUP1 DUP3 GT ISZERO PUSH2 0x2415 JUMPI DUP4 DUP5 REVERT JUMPDEST POP PUSH2 0x2422 DUP12 DUP3 DUP13 ADD PUSH2 0x20B7 JUMP JUMPDEST SWAP10 SWAP13 SWAP9 SWAP12 POP SWAP7 SWAP10 POP SWAP5 SWAP8 SWAP4 SWAP7 SWAP3 SWAP6 SWAP5 POP POP POP JUMP JUMPDEST PUSH1 0x0 PUSH1 0x20 DUP3 DUP5 SUB SLT ISZERO PUSH2 0x2447 JUMPI DUP1 DUP2 REVERT JUMPDEST POP CALLDATALOAD SWAP2 SWAP1 POP JUMP JUMPDEST PUSH1 0x0 DUP1 PUSH1 0x40 DUP4 DUP6 SUB SLT ISZERO PUSH2 0x2460 JUMPI DUP2 DUP3 REVERT JUMPDEST DUP3 CALLDATALOAD SWAP2 POP PUSH2 0x2161 PUSH1 0x20 DUP5 ADD PUSH2 0x209B JUMP JUMPDEST PUSH1 0x0 DUP1 PUSH1 0x40 DUP4 DUP6 SUB SLT ISZERO PUSH2 0x2482 JUMPI DUP2 DUP3 REVERT JUMPDEST DUP3 CALLDATALOAD SWAP2 POP PUSH1 0x20 DUP4 ADD CALLDATALOAD DUP1 ISZERO ISZERO DUP2 EQ PUSH2 0x2498 JUMPI DUP2 DUP3 REVERT JUMPDEST DUP1 SWAP2 POP POP SWAP3 POP SWAP3 SWAP1 POP JUMP JUMPDEST PUSH1 0x0 DUP1 PUSH1 0x0 DUP1 PUSH1 0x80 DUP6 DUP8 SUB SLT ISZERO PUSH2 0x24B8 JUMPI DUP2 DUP3 REVERT JUMPDEST PUSH2 0x24C1 DUP6 PUSH2 0x210D JUMP JUMPDEST SWAP4 POP PUSH2 0x24CF PUSH1 0x20 DUP7 ADD PUSH2 0x210D JUMP JUMPDEST SWAP3 POP PUSH2 0x24DD PUSH1 0x40 DUP7 ADD PUSH2 0x210D JUMP JUMPDEST SWAP2 POP PUSH2 0x24EB PUSH1 0x60 DUP7 ADD PUSH2 0x210D JUMP JUMPDEST SWAP1 POP SWAP3 SWAP6 SWAP2 SWAP5 POP SWAP3 POP JUMP JUMPDEST PUSH1 0x0 DUP2 MLOAD DUP1 DUP5 MSTORE DUP2 JUMPDEST DUP2 DUP2 LT ISZERO PUSH2 0x251B JUMPI PUSH1 0x20 DUP2 DUP6 ADD DUP2 ADD MLOAD DUP7 DUP4 ADD DUP3 ADD MSTORE ADD PUSH2 0x24FF JUMP JUMPDEST DUP2 DUP2 GT ISZERO PUSH2 0x252C JUMPI DUP3 PUSH1 0x20 DUP4 DUP8 ADD ADD MSTORE JUMPDEST POP PUSH1 0x1F ADD PUSH1 0x1F NOT AND SWAP3 SWAP1 SWAP3 ADD PUSH1 0x20 ADD SWAP3 SWAP2 POP POP JUMP JUMPDEST PUSH1 0x0 DUP1 DUP4 SLOAD PUSH2 0x254F DUP2 PUSH2 0x29E8 JUMP JUMPDEST PUSH1 0x1 DUP3 DUP2 AND DUP1 ISZERO PUSH2 0x2567 JUMPI PUSH1 0x1 DUP2 EQ PUSH2 0x2578 JUMPI PUSH2 0x25A4 JUMP JUMPDEST PUSH1 0xFF NOT DUP5 AND DUP8 MSTORE DUP3 DUP8 ADD SWAP5 POP PUSH2 0x25A4 JUMP JUMPDEST DUP8 DUP7 MSTORE PUSH1 0x20 DUP1 DUP8 KECCAK256 DUP8 JUMPDEST DUP6 DUP2 LT ISZERO PUSH2 0x259B JUMPI DUP2 SLOAD DUP11 DUP3 ADD MSTORE SWAP1 DUP5 ADD SWAP1 DUP3 ADD PUSH2 0x2582 JUMP JUMPDEST POP POP POP DUP3 DUP8 ADD SWAP5 POP JUMPDEST POP SWAP3 SWAP7 SWAP6 POP POP POP POP POP POP JUMP JUMPDEST PUSH2 0x1901 PUSH1 0xF0 SHL DUP2 MSTORE PUSH1 0x2 DUP2 ADD SWAP3 SWAP1 SWAP3 MSTORE PUSH1 0x22 DUP3 ADD MSTORE PUSH1 0x42 ADD SWAP1 JUMP JUMPDEST PUSH1 0x1 PUSH1 0x1 PUSH1 0xA0 SHL SUB SWAP2 SWAP1 SWAP2 AND DUP2 MSTORE PUSH1 0x20 ADD SWAP1 JUMP JUMPDEST SWAP1 ISZERO ISZERO DUP2 MSTORE PUSH1 0x20 ADD SWAP1 JUMP JUMPDEST SWAP1 DUP2 MSTORE PUSH1 0x20 ADD SWAP1 JUMP JUMPDEST SWAP6 DUP7 MSTORE PUSH1 0x1 PUSH1 0x1 PUSH1 0xA0 SHL SUB SWAP5 DUP6 AND PUSH1 0x20 DUP8 ADD MSTORE SWAP3 SWAP1 SWAP4 AND PUSH1 0x40 DUP6 ADD MSTORE PUSH1 0x60 DUP5 ADD MSTORE PUSH1 0x80 DUP4 ADD SWAP2 SWAP1 SWAP2 MSTORE PUSH1 0xA0 DUP3 ADD MSTORE PUSH1 0xC0 ADD SWAP1 JUMP JUMPDEST SWAP4 DUP5 MSTORE PUSH1 0x1 PUSH1 0x1 PUSH1 0xA0 SHL SUB SWAP3 SWAP1 SWAP3 AND PUSH1 0x20 DUP5 ADD MSTORE PUSH1 0x40 DUP4 ADD MSTORE PUSH1 0x60 DUP3 ADD MSTORE PUSH1 0x80 ADD SWAP1 JUMP JUMPDEST SWAP5 DUP6 MSTORE PUSH1 0x20 DUP6 ADD SWAP4 SWAP1 SWAP4 MSTORE PUSH1 0x40 DUP5 ADD SWAP2 SWAP1 SWAP2 MSTORE PUSH1 0x60 DUP4 ADD MSTORE PUSH1 0x1 PUSH1 0x1 PUSH1 0xA0 SHL SUB AND PUSH1 0x80 DUP3 ADD MSTORE PUSH1 0xA0 ADD SWAP1 JUMP JUMPDEST SWAP4 DUP5 MSTORE PUSH1 0xFF SWAP3 SWAP1 SWAP3 AND PUSH1 0x20 DUP5 ADD MSTORE PUSH1 0x40 DUP4 ADD MSTORE PUSH1 0x60 DUP3 ADD MSTORE PUSH1 0x80 ADD SWAP1 JUMP JUMPDEST PUSH1 0x1 PUSH1 0x1 PUSH1 0xE0 SHL SUB NOT SWAP2 SWAP1 SWAP2 AND DUP2 MSTORE PUSH1 0x20 ADD SWAP1 JUMP JUMPDEST PUSH1 0x0 PUSH2 0x120 PUSH2 0x26B8 DUP13 PUSH2 0x2A39 JUMP JUMPDEST DUP12 DUP4 MSTORE DUP1 PUSH1 0x20 DUP5 ADD MSTORE PUSH2 0x26CD DUP2 DUP5 ADD DUP13 PUSH2 0x24F6 JUMP JUMPDEST PUSH1 0x1 PUSH1 0x1 PUSH1 0xA0 SHL SUB DUP12 DUP2 AND PUSH1 0x40 DUP7 ADD MSTORE DUP11 AND PUSH1 0x60 DUP6 ADD MSTORE PUSH1 0x80 DUP5 ADD DUP10 SWAP1 MSTORE DUP4 DUP2 SUB PUSH1 0xA0 DUP6 ADD MSTORE SWAP1 POP PUSH2 0x26FF DUP2 DUP9 PUSH2 0x24F6 JUMP JUMPDEST PUSH1 0xC0 DUP5 ADD SWAP7 SWAP1 SWAP7 MSTORE POP POP PUSH1 0xE0 DUP2 ADD SWAP3 SWAP1 SWAP3 MSTORE PUSH2 0x100 SWAP1 SWAP2 ADD MSTORE SWAP7 SWAP6 POP POP POP POP POP POP JUMP JUMPDEST PUSH1 0x20 DUP2 ADD PUSH2 0x272F DUP4 PUSH2 0x2A39 JUMP JUMPDEST SWAP2 SWAP1 MSTORE SWAP1 JUMP JUMPDEST PUSH1 0x0 PUSH1 0x20 DUP3 MSTORE PUSH2 0x89E PUSH1 0x20 DUP4 ADD DUP5 PUSH2 0x24F6 JUMP JUMPDEST PUSH1 0x20 DUP1 DUP3 MSTORE PUSH1 0x6 SWAP1 DUP3 ADD MSTORE PUSH6 0x14105554D151 PUSH1 0xD2 SHL PUSH1 0x40 DUP3 ADD MSTORE PUSH1 0x60 ADD SWAP1 JUMP JUMPDEST PUSH1 0x20 DUP1 DUP3 MSTORE PUSH1 0xB SWAP1 DUP3 ADD MSTORE PUSH11 0x1253925512505312569151 PUSH1 0xAA SHL PUSH1 0x40 DUP3 ADD MSTORE PUSH1 0x60 ADD SWAP1 JUMP JUMPDEST PUSH1 0x20 DUP1 DUP3 MSTORE PUSH1 0x12 SWAP1 DUP3 ADD MSTORE PUSH18 0x1393D517D6515517D1115511549352539151 PUSH1 0x72 SHL PUSH1 0x40 DUP3 ADD MSTORE PUSH1 0x60 ADD SWAP1 JUMP JUMPDEST PUSH1 0x20 DUP1 DUP3 MSTORE PUSH1 0xC SWAP1 DUP3 ADD MSTORE PUSH12 0x1593D5125391D7D153911151 PUSH1 0xA2 SHL PUSH1 0x40 DUP3 ADD MSTORE PUSH1 0x60 ADD SWAP1 JUMP JUMPDEST PUSH1 0x20 DUP1 DUP3 MSTORE PUSH1 0x18 SWAP1 DUP3 ADD MSTORE PUSH32 0x494E56414C49445F5045524D49545F5349474E41545552450000000000000000 PUSH1 0x40 DUP3 ADD MSTORE PUSH1 0x60 ADD SWAP1 JUMP JUMPDEST PUSH1 0x20 DUP1 DUP3 MSTORE PUSH1 0x11 SWAP1 DUP3 ADD MSTORE PUSH17 0x14D251D3905515549157D1561412549151 PUSH1 0x7A SHL PUSH1 0x40 DUP3 ADD MSTORE PUSH1 0x60 ADD SWAP1 JUMP JUMPDEST PUSH1 0x20 DUP1 DUP3 MSTORE PUSH1 0xC SWAP1 DUP3 ADD MSTORE PUSH12 0x5A45524F5F41444452455353 PUSH1 0xA0 SHL PUSH1 0x40 DUP3 ADD MSTORE PUSH1 0x60 ADD SWAP1 JUMP JUMPDEST PUSH1 0x20 DUP1 DUP3 MSTORE PUSH1 0xD SWAP1 DUP3 ADD MSTORE PUSH13 0x1053149150511657D593D51151 PUSH1 0x9A SHL PUSH1 0x40 DUP3 ADD MSTORE PUSH1 0x60 ADD SWAP1 JUMP JUMPDEST PUSH1 0x20 DUP1 DUP3 MSTORE PUSH1 0xF SWAP1 DUP3 ADD MSTORE PUSH15 0x145553D4955357D491545552549151 PUSH1 0x8A SHL PUSH1 0x40 DUP3 ADD MSTORE PUSH1 0x60 ADD SWAP1 JUMP JUMPDEST PUSH1 0x20 DUP1 DUP3 MSTORE PUSH1 0xD SWAP1 DUP3 ADD MSTORE PUSH13 0x494E56414C49445F4E4F4E4345 PUSH1 0x98 SHL PUSH1 0x40 DUP3 ADD MSTORE PUSH1 0x60 ADD SWAP1 JUMP JUMPDEST PUSH1 0x20 DUP1 DUP3 MSTORE PUSH1 0x10 SWAP1 DUP3 ADD MSTORE PUSH16 0x2727AA2FAA27A5A2A72FA427A62222A9 PUSH1 0x81 SHL PUSH1 0x40 DUP3 ADD MSTORE PUSH1 0x60 ADD SWAP1 JUMP JUMPDEST PUSH1 0x20 DUP1 DUP3 MSTORE PUSH1 0x17 SWAP1 DUP3 ADD MSTORE PUSH32 0x5045524D49545F444541444C494E455F45585049524544000000000000000000 PUSH1 0x40 DUP3 ADD MSTORE PUSH1 0x60 ADD SWAP1 JUMP JUMPDEST SWAP2 DUP3 MSTORE PUSH1 0x20 DUP3 ADD MSTORE PUSH1 0x40 ADD SWAP1 JUMP JUMPDEST PUSH4 0xFFFFFFFF SWAP3 SWAP1 SWAP3 AND DUP3 MSTORE PUSH1 0x1 PUSH1 0x1 PUSH1 0xE0 SHL SUB AND PUSH1 0x20 DUP3 ADD MSTORE PUSH1 0x40 ADD SWAP1 JUMP JUMPDEST PUSH1 0xFF SWAP2 SWAP1 SWAP2 AND DUP2 MSTORE PUSH1 0x20 ADD SWAP1 JUMP JUMPDEST PUSH1 0x0 DUP3 NOT DUP3 GT ISZERO PUSH2 0x298D JUMPI PUSH2 0x298D PUSH2 0x2A23 JUMP JUMPDEST POP ADD SWAP1 JUMP JUMPDEST PUSH1 0x0 DUP3 PUSH2 0x29AD JUMPI PUSH4 0x4E487B71 PUSH1 0xE0 SHL DUP2 MSTORE PUSH1 0x12 PUSH1 0x4 MSTORE PUSH1 0x24 DUP2 REVERT JUMPDEST POP DIV SWAP1 JUMP JUMPDEST PUSH1 0x0 DUP2 PUSH1 0x0 NOT DIV DUP4 GT DUP3 ISZERO ISZERO AND ISZERO PUSH2 0x29CC JUMPI PUSH2 0x29CC PUSH2 0x2A23 JUMP JUMPDEST POP MUL SWAP1 JUMP JUMPDEST PUSH1 0x0 DUP3 DUP3 LT ISZERO PUSH2 0x29E3 JUMPI PUSH2 0x29E3 PUSH2 0x2A23 JUMP JUMPDEST POP SUB SWAP1 JUMP JUMPDEST PUSH1 0x2 DUP2 DIV PUSH1 0x1 DUP3 AND DUP1 PUSH2 0x29FC JUMPI PUSH1 0x7F DUP3 AND SWAP2 POP JUMPDEST PUSH1 0x20 DUP3 LT DUP2 EQ ISZERO PUSH2 0x2A1D JUMPI PUSH4 0x4E487B71 PUSH1 0xE0 SHL PUSH1 0x0 MSTORE PUSH1 0x22 PUSH1 0x4 MSTORE PUSH1 0x24 PUSH1 0x0 REVERT JUMPDEST POP SWAP2 SWAP1 POP JUMP JUMPDEST PUSH4 0x4E487B71 PUSH1 0xE0 SHL PUSH1 0x0 MSTORE PUSH1 0x11 PUSH1 0x4 MSTORE PUSH1 0x24 PUSH1 0x0 REVERT JUMPDEST PUSH1 0x4 DUP2 LT PUSH2 0x970 JUMPI PUSH4 0x4E487B71 PUSH1 0xE0 SHL PUSH1 0x0 MSTORE PUSH1 0x21 PUSH1 0x4 MSTORE PUSH1 0x24 PUSH1 0x0 REVERT INVALID 0xDD CALLCODE MSTORE 0xAD SHL 0xE2 0xC8 SWAP12 PUSH10 0xC2B068FC378DAA952BA7 CALL PUSH4 0xC4A11628 CREATE2 GAS 0x4D CREATE2 0x23 0xB3 0xEF LOG2 PUSH5 0x6970667358 0x22 SLT KECCAK256 0xF9 0xE2 0xB7 0x2D 0xB9 0xD7 0xD5 0xC9 DUP14 0xC3 0xE0 0xE6 0xD6 AND DUP11 PUSH11 0x5176B1E987C60B9FEDC68F 0xEF 0xCC ISZERO 0xE3 PUSH17 0x64736F6C63430008000033A26469706673 PC 0x22 SLT KECCAK256 PUSH3 0x41FDE9 JUMPDEST 0xD3 0x2B DUP7 SWAP13 LOG0 SWAP12 0xE7 0xC3 0x5F DELEGATECALL COINBASE 0xE7 SGT DUP9 0xC3 0xD6 SWAP1 0xBE PUSH17 0x47D695AA5208972E64736F6C6343000800 STOP CALLER "
        },
        "methodIdentifiers": {
          "daoRegistry(uint256)": "20bcbc46",
          "deployDAO(string,string,bool,address[],uint256[],uint256,uint256,uint256,uint8,uint8,uint8,uint8)": "c6cd4558"
        }
      }
    }
  }
}