{
  "_format": "hh-sol-artifact-1",
  "contractName": "LiteDAOtoken",
  "sourceName": "contracts/LiteDAOtoken.sol",
  "abi": [
    {
      "inputs": [
        {
          "internalType": "string",
          "name": "name_",
          "type": "string"
        },
        {
          "internalType": "string",
          "name": "symbol_",
          "type": "string"
        },
        {
          "internalType": "bool",
          "name": "paused_",
          "type": "bool"
        },
        {
          "internalType": "address[]",
          "name": "voters",
          "type": "address[]"
        },
        {
          "internalType": "uint256[]",
          "name": "shares",
          "type": "uint256[]"
        }
      ],
      "stateMutability": "nonpayable",
      "type": "constructor"
    },
    {
      "anonymous": false,
      "inputs": [
        {
          "indexed": true,
          "internalType": "address",
          "name": "owner",
          "type": "address"
        },
        {
          "indexed": true,
          "internalType": "address",
          "name": "spender",
          "type": "address"
        },
        {
          "indexed": false,
          "internalType": "uint256",
          "name": "amount",
          "type": "uint256"
        }
      ],
      "name": "Approval",
      "type": "event"
    },
    {
      "anonymous": false,
      "inputs": [
        {
          "indexed": true,
          "internalType": "address",
          "name": "delegator",
          "type": "address"
        },
        {
          "indexed": true,
          "internalType": "address",
          "name": "fromDelegate",
          "type": "address"
        },
        {
          "indexed": true,
          "internalType": "address",
          "name": "toDelegate",
          "type": "address"
        }
      ],
      "name": "DelegateChanged",
      "type": "event"
    },
    {
      "anonymous": false,
      "inputs": [
        {
          "indexed": true,
          "internalType": "address",
          "name": "delegate",
          "type": "address"
        },
        {
          "indexed": false,
          "internalType": "uint256",
          "name": "previousBalance",
          "type": "uint256"
        },
        {
          "indexed": false,
          "internalType": "uint256",
          "name": "newBalance",
          "type": "uint256"
        }
      ],
      "name": "DelegateVotesChanged",
      "type": "event"
    },
    {
      "anonymous": false,
      "inputs": [
        {
          "indexed": true,
          "internalType": "bool",
          "name": "paused",
          "type": "bool"
        }
      ],
      "name": "TogglePause",
      "type": "event"
    },
    {
      "anonymous": false,
      "inputs": [
        {
          "indexed": true,
          "internalType": "address",
          "name": "from",
          "type": "address"
        },
        {
          "indexed": true,
          "internalType": "address",
          "name": "to",
          "type": "address"
        },
        {
          "indexed": false,
          "internalType": "uint256",
          "name": "amount",
          "type": "uint256"
        }
      ],
      "name": "Transfer",
      "type": "event"
    },
    {
      "inputs": [],
      "name": "DELEGATION_TYPEHASH",
      "outputs": [
        {
          "internalType": "bytes32",
          "name": "",
          "type": "bytes32"
        }
      ],
      "stateMutability": "view",
      "type": "function"
    },
    {
      "inputs": [],
      "name": "DOMAIN_SEPARATOR",
      "outputs": [
        {
          "internalType": "bytes32",
          "name": "domainSeparator",
          "type": "bytes32"
        }
      ],
      "stateMutability": "view",
      "type": "function"
    },
    {
      "inputs": [],
      "name": "PERMIT_TYPEHASH",
      "outputs": [
        {
          "internalType": "bytes32",
          "name": "",
          "type": "bytes32"
        }
      ],
      "stateMutability": "view",
      "type": "function"
    },
    {
      "inputs": [
        {
          "internalType": "address",
          "name": "",
          "type": "address"
        },
        {
          "internalType": "address",
          "name": "",
          "type": "address"
        }
      ],
      "name": "allowance",
      "outputs": [
        {
          "internalType": "uint256",
          "name": "",
          "type": "uint256"
        }
      ],
      "stateMutability": "view",
      "type": "function"
    },
    {
      "inputs": [
        {
          "internalType": "address",
          "name": "spender",
          "type": "address"
        },
        {
          "internalType": "uint256",
          "name": "amount",
          "type": "uint256"
        }
      ],
      "name": "approve",
      "outputs": [
        {
          "internalType": "bool",
          "name": "",
          "type": "bool"
        }
      ],
      "stateMutability": "nonpayable",
      "type": "function"
    },
    {
      "inputs": [
        {
          "internalType": "address",
          "name": "",
          "type": "address"
        }
      ],
      "name": "balanceOf",
      "outputs": [
        {
          "internalType": "uint256",
          "name": "",
          "type": "uint256"
        }
      ],
      "stateMutability": "view",
      "type": "function"
    },
    {
      "inputs": [
        {
          "internalType": "address",
          "name": "",
          "type": "address"
        },
        {
          "internalType": "uint256",
          "name": "",
          "type": "uint256"
        }
      ],
      "name": "checkpoints",
      "outputs": [
        {
          "internalType": "uint32",
          "name": "fromTimestamp",
          "type": "uint32"
        },
        {
          "internalType": "uint224",
          "name": "votes",
          "type": "uint224"
        }
      ],
      "stateMutability": "view",
      "type": "function"
    },
    {
      "inputs": [],
      "name": "decimals",
      "outputs": [
        {
          "internalType": "uint8",
          "name": "",
          "type": "uint8"
        }
      ],
      "stateMutability": "view",
      "type": "function"
    },
    {
      "inputs": [
        {
          "internalType": "address",
          "name": "delegatee",
          "type": "address"
        }
      ],
      "name": "delegate",
      "outputs": [],
      "stateMutability": "nonpayable",
      "type": "function"
    },
    {
      "inputs": [
        {
          "internalType": "address",
          "name": "delegatee",
          "type": "address"
        },
        {
          "internalType": "uint256",
          "name": "nonce",
          "type": "uint256"
        },
        {
          "internalType": "uint256",
          "name": "expiry",
          "type": "uint256"
        },
        {
          "internalType": "uint8",
          "name": "v",
          "type": "uint8"
        },
        {
          "internalType": "bytes32",
          "name": "r",
          "type": "bytes32"
        },
        {
          "internalType": "bytes32",
          "name": "s",
          "type": "bytes32"
        }
      ],
      "name": "delegateBySig",
      "outputs": [],
      "stateMutability": "nonpayable",
      "type": "function"
    },
    {
      "inputs": [
        {
          "internalType": "address",
          "name": "",
          "type": "address"
        }
      ],
      "name": "delegates",
      "outputs": [
        {
          "internalType": "address",
          "name": "",
          "type": "address"
        }
      ],
      "stateMutability": "view",
      "type": "function"
    },
    {
      "inputs": [
        {
          "internalType": "address",
          "name": "account",
          "type": "address"
        }
      ],
      "name": "getCurrentVotes",
      "outputs": [
        {
          "internalType": "uint256",
          "name": "votes",
          "type": "uint256"
        }
      ],
      "stateMutability": "view",
      "type": "function"
    },
    {
      "inputs": [
        {
          "internalType": "address",
          "name": "account",
          "type": "address"
        },
        {
          "internalType": "uint256",
          "name": "timestamp",
          "type": "uint256"
        }
      ],
      "name": "getPriorVotes",
      "outputs": [
        {
          "internalType": "uint256",
          "name": "votes",
          "type": "uint256"
        }
      ],
      "stateMutability": "view",
      "type": "function"
    },
    {
      "inputs": [],
      "name": "name",
      "outputs": [
        {
          "internalType": "string",
          "name": "",
          "type": "string"
        }
      ],
      "stateMutability": "view",
      "type": "function"
    },
    {
      "inputs": [
        {
          "internalType": "address",
          "name": "",
          "type": "address"
        }
      ],
      "name": "nonces",
      "outputs": [
        {
          "internalType": "uint256",
          "name": "",
          "type": "uint256"
        }
      ],
      "stateMutability": "view",
      "type": "function"
    },
    {
      "inputs": [
        {
          "internalType": "address",
          "name": "",
          "type": "address"
        }
      ],
      "name": "numCheckpoints",
      "outputs": [
        {
          "internalType": "uint256",
          "name": "",
          "type": "uint256"
        }
      ],
      "stateMutability": "view",
      "type": "function"
    },
    {
      "inputs": [],
      "name": "paused",
      "outputs": [
        {
          "internalType": "bool",
          "name": "",
          "type": "bool"
        }
      ],
      "stateMutability": "view",
      "type": "function"
    },
    {
      "inputs": [
        {
          "internalType": "address",
          "name": "owner",
          "type": "address"
        },
        {
          "internalType": "address",
          "name": "spender",
          "type": "address"
        },
        {
          "internalType": "uint256",
          "name": "value",
          "type": "uint256"
        },
        {
          "internalType": "uint256",
          "name": "deadline",
          "type": "uint256"
        },
        {
          "internalType": "uint8",
          "name": "v",
          "type": "uint8"
        },
        {
          "internalType": "bytes32",
          "name": "r",
          "type": "bytes32"
        },
        {
          "internalType": "bytes32",
          "name": "s",
          "type": "bytes32"
        }
      ],
      "name": "permit",
      "outputs": [],
      "stateMutability": "nonpayable",
      "type": "function"
    },
    {
      "inputs": [],
      "name": "symbol",
      "outputs": [
        {
          "internalType": "string",
          "name": "",
          "type": "string"
        }
      ],
      "stateMutability": "view",
      "type": "function"
    },
    {
      "inputs": [],
      "name": "totalSupply",
      "outputs": [
        {
          "internalType": "uint256",
          "name": "",
          "type": "uint256"
        }
      ],
      "stateMutability": "view",
      "type": "function"
    },
    {
      "inputs": [
        {
          "internalType": "address",
          "name": "to",
          "type": "address"
        },
        {
          "internalType": "uint256",
          "name": "amount",
          "type": "uint256"
        }
      ],
      "name": "transfer",
      "outputs": [
        {
          "internalType": "bool",
          "name": "",
          "type": "bool"
        }
      ],
      "stateMutability": "nonpayable",
      "type": "function"
    },
    {
      "inputs": [
        {
          "internalType": "address",
          "name": "from",
          "type": "address"
        },
        {
          "internalType": "address",
          "name": "to",
          "type": "address"
        },
        {
          "internalType": "uint256",
          "name": "amount",
          "type": "uint256"
        }
      ],
      "name": "transferFrom",
      "outputs": [
        {
          "internalType": "bool",
          "name": "",
          "type": "bool"
        }
      ],
      "stateMutability": "nonpayable",
      "type": "function"
    }
  ],
  "bytecode": "0x60c06040523480156200001157600080fd5b50604051620022473803806200224783398101604081905262000034916200089f565b8051825114620000615760405162461bcd60e51b8152600401620000589062000a3d565b60405180910390fd5b84516200007690600090602088019062000688565b5083516200008c90600190602087019062000688565b506005805460ff191684151517905546608052620000a962000192565b60a05260005b825181101562000186576200011b838281518110620000de57634e487b7160e01b600052603260045260246000fd5b60200260200101518383815181106200010757634e487b7160e01b600052603260045260246000fd5b60200260200101516200023460201b60201c565b6200017d8382815181106200014057634e487b7160e01b600052603260045260246000fd5b60200260200101518483815181106200016957634e487b7160e01b600052603260045260246000fd5b6020026020010151620002a860201b60201c565b600101620000af565b50505050505062000b79565b60007f8b73c3c69bb8fe3d512ecc4cf759cc79239f7b179b0ffacaa9a75d522b39400f6000604051620001c691906200096c565b60408051918290038220828201825260018352603160f81b60209384015290516200021993927fc89efdaa54c0f20c7adf612882df0950f5a951637e0307cdcb4c672f298b8bc691469130910162000a11565b60405160208183030381529060405280519060200120905090565b806002600082825462000248919062000adb565b90915550506001600160a01b038216600081815260036020526040808220805485019055517fddf252ad1be2c89b69c2b068fc378daa952ba7f163c4a11628f55a4df523b3ef906200029c90859062000a66565b60405180910390a35050565b6001600160a01b03808316600090815260066020908152604080832080548686166001600160a01b0319821617909155600390925290912054911690620002f3908290849062000342565b816001600160a01b0316816001600160a01b0316846001600160a01b03167f3134e8a2e6d97e929a7e54011ea5485d7d196dd5f0ba4d4ef95803e8e3fc257f60405160405180910390a4505050565b816001600160a01b0316836001600160a01b031614158015620003655750600081115b15620004c7576001600160a01b0383161562000419576001600160a01b0383166000908152600860205260408120549081620003a3576000620003ec565b6001600160a01b038516600090815260076020526040812090620003c960018562000af6565b815260208101919091526040016000205464010000000090046001600160e01b03165b6001600160e01b03169050600062000405848362000af6565b90506200041586848484620004cc565b5050505b6001600160a01b03821615620004c7576001600160a01b0382166000908152600860205260408120549081620004515760006200049a565b6001600160a01b0384166000908152600760205260408120906200047760018562000af6565b815260208101919091526040016000205464010000000090046001600160e01b03165b6001600160e01b031690506000620004b3848362000adb565b9050620004c385848484620004cc565b5050505b505050565b6000831180156200050957506001600160a01b03841660009081526007602090815260408083206000198701845290915290205463ffffffff1642145b156200056a576200051a8162000659565b6001600160a01b038516600090815260076020908152604080832060001988018452909152902080546001600160e01b03929092166401000000000263ffffffff9092169190911790556200060e565b604051806040016040528062000586426200067460201b60201c565b63ffffffff1681526020016200059c8362000659565b6001600160e01b039081169091526001600160a01b0386166000818152600760209081526040808320898452825280832086518154978401519096166401000000000263ffffffff96871663ffffffff1990981697909717909516959095179093559081526008909152206001840190555b836001600160a01b03167fdec2bacdd2f05b59de34da9b523dff8be42e5e38e818c82fdb0bae774387a72483836040516200064b92919062000a6f565b60405180910390a250505050565b60006001600160e01b038211156200067057600080fd5b5090565b600063ffffffff8211156200067057600080fd5b828054620006969062000b10565b90600052602060002090601f016020900481019282620006ba576000855562000705565b82601f10620006d557805160ff191683800117855562000705565b8280016001018555821562000705579182015b8281111562000705578251825591602001919060010190620006e8565b50620006709291505b808211156200067057600081556001016200070e565b600082601f83011262000735578081fd5b815160206200074e620007488362000aa9565b62000a7d565b82815281810190858301838502870184018810156200076b578586fd5b855b85811015620007a05781516001600160a01b03811681146200078d578788fd5b845292840192908401906001016200076d565b5090979650505050505050565b600082601f830112620007be578081fd5b81516020620007d1620007488362000aa9565b8281528181019085830183850287018401881015620007ee578586fd5b855b85811015620007a057815184529284019290840190600101620007f0565b600082601f8301126200081f578081fd5b81516001600160401b038111156200083b576200083b62000b63565b602062000851601f8301601f1916820162000a7d565b828152858284870101111562000865578384fd5b835b838110156200088457858101830151828201840152820162000867565b838111156200089557848385840101525b5095945050505050565b600080600080600060a08688031215620008b7578081fd5b85516001600160401b0380821115620008ce578283fd5b620008dc89838a016200080e565b96506020880151915080821115620008f2578283fd5b6200090089838a016200080e565b955060408801519150811515821462000917578283fd5b6060880151919450808211156200092c578283fd5b6200093a89838a0162000724565b9350608088015191508082111562000950578283fd5b506200095f88828901620007ad565b9150509295509295909350565b81546000908190600281046001808316806200098957607f831692505b6020808410821415620009aa57634e487b7160e01b87526022600452602487fd5b818015620009c15760018114620009d35762000a03565b60ff1986168952848901965062000a03565b620009de8a62000acf565b885b86811015620009fb5781548b820152908501908301620009e0565b505084890196505b509498975050505050505050565b9485526020850193909352604084019190915260608301526001600160a01b0316608082015260a00190565b6020808252600f908201526e4e4f5f41525241595f50415249545960881b604082015260600190565b90815260200190565b918252602082015260400190565b6040518181016001600160401b038111828210171562000aa15762000aa162000b63565b604052919050565b60006001600160401b0382111562000ac55762000ac562000b63565b5060209081020190565b60009081526020902090565b6000821982111562000af15762000af162000b4d565b500190565b60008282101562000b0b5762000b0b62000b4d565b500390565b60028104600182168062000b2557607f821691505b6020821081141562000b4757634e487b7160e01b600052602260045260246000fd5b50919050565b634e487b7160e01b600052601160045260246000fd5b634e487b7160e01b600052604160045260246000fd5b60805160a0516116a862000b9f60003960006105a70152600061057301526116a86000f3fe608060405234801561001057600080fd5b50600436106101425760003560e01c80636fcfff45116100b8578063a9059cbb1161007c578063a9059cbb14610284578063b4b5ea5714610297578063c3cda520146102aa578063d505accf146102bd578063dd62ed3e146102d0578063e7a324dc146102e357610142565b80636fcfff451461023057806370a0823114610243578063782d6fe1146102565780637ecebe001461026957806395d89b411461027c57610142565b806330adf81f1161010a57806330adf81f146101ce578063313ce567146101d65780633644e515146101eb578063587cde1e146101f35780635c19a95c146102135780635c975abb1461022857610142565b806306fdde0314610147578063095ea7b3146101655780630cdfebfa1461018557806318160ddd146101a657806323b872dd146101bb575b600080fd5b61014f6102eb565b60405161015c9190611426565b60405180910390f35b610178610173366004611226565b610379565b60405161015c9190611370565b610198610193366004611226565b6103e4565b60405161015c9291906115b9565b6101ae610419565b60405161015c919061137b565b6101786101c9366004611182565b61041f565b6101ae610546565b6101de61056a565b60405161015c91906115d8565b6101ae61056f565b61020661020136600461112f565b6105cc565b60405161015c919061135c565b61022661022136600461112f565b6105e7565b005b6101786105f4565b6101ae61023e36600461112f565b6105fd565b6101ae61025136600461112f565b61060f565b6101ae610264366004611226565b610621565b6101ae61027736600461112f565b610805565b61014f610817565b610178610292366004611226565b610824565b6101ae6102a536600461112f565b6108be565b6102266102b836600461124f565b61092c565b6102266102cb3660046111bd565b610a9f565b6101ae6102de366004611150565b610c70565b6101ae610c8d565b600080546102f890611621565b80601f016020809104026020016040519081016040528092919081815260200182805461032490611621565b80156103715780601f1061034657610100808354040283529160200191610371565b820191906000526020600020905b81548152906001019060200180831161035457829003601f168201915b505050505081565b3360008181526004602090815260408083206001600160a01b038716808552925280832085905551919290917f8c5be1e5ebec7d5bd14f71427d1e84f3dd0314c0f7b2291e5b200ac8c7c3b925906103d290869061137b565b60405180910390a35060015b92915050565b600760209081526000928352604080842090915290825290205463ffffffff811690600160201b90046001600160e01b031682565b60025481565b60055460009060ff161561044e5760405162461bcd60e51b815260040161044590611479565b60405180910390fd5b6001600160a01b0384166000908152600460209081526040808320338452909152902054600019146104b3576001600160a01b0384166000908152600460209081526040808320338452909152812080548492906104ad90849061160a565b90915550505b6001600160a01b038416600090815260036020526040812080548492906104db90849061160a565b90915550506001600160a01b03808416600081815260036020526040908190208054860190555190918616907fddf252ad1be2c89b69c2b068fc378daa952ba7f163c4a11628f55a4df523b3ef9061053490869061137b565b60405180910390a35060019392505050565b7f6e71edae12b1b97f4d1f60370fef10105fa2faae0126114a169c64845d6126c981565b601281565b60007f000000000000000000000000000000000000000000000000000000000000000046146105a5576105a0610cb1565b6105c7565b7f00000000000000000000000000000000000000000000000000000000000000005b905090565b6006602052600090815260409020546001600160a01b031681565b6105f13382610d4f565b50565b60055460ff1681565b60086020526000908152604090205481565b60036020526000908152604090205481565b60008142116106425760405162461bcd60e51b815260040161044590611499565b6001600160a01b0383166000908152600860205260409020548061066a5760009150506103de565b6001600160a01b03841660009081526007602090815260408083206000198501845290915290205463ffffffff1683106106de576001600160a01b0384166000908152600760209081526040808320600019909401835292905220546001600160e01b03600160201b9091041690506103de565b6001600160a01b038416600090815260076020908152604080832083805290915290205463ffffffff168310156107195760009150506103de565b600060001982015b818111156107c7576001600160a01b038616600090815260076020908152604080832060028686030485038085529083529281902081518083019092525463ffffffff8116808352600160201b9091046001600160e01b031692820192909252908714156107a257602001516001600160e01b031694506103de9350505050565b805163ffffffff168711156107b9578193506107c0565b6001820392505b5050610721565b506001600160a01b038516600090815260076020908152604080832093835292905220546001600160e01b03600160201b9091041691505092915050565b60096020526000908152604090205481565b600180546102f890611621565b60055460009060ff161561084a5760405162461bcd60e51b815260040161044590611479565b336000908152600360205260408120805484929061086990849061160a565b90915550506001600160a01b038316600081815260036020526040908190208054850190555133907fddf252ad1be2c89b69c2b068fc378daa952ba7f163c4a11628f55a4df523b3ef906103d290869061137b565b6001600160a01b038116600090815260086020526040812054806108e357600061091c565b6001600160a01b038316600090815260076020908152604080832060001985018452909152902054600160201b90046001600160e01b03165b6001600160e01b03169392505050565b60007fe48329057bfd03d55e49b547132e39cffd9c1820ad7b9d4c5307691425d15adf87878760405160200161096594939291906113b8565b604051602081830303815290604052805190602001209050600061098761056f565b82604051602001610999929190611341565b6040516020818303038152906040528051906020012090506000600182878787604051600081526020016040526040516109d69493929190611408565b6020604051602081039080840390855afa1580156109f8573d6000803e3d6000fd5b5050604051601f1901519150506001600160a01b038116610a2b5760405162461bcd60e51b815260040161044590611527565b6001600160a01b03811660009081526009602052604090208054600181019091558814610a6a5760405162461bcd60e51b81526004016104459061154d565b86421115610a8a5760405162461bcd60e51b8152600401610445906114fc565b610a94818a610d4f565b505050505050505050565b83421115610abf5760405162461bcd60e51b815260040161044590611574565b6000610ac961056f565b6001600160a01b0389166000908152600960209081526040918290208054600181019091559151610b26927f6e71edae12b1b97f4d1f60370fef10105fa2faae0126114a169c64845d6126c9928d928d928d9290918d9101611384565b60405160208183030381529060405280519060200120604051602001610b4d929190611341565b604051602081830303815290604052805190602001209050600060018286868660405160008152602001604052604051610b8a9493929190611408565b6020604051602081039080840390855afa158015610bac573d6000803e3d6000fd5b5050604051601f1901519150506001600160a01b03811615801590610be25750886001600160a01b0316816001600160a01b0316145b610bfe5760405162461bcd60e51b8152600401610445906114c5565b6001600160a01b0390811660009081526004602090815260408083208b85168085529252918290208990559051909250908916907f8c5be1e5ebec7d5bd14f71427d1e84f3dd0314c0f7b2291e5b200ac8c7c3b92590610c5f90899061137b565b60405180910390a350505050505050565b600460209081526000928352604080842090915290825290205481565b7fe48329057bfd03d55e49b547132e39cffd9c1820ad7b9d4c5307691425d15adf81565b60007f8b73c3c69bb8fe3d512ecc4cf759cc79239f7b179b0ffacaa9a75d522b39400f6000604051610ce391906112a6565b60408051918290038220828201825260018352603160f81b6020938401529051610d3493927fc89efdaa54c0f20c7adf612882df0950f5a951637e0307cdcb4c672f298b8bc69146913091016113dc565b60405160208183030381529060405280519060200120905090565b6001600160a01b03808316600090815260066020908152604080832080548686166001600160a01b0319821617909155600390925290912054911690610d989082908490610de7565b816001600160a01b0316816001600160a01b0316846001600160a01b03167f3134e8a2e6d97e929a7e54011ea5485d7d196dd5f0ba4d4ef95803e8e3fc257f60405160405180910390a4505050565b816001600160a01b0316836001600160a01b031614158015610e095750600081115b15610f56576001600160a01b03831615610eb2576001600160a01b0383166000908152600860205260408120549081610e43576000610e89565b6001600160a01b038516600090815260076020526040812090610e6760018561160a565b8152602081019190915260400160002054600160201b90046001600160e01b03165b6001600160e01b031690506000610ea0848361160a565b9050610eae86848484610f5b565b5050505b6001600160a01b03821615610f56576001600160a01b0382166000908152600860205260408120549081610ee7576000610f2d565b6001600160a01b038416600090815260076020526040812090610f0b60018561160a565b8152602081019190915260400160002054600160201b90046001600160e01b03165b6001600160e01b031690506000610f4484836115f2565b9050610f5285848484610f5b565b5050505b505050565b600083118015610f9757506001600160a01b03841660009081526007602090815260408083206000198701845290915290205463ffffffff1642145b15610ff357610fa5816110d5565b6001600160a01b038516600090815260076020908152604080832060001988018452909152902080546001600160e01b0392909216600160201b0263ffffffff90921691909117905561108c565b6040518060400160405280611007426110ef565b63ffffffff16815260200161101b836110d5565b6001600160e01b039081169091526001600160a01b038616600081815260076020908152604080832089845282528083208651815497840151909616600160201b0263ffffffff96871663ffffffff1990981697909717909516959095179093559081526008909152206001840190555b836001600160a01b03167fdec2bacdd2f05b59de34da9b523dff8be42e5e38e818c82fdb0bae774387a72483836040516110c79291906115ab565b60405180910390a250505050565b60006001600160e01b038211156110eb57600080fd5b5090565b600063ffffffff8211156110eb57600080fd5b80356001600160a01b038116811461111957600080fd5b919050565b803560ff8116811461111957600080fd5b600060208284031215611140578081fd5b61114982611102565b9392505050565b60008060408385031215611162578081fd5b61116b83611102565b915061117960208401611102565b90509250929050565b600080600060608486031215611196578081fd5b61119f84611102565b92506111ad60208501611102565b9150604084013590509250925092565b600080600080600080600060e0888a0312156111d7578283fd5b6111e088611102565b96506111ee60208901611102565b9550604088013594506060880135935061120a6080890161111e565b925060a0880135915060c0880135905092959891949750929550565b60008060408385031215611238578182fd5b61124183611102565b946020939093013593505050565b60008060008060008060c08789031215611267578182fd5b61127087611102565b9550602087013594506040870135935061128c6060880161111e565b92506080870135915060a087013590509295509295509295565b81546000908190600281046001808316806112c257607f831692505b60208084108214156112e257634e487b7160e01b87526022600452602487fd5b8180156112f6576001811461130757611333565b60ff19861689528489019650611333565b6113108a6115e6565b885b8681101561132b5781548b820152908501908301611312565b505084890196505b509498975050505050505050565b61190160f01b81526002810192909252602282015260420190565b6001600160a01b0391909116815260200190565b901515815260200190565b90815260200190565b9586526001600160a01b0394851660208701529290931660408501526060840152608083019190915260a082015260c00190565b9384526001600160a01b039290921660208401526040830152606082015260800190565b9485526020850193909352604084019190915260608301526001600160a01b0316608082015260a00190565b93845260ff9290921660208401526040830152606082015260800190565b6000602080835283518082850152825b8181101561145257858101830151858201604001528201611436565b818111156114635783604083870101525b50601f01601f1916929092016040019392505050565b60208082526006908201526514105554d15160d21b604082015260600190565b6020808252601290820152711393d517d6515517d111551154935253915160721b604082015260600190565b60208082526018908201527f494e56414c49445f5045524d49545f5349474e41545552450000000000000000604082015260600190565b60208082526011908201527014d251d3905515549157d1561412549151607a1b604082015260600190565b6020808252600c908201526b5a45524f5f4144445245535360a01b604082015260600190565b6020808252600d908201526c494e56414c49445f4e4f4e434560981b604082015260600190565b60208082526017908201527f5045524d49545f444541444c494e455f45585049524544000000000000000000604082015260600190565b918252602082015260400190565b63ffffffff9290921682526001600160e01b0316602082015260400190565b60ff91909116815260200190565b60009081526020902090565b600082198211156116055761160561165c565b500190565b60008282101561161c5761161c61165c565b500390565b60028104600182168061163557607f821691505b6020821081141561165657634e487b7160e01b600052602260045260246000fd5b50919050565b634e487b7160e01b600052601160045260246000fdfea2646970667358221220fc0cba62e7367857b41c351182caf7cacc761bd28e4008f922dbf36a3e89367264736f6c63430008000033",
  "linkReferences": {},
  "deployedLinkReferences": {}
}