{
  "_format": "hh-sol-artifact-1",
  "contractName": "LiteDAOnftHelper",
  "sourceName": "contracts/LiteDAOnftHelper.sol",
  "abi": [
    {
      "inputs": [
        {
          "internalType": "address",
          "name": "",
          "type": "address"
        },
        {
          "internalType": "address",
          "name": "",
          "type": "address"
        },
        {
          "internalType": "uint256[]",
          "name": "",
          "type": "uint256[]"
        },
        {
          "internalType": "uint256[]",
          "name": "",
          "type": "uint256[]"
        },
        {
          "internalType": "bytes",
          "name": "",
          "type": "bytes"
        }
      ],
      "name": "onERC1155BatchReceived",
      "outputs": [
        {
          "internalType": "bytes4",
          "name": "sig",
          "type": "bytes4"
        }
      ],
      "stateMutability": "pure",
      "type": "function"
    },
    {
      "inputs": [
        {
          "internalType": "address",
          "name": "",
          "type": "address"
        },
        {
          "internalType": "address",
          "name": "",
          "type": "address"
        },
        {
          "internalType": "uint256",
          "name": "",
          "type": "uint256"
        },
        {
          "internalType": "uint256",
          "name": "",
          "type": "uint256"
        },
        {
          "internalType": "bytes",
          "name": "",
          "type": "bytes"
        }
      ],
      "name": "onERC1155Received",
      "outputs": [
        {
          "internalType": "bytes4",
          "name": "sig",
          "type": "bytes4"
        }
      ],
      "stateMutability": "pure",
      "type": "function"
    },
    {
      "inputs": [
        {
          "internalType": "address",
          "name": "",
          "type": "address"
        },
        {
          "internalType": "address",
          "name": "",
          "type": "address"
        },
        {
          "internalType": "uint256",
          "name": "",
          "type": "uint256"
        },
        {
          "internalType": "bytes",
          "name": "",
          "type": "bytes"
        }
      ],
      "name": "onERC721Received",
      "outputs": [
        {
          "internalType": "bytes4",
          "name": "sig",
          "type": "bytes4"
        }
      ],
      "stateMutability": "pure",
      "type": "function"
    }
  ],
  "bytecode": "0x608060405234801561001057600080fd5b50610356806100206000396000f3fe608060405234801561001057600080fd5b50600436106100415760003560e01c8063150b7a0214610046578063bc197c811461006f578063f23a6e6114610082575b600080fd5b610059610054366004610228565b610095565b604051610066919061030b565b60405180910390f35b61005961007d366004610171565b6100a6565b610059610090366004610295565b6100ba565b50630a85bd0160e11b949350505050565b5063bc197c8160e01b979650505050505050565b5063f23a6e6160e01b95945050505050565b80356001600160a01b03811681146100e357600080fd5b919050565b60008083601f8401126100f9578182fd5b50813567ffffffffffffffff811115610110578182fd5b602083019150836020808302850101111561012a57600080fd5b9250929050565b60008083601f840112610142578182fd5b50813567ffffffffffffffff811115610159578182fd5b60208301915083602082850101111561012a57600080fd5b60008060008060008060008060a0898b03121561018c578384fd5b610195896100cc565b97506101a360208a016100cc565b9650604089013567ffffffffffffffff808211156101bf578586fd5b6101cb8c838d016100e8565b909850965060608b01359150808211156101e3578586fd5b6101ef8c838d016100e8565b909650945060808b0135915080821115610207578384fd5b506102148b828c01610131565b999c989b5096995094979396929594505050565b60008060008060006080868803121561023f578081fd5b610248866100cc565b9450610256602087016100cc565b935060408601359250606086013567ffffffffffffffff811115610278578182fd5b61028488828901610131565b969995985093965092949392505050565b60008060008060008060a087890312156102ad578182fd5b6102b6876100cc565b95506102c4602088016100cc565b94506040870135935060608701359250608087013567ffffffffffffffff8111156102ed578283fd5b6102f989828a01610131565b979a9699509497509295939492505050565b6001600160e01b03199190911681526020019056fea26469706673582212203bd33645e86be95bddde09ba4f221aed2256b53a311330e9bbe448e0ec042c4864736f6c63430008000033",
  "linkReferences": {},
  "deployedLinkReferences": {}
}